{
  "contractName": "TwistedSisterAuction",
  "abi": [
    {
      "inputs": [
        {
          "internalType": "contract ITwistedSisterAccessControls",
          "name": "_accessControls",
          "type": "address"
        },
        {
          "internalType": "contract ITwistedSisterTokenCreator",
          "name": "_twistedTokenCreator",
          "type": "address"
        },
        {
          "internalType": "contract TwistedSisterArtistFundSplitter",
          "name": "_artistFundSplitter",
          "type": "address"
        },
        {
          "internalType": "address payable",
          "name": "_printingFund",
          "type": "address"
        },
        {
          "internalType": "address payable",
          "name": "_auctionOwner",
          "type": "address"
        },
        {
          "internalType": "uint256",
          "name": "_auctionStartTime",
          "type": "uint256"
        }
      ],
      "payable": false,
      "stateMutability": "nonpayable",
      "type": "constructor"
    },
    {
      "anonymous": false,
      "inputs": [
        {
          "indexed": true,
          "internalType": "uint256",
          "name": "_round",
          "type": "uint256"
        },
        {
          "indexed": false,
          "internalType": "uint256",
          "name": "_timeStamp",
          "type": "uint256"
        },
        {
          "indexed": false,
          "internalType": "uint256",
          "name": "_param",
          "type": "uint256"
        },
        {
          "indexed": false,
          "internalType": "uint256",
          "name": "_amount",
          "type": "uint256"
        },
        {
          "indexed": true,
          "internalType": "address",
          "name": "_bidder",
          "type": "address"
        }
      ],
      "name": "BidAccepted",
      "type": "event"
    },
    {
      "anonymous": false,
      "inputs": [
        {
          "indexed": true,
          "internalType": "uint256",
          "name": "_round",
          "type": "uint256"
        },
        {
          "indexed": false,
          "internalType": "uint256",
          "name": "_amount",
          "type": "uint256"
        },
        {
          "indexed": true,
          "internalType": "address",
          "name": "_bidder",
          "type": "address"
        }
      ],
      "name": "BidderRefunded",
      "type": "event"
    },
    {
      "anonymous": false,
      "inputs": [
        {
          "indexed": true,
          "internalType": "uint256",
          "name": "_round",
          "type": "uint256"
        },
        {
          "indexed": false,
          "internalType": "uint256",
          "name": "_timestamp",
          "type": "uint256"
        },
        {
          "indexed": false,
          "internalType": "uint256",
          "name": "_param",
          "type": "uint256"
        },
        {
          "indexed": false,
          "internalType": "uint256",
          "name": "_highestBid",
          "type": "uint256"
        },
        {
          "indexed": false,
          "internalType": "address",
          "name": "_highestBidder",
          "type": "address"
        }
      ],
      "name": "RoundFinalised",
      "type": "event"
    },
    {
      "constant": true,
      "inputs": [],
      "name": "accessControls",
      "outputs": [
        {
          "internalType": "contract ITwistedSisterAccessControls",
          "name": "",
          "type": "address"
        }
      ],
      "payable": false,
      "stateMutability": "view",
      "type": "function"
    },
    {
      "constant": true,
      "inputs": [],
      "name": "artistFundSplitter",
      "outputs": [
        {
          "internalType": "contract TwistedSisterArtistFundSplitter",
          "name": "",
          "type": "address"
        }
      ],
      "payable": false,
      "stateMutability": "view",
      "type": "function"
    },
    {
      "constant": true,
      "inputs": [],
      "name": "auctionStartTime",
      "outputs": [
        {
          "internalType": "uint256",
          "name": "",
          "type": "uint256"
        }
      ],
      "payable": false,
      "stateMutability": "view",
      "type": "function"
    },
    {
      "constant": true,
      "inputs": [],
      "name": "currentRound",
      "outputs": [
        {
          "internalType": "uint256",
          "name": "",
          "type": "uint256"
        }
      ],
      "payable": false,
      "stateMutability": "view",
      "type": "function"
    },
    {
      "constant": true,
      "inputs": [
        {
          "internalType": "uint256",
          "name": "",
          "type": "uint256"
        }
      ],
      "name": "highestBidFromRound",
      "outputs": [
        {
          "internalType": "uint256",
          "name": "",
          "type": "uint256"
        }
      ],
      "payable": false,
      "stateMutability": "view",
      "type": "function"
    },
    {
      "constant": true,
      "inputs": [
        {
          "internalType": "uint256",
          "name": "",
          "type": "uint256"
        }
      ],
      "name": "highestBidderFromRound",
      "outputs": [
        {
          "internalType": "address",
          "name": "",
          "type": "address"
        }
      ],
      "payable": false,
      "stateMutability": "view",
      "type": "function"
    },
    {
      "constant": true,
      "inputs": [],
      "name": "minBid",
      "outputs": [
        {
          "internalType": "uint256",
          "name": "",
          "type": "uint256"
        }
      ],
      "payable": false,
      "stateMutability": "view",
      "type": "function"
    },
    {
      "constant": true,
      "inputs": [],
      "name": "numOfRounds",
      "outputs": [
        {
          "internalType": "uint256",
          "name": "",
          "type": "uint256"
        }
      ],
      "payable": false,
      "stateMutability": "view",
      "type": "function"
    },
    {
      "constant": true,
      "inputs": [],
      "name": "roundLengthInSeconds",
      "outputs": [
        {
          "internalType": "uint256",
          "name": "",
          "type": "uint256"
        }
      ],
      "payable": false,
      "stateMutability": "view",
      "type": "function"
    },
    {
      "constant": true,
      "inputs": [],
      "name": "secondsInADay",
      "outputs": [
        {
          "internalType": "uint256",
          "name": "",
          "type": "uint256"
        }
      ],
      "payable": false,
      "stateMutability": "view",
      "type": "function"
    },
    {
      "constant": true,
      "inputs": [],
      "name": "twistedTokenCreator",
      "outputs": [
        {
          "internalType": "contract ITwistedSisterTokenCreator",
          "name": "",
          "type": "address"
        }
      ],
      "payable": false,
      "stateMutability": "view",
      "type": "function"
    },
    {
      "constant": true,
      "inputs": [
        {
          "internalType": "uint256",
          "name": "",
          "type": "uint256"
        }
      ],
      "name": "winningRoundParameter",
      "outputs": [
        {
          "internalType": "uint256",
          "name": "",
          "type": "uint256"
        }
      ],
      "payable": false,
      "stateMutability": "view",
      "type": "function"
    },
    {
      "constant": false,
      "inputs": [
        {
          "internalType": "uint256",
          "name": "_parameter",
          "type": "uint256"
        }
      ],
      "name": "bid",
      "outputs": [],
      "payable": true,
      "stateMutability": "payable",
      "type": "function"
    },
    {
      "constant": false,
      "inputs": [
        {
          "internalType": "string",
          "name": "_ipfsHash",
          "type": "string"
        }
      ],
      "name": "issueTwistAndPrepNextRound",
      "outputs": [],
      "payable": false,
      "stateMutability": "nonpayable",
      "type": "function"
    },
    {
      "constant": false,
      "inputs": [
        {
          "internalType": "uint256",
          "name": "_auctionStartTime",
          "type": "uint256"
        }
      ],
      "name": "updateAuctionStartTime",
      "outputs": [],
      "payable": false,
      "stateMutability": "nonpayable",
      "type": "function"
    },
    {
      "constant": false,
      "inputs": [
        {
          "internalType": "uint256",
          "name": "_numOfRounds",
          "type": "uint256"
        }
      ],
      "name": "updateNumberOfRounds",
      "outputs": [],
      "payable": false,
      "stateMutability": "nonpayable",
      "type": "function"
    },
    {
      "constant": false,
      "inputs": [
        {
          "internalType": "uint256",
          "name": "_roundLengthInSeconds",
          "type": "uint256"
        }
      ],
      "name": "updateRoundLength",
      "outputs": [],
      "payable": false,
      "stateMutability": "nonpayable",
      "type": "function"
    },
    {
      "constant": false,
      "inputs": [
        {
          "internalType": "contract TwistedSisterArtistFundSplitter",
          "name": "_artistFundSplitter",
          "type": "address"
        }
      ],
      "name": "updateArtistFundSplitter",
      "outputs": [],
      "payable": false,
      "stateMutability": "nonpayable",
      "type": "function"
    }
  ],
  "bytecode": "0x608060405266470de4df8200006003556001600455601560055561a8c060065534801561002b57600080fd5b50604051611511380380611511833981810160405260c081101561004e57600080fd5b508051602082015160408301516060840151608085015160a09095015193949293919290914281116100cb576040517f08c379a00000000000000000000000000000000000000000000000000000000081526004018080602001828103825260278152602001806114ea6027913960400191505060405180910390fd5b600a80546001600160a01b03199081166001600160a01b0398891617909155600b8054821696881696909617909555600c805486169487169490941790935560008054851692861692909217825560029290925560018054909316919093161790556113ad90819061013d90396000f3fe6080604052600436106101095760003560e01c80637895884a11610095578063bdd7cfe711610064578063bdd7cfe7146102ab578063d9b9e787146102de578063eb54f9ec14610308578063f2fd2ea51461031d578063fffed3801461039a57610109565b80637895884a146102425780637ac96a62146102575780638a19c8bc1461028157806393a744a71461029657610109565b8063454a2ab3116100dc578063454a2ab3146101bc578063484aba99146101d95780636a019389146102035780636b26f0f914610218578063748365ef1461022d57610109565b80630c1dbe631461010e578063204795331461015457806323c19fbd146101805780633e109a1914610195575b600080fd5b34801561011a57600080fd5b506101386004803603602081101561013157600080fd5b50356103c4565b604080516001600160a01b039092168252519081900360200190f35b34801561016057600080fd5b5061017e6004803603602081101561017757600080fd5b50356103df565b005b34801561018c57600080fd5b506101386104e6565b3480156101a157600080fd5b506101aa6104f5565b60408051918252519081900360200190f35b61017e600480360360208110156101d257600080fd5b50356104fb565b3480156101e557600080fd5b5061017e600480360360208110156101fc57600080fd5b503561060e565b34801561020f57600080fd5b506101aa6106d4565b34801561022457600080fd5b506101aa6106db565b34801561023957600080fd5b506101386106e1565b34801561024e57600080fd5b506101aa6106f0565b34801561026357600080fd5b506101aa6004803603602081101561027a57600080fd5b50356106f6565b34801561028d57600080fd5b506101aa610708565b3480156102a257600080fd5b5061013861070e565b3480156102b757600080fd5b5061017e600480360360208110156102ce57600080fd5b50356001600160a01b031661071d565b3480156102ea57600080fd5b5061017e6004803603602081101561030157600080fd5b5035610800565b34801561031457600080fd5b506101aa6108d5565b34801561032957600080fd5b5061017e6004803603602081101561034057600080fd5b81019060208101813564010000000081111561035b57600080fd5b82018360208201111561036d57600080fd5b8035906020019184600183028401116401000000008311171561038f57600080fd5b5090925090506108db565b3480156103a657600080fd5b506101aa600480360360208110156103bd57600080fd5b5035610c59565b6009602052600090815260409020546001600160a01b031681565b600a5460408051633af32abf60e01b815233600482015290516001600160a01b0390921691633af32abf91602480820192602092909190829003018186803b15801561042a57600080fd5b505afa15801561043e573d6000803e3d6000fd5b505050506040513d602081101561045457600080fd5b50516104a0576040805162461bcd60e51b815260206004820152601660248201527510d85b1b195c881b9bdd081dda1a5d195b1a5cdd195960521b604482015290519081900360640190fd5b6004548110156104e15760405162461bcd60e51b815260040180806020018281038252603d81526020018061128c603d913960400191505060405180910390fd5b600555565b600c546001600160a01b031681565b60035481565b60008111610550576040805162461bcd60e51b815260206004820152601c60248201527f54686520706172616d657465722063616e6e6f74206265207a65726f00000000604482015290519081900360640190fd5b61055934610c6b565b610561610da1565b60048054600090815260086020818152604080842034905584548452600980835281852080546001600160a01b031916331790558554855260078084528286208890559554808652908352818520549583528185205493835293819020548151428152928301939093528181019290925290516001600160a01b0393909316927f2951c447583280c9dae4144efd5412f37c967a855edd3466e1e1fcf6721768269181900360600190a350565b600a5460408051633af32abf60e01b815233600482015290516001600160a01b0390921691633af32abf91602480820192602092909190829003018186803b15801561065957600080fd5b505afa15801561066d573d6000803e3d6000fd5b505050506040513d602081101561068357600080fd5b50516106cf576040805162461bcd60e51b815260206004820152601660248201527510d85b1b195c881b9bdd081dda1a5d195b1a5cdd195960521b604482015290519081900360640190fd5b600255565b6201518081565b60065481565b600a546001600160a01b031681565b60055481565b60076020526000908152604090205481565b60045481565b600b546001600160a01b031681565b600a5460408051633af32abf60e01b815233600482015290516001600160a01b0390921691633af32abf91602480820192602092909190829003018186803b15801561076857600080fd5b505afa15801561077c573d6000803e3d6000fd5b505050506040513d602081101561079257600080fd5b50516107de576040805162461bcd60e51b815260206004820152601660248201527510d85b1b195c881b9bdd081dda1a5d195b1a5cdd195960521b604482015290519081900360640190fd5b600c80546001600160a01b0319166001600160a01b0392909216919091179055565b600a5460408051633af32abf60e01b815233600482015290516001600160a01b0390921691633af32abf91602480820192602092909190829003018186803b15801561084b57600080fd5b505afa15801561085f573d6000803e3d6000fd5b505050506040513d602081101561087557600080fd5b50516108c1576040805162461bcd60e51b815260206004820152601660248201527510d85b1b195c881b9bdd081dda1a5d195b1a5cdd195960521b604482015290519081900360640190fd5b6201518081106108d057600080fd5b600655565b60025481565b600a5460408051633af32abf60e01b815233600482015290516001600160a01b0390921691633af32abf91602480820192602092909190829003018186803b15801561092657600080fd5b505afa15801561093a573d6000803e3d6000fd5b505050506040513d602081101561095057600080fd5b505161099c576040805162461bcd60e51b815260206004820152601660248201527510d85b1b195c881b9bdd081dda1a5d195b1a5cdd195960521b604482015290519081900360640190fd5b6109a4610eb4565b156109f6576040805162461bcd60e51b815260206004820152601a60248201527f43757272656e7420726f756e64207374696c6c20616374697665000000000000604482015290519081900360640190fd5b6005546004541115610a43576040805162461bcd60e51b8152602060048201526011602482015270105d58dd1a5bdb881a185cc8195b991959607a1b604482015290519081900360640190fd5b600454610a5781600163ffffffff610f3116565b6004556000818152600960205260409020546001600160a01b0316610ab05760018054600083815260096020908152604080832080546001600160a01b0319166001600160a01b03909516949094179093556007905220555b600081815260096020908152604080832054600790925280832054600b54915162613aad60e71b815260048101868152602482018390526001600160a01b0394851660648301819052608060448401908152608484018a90529096939593949093169263309d568092889287928c928c928b92909160a401858580828437600081840152601f19601f8201169050808301925050509650505050505050602060405180830381600087803b158015610b6757600080fd5b505af1158015610b7b573d6000803e3d6000fd5b505050506040513d6020811015610b9157600080fd5b50519050838114610be9576040805162461bcd60e51b815260206004820152601d60248201527f4572726f72206d696e74696e672074686520545749535420746f6b656e000000604482015290519081900360640190fd5b610bf1610f94565b600084815260086020908152604091829020548251428152918201859052818301526001600160a01b0385166060820152905185917fee56ec262f5ecf24fa2dbfd0cf67c35cb1300e6ef1327dc2f91a4b9e03ef7ab4919081900360800190a2505050505050565b60086020526000908152604090205481565b6005546004541115610cb8576040805162461bcd60e51b8152602060048201526011602482015270105d58dd1a5bdb881a185cc8195b991959607a1b604482015290519081900360640190fd5b600354811015610cf95760405162461bcd60e51b815260040180806020018281038252602e81526020018061134b602e913960400191505060405180910390fd5b600354600454600090815260086020526040902054610d1d9163ffffffff610f3116565b811015610d5b5760405162461bcd60e51b81526004018080602001828103825260248152602001806112f66024913960400191505060405180910390fd5b610d63610eb4565b610d9e5760405162461bcd60e51b81526004018080602001828103825260278152602001806112216027913960400191505060405180910390fd5b50565b6004546000908152600860205260409020548015610d9e5760045460009081526009602052604080822080546001600160a01b0319811690915590516001600160a01b039091169190829084908381818185875af1925050503d8060008114610e26576040519150601f19603f3d011682016040523d82523d6000602084013e610e2b565b606091505b5050905080610e6b5760405162461bcd60e51b81526004018080602001828103825260238152602001806112486023913960400191505060405180910390fd5b816001600160a01b03166004547fa6b0a214724be5be631af1800b1bfdef5dbf1ac9dc351d039e1b082d40c62f20856040518082815260200191505060405180910390a3505050565b600080610ecd600160045461110090919063ffffffff16565b90506000610ee4620151808363ffffffff61115d16565b90506000610efd82600254610f3190919063ffffffff16565b90506000610f1660065483610f3190919063ffffffff16565b9050814210158015610f285750804211155b94505050505090565b600082820183811015610f8b576040805162461bcd60e51b815260206004820152601b60248201527f536166654d6174683a206164646974696f6e206f766572666c6f770000000000604482015290519081900360640190fd5b90505b92915050565b6000610fd2600260086000610fb5600160045461110090919063ffffffff16565b8152602001908152602001600020546111b690919063ffffffff16565b6000805460405192935090916001600160a01b039091169083908381818185875af1925050503d8060008114611024576040519150601f19603f3d011682016040523d82523d6000602084013e611029565b606091505b50509050806110695760405162461bcd60e51b815260040180806020018281038252602d8152602001806112c9602d913960400191505060405180910390fd5b600c546040516000916001600160a01b03169084908381818185875af1925050503d80600081146110b6576040519150601f19603f3d011682016040523d82523d6000602084013e6110bb565b606091505b50509050806110fb5760405162461bcd60e51b815260040180806020018281038252603181526020018061131a6031913960400191505060405180910390fd5b505050565b600082821115611157576040805162461bcd60e51b815260206004820152601e60248201527f536166654d6174683a207375627472616374696f6e206f766572666c6f770000604482015290519081900360640190fd5b50900390565b60008261116c57506000610f8e565b8282028284828161117957fe5b0414610f8b5760405162461bcd60e51b815260040180806020018281038252602181526020018061126b6021913960400191505060405180910390fd5b600080821161120c576040805162461bcd60e51b815260206004820152601a60248201527f536166654d6174683a206469766973696f6e206279207a65726f000000000000604482015290519081900360640190fd5b600082848161121757fe5b0494935050505056fe5468697320726f756e6427732062696464696e672077696e646f77206973206e6f74206f70656e4661696c656420746f20726566756e6420746865206869676865737420626964646572536166654d6174683a206d756c7469706c69636174696f6e206f766572666c6f774e756d626572206f6620726f756e64732063616e277420626520736d616c6c6572207468616e20746865206e756d626572206f662070726576696f75734661696c656420746f207472616e736665722066756e647320746f20746865207072696e74696e672066756e645468652062696420776173206e6f7420686967686572207468616e20746865206c6173744661696c656420746f2073656e642066756e647320746f207468652061756374696f6e2066756e642073706c697474657254686520626964206469646e277420726561636820746865206d696e696d756d20626964207468726573686f6c64a265627a7a72315820277c700e6e53dbf173c82f9e46cb7a25927ff769a0440f3d6fd576256a2a5fed64736f6c634300050c003241756374696f6e2073746172742074696d65206973206e6f7420696e2074686520667574757265",
  "source": "pragma solidity ^0.5.12;\n\nimport \"@openzeppelin/contracts/math/SafeMath.sol\";\n\nimport \"./interfaces/ITwistedSisterAccessControls.sol\";\nimport \"./interfaces/ITwistedSisterTokenCreator.sol\";\nimport \"./TwistedSisterArtistFundSplitter.sol\";\n\ncontract TwistedSisterAuction {\n    using SafeMath for uint256;\n\n    event BidAccepted(\n        uint256 indexed _round,\n        uint256 _timeStamp,\n        uint256 _param,\n        uint256 _amount,\n        address indexed _bidder\n    );\n\n    event BidderRefunded(\n        uint256 indexed _round,\n        uint256 _amount,\n        address indexed _bidder\n    );\n\n    event RoundFinalised(\n        uint256 indexed _round,\n        uint256 _timestamp,\n        uint256 _param,\n        uint256 _highestBid,\n        address _highestBidder\n    );\n\n    address payable printingFund;\n    address payable auctionOwner;\n\n    uint256 public auctionStartTime;\n\n    uint256 public minBid = 0.02 ether;\n    uint256 public currentRound = 1;\n    uint256 public numOfRounds = 21;\n    uint256 public roundLengthInSeconds = 0.5 days;\n    uint256 constant public secondsInADay = 1 days;\n\n    // round <> parameter from highest bidder\n    mapping(uint256 => uint256) public winningRoundParameter;\n\n    // round <> highest bid value\n    mapping(uint256 => uint256) public highestBidFromRound;\n\n    // round <> address of the highest bidder\n    mapping(uint256 => address) public highestBidderFromRound;\n\n    ITwistedSisterAccessControls public accessControls;\n    ITwistedSisterTokenCreator public twistedTokenCreator;\n    TwistedSisterArtistFundSplitter public artistFundSplitter;\n\n    modifier isWhitelisted() {\n        require(accessControls.isWhitelisted(msg.sender), \"Caller not whitelisted\");\n        _;\n    }\n\n    constructor(ITwistedSisterAccessControls _accessControls,\n                ITwistedSisterTokenCreator _twistedTokenCreator,\n                TwistedSisterArtistFundSplitter _artistFundSplitter,\n                address payable _printingFund,\n                address payable _auctionOwner,\n                uint256 _auctionStartTime) public {\n        require(now < _auctionStartTime, \"Auction start time is not in the future\");\n        accessControls = _accessControls;\n        twistedTokenCreator = _twistedTokenCreator;\n        artistFundSplitter = _artistFundSplitter;\n        printingFund = _printingFund;\n        auctionStartTime = _auctionStartTime;\n        auctionOwner = _auctionOwner;\n    }\n\n    function _isWithinBiddingWindowForRound() internal view returns (bool) {\n        uint256 offsetFromStartingRound = currentRound.sub(1);\n        uint256 currentRoundSecondsOffsetSinceFirstRound = secondsInADay.mul(offsetFromStartingRound);\n        uint256 currentRoundStartTime = auctionStartTime.add(currentRoundSecondsOffsetSinceFirstRound);\n        uint256 currentRoundEndTime = currentRoundStartTime.add(roundLengthInSeconds);\n        return now >= currentRoundStartTime && now <= currentRoundEndTime;\n    }\n\n    function _isBidValid(uint256 _bidValue) internal view {\n        require(currentRound <= numOfRounds, \"Auction has ended\");\n        require(_bidValue >= minBid, \"The bid didn't reach the minimum bid threshold\");\n        require(_bidValue >= highestBidFromRound[currentRound].add(minBid), \"The bid was not higher than the last\");\n        require(_isWithinBiddingWindowForRound(), \"This round's bidding window is not open\");\n    }\n\n    function _refundHighestBidder() internal {\n        uint256 highestBidAmount = highestBidFromRound[currentRound];\n        if (highestBidAmount > 0) {\n            address highestBidder = highestBidderFromRound[currentRound];\n\n            // Clear out highest bidder as there is no longer one\n            delete highestBidderFromRound[currentRound];\n\n            (bool success, ) = highestBidder.call.value(highestBidAmount)(\"\");\n            require(success, \"Failed to refund the highest bidder\");\n\n            emit BidderRefunded(currentRound, highestBidAmount, highestBidder);\n        }\n    }\n\n    function _splitFundsFromHighestBid() internal {\n        // Split - 50% -> 3D Printing Fund, 50% -> TwistedArtistFundSplitter\n        uint256 valueToSend = highestBidFromRound[currentRound.sub(1)].div(2);\n\n        (bool pfSuccess, ) = printingFund.call.value(valueToSend)(\"\");\n        require(pfSuccess, \"Failed to transfer funds to the printing fund\");\n\n        (bool fsSuccess, ) = address(artistFundSplitter).call.value(valueToSend)(\"\");\n        require(fsSuccess, \"Failed to send funds to the auction fund splitter\");\n    }\n\n    function bid(uint256 _parameter) external payable {\n        require(_parameter > 0, \"The parameter cannot be zero\");\n        _isBidValid(msg.value);\n        _refundHighestBidder();\n        highestBidFromRound[currentRound] = msg.value;\n        highestBidderFromRound[currentRound] = msg.sender;\n        winningRoundParameter[currentRound] = _parameter;\n        emit BidAccepted(currentRound, now, winningRoundParameter[currentRound], highestBidFromRound[currentRound], highestBidderFromRound[currentRound]);\n    }\n\n    function issueTwistAndPrepNextRound(string calldata _ipfsHash) external isWhitelisted {\n        require(!_isWithinBiddingWindowForRound(), \"Current round still active\");\n        require(currentRound <= numOfRounds, \"Auction has ended\");\n\n        uint256 previousRound = currentRound;\n        currentRound = currentRound.add(1);\n\n        // Handle no-bid scenario\n        if (highestBidderFromRound[previousRound] == address(0)) {\n            highestBidderFromRound[previousRound] = auctionOwner;\n            winningRoundParameter[previousRound] = 1; // 1 is the default and first param (1...64)\n        }\n\n        // Issue the TWIST\n        address winner = highestBidderFromRound[previousRound];\n        uint256 winningRoundParam = winningRoundParameter[previousRound];\n        uint256 tokenId = twistedTokenCreator.createTwisted(previousRound, winningRoundParam, _ipfsHash, winner);\n        require(tokenId == previousRound, \"Error minting the TWIST token\");\n\n        // Take the proceedings from the highest bid and split funds accordingly\n        _splitFundsFromHighestBid();\n\n        emit RoundFinalised(previousRound, now, winningRoundParam, highestBidFromRound[previousRound], winner);\n    }\n\n    function updateAuctionStartTime(uint256 _auctionStartTime) external isWhitelisted {\n        auctionStartTime = _auctionStartTime;\n    }\n\n    function updateNumberOfRounds(uint256 _numOfRounds) external isWhitelisted {\n        require(_numOfRounds >= currentRound, \"Number of rounds can't be smaller than the number of previous\");\n        numOfRounds = _numOfRounds;\n    }\n\n    function updateRoundLength(uint256 _roundLengthInSeconds) external isWhitelisted {\n        require(_roundLengthInSeconds < secondsInADay);\n        roundLengthInSeconds = _roundLengthInSeconds;\n    }\n\n    function updateArtistFundSplitter(TwistedSisterArtistFundSplitter _artistFundSplitter) external isWhitelisted {\n        artistFundSplitter = _artistFundSplitter;\n    }\n}\n",
  "sourcePath": "/Users/Natalie/Projects/ts-contracts/contracts/TwistedSisterAuction.sol",
  "compiler": {
    "name": "solc",
    "version": "0.5.12+commit.7709ece9.Emscripten.clang"
  },
  "schemaVersion": "3.0.16",
  "updatedAt": "2019-10-31T16:38:38.861Z",
  "devdoc": {
    "methods": {}
  },
  "userdoc": {
    "methods": {}
  }
}