{
  "contractName": "TwistedAuctionMock",
  "abi": [
    {
      "constant": true,
      "inputs": [
        {
          "name": "",
          "type": "uint256"
        }
      ],
      "name": "highestBidderFromRound",
      "outputs": [
        {
          "name": "",
          "type": "address"
        }
      ],
      "payable": false,
      "stateMutability": "view",
      "type": "function"
    },
    {
      "constant": false,
      "inputs": [
        {
          "name": "_numOfRounds",
          "type": "uint256"
        }
      ],
      "name": "updateNumberOfRounds",
      "outputs": [],
      "payable": false,
      "stateMutability": "nonpayable",
      "type": "function"
    },
    {
      "constant": true,
      "inputs": [],
      "name": "minBid",
      "outputs": [
        {
          "name": "",
          "type": "uint256"
        }
      ],
      "payable": false,
      "stateMutability": "view",
      "type": "function"
    },
    {
      "constant": false,
      "inputs": [
        {
          "name": "_parameter",
          "type": "uint256"
        }
      ],
      "name": "bid",
      "outputs": [],
      "payable": true,
      "stateMutability": "payable",
      "type": "function"
    },
    {
      "constant": true,
      "inputs": [],
      "name": "auctionFundSplitter",
      "outputs": [
        {
          "name": "",
          "type": "address"
        }
      ],
      "payable": false,
      "stateMutability": "view",
      "type": "function"
    },
    {
      "constant": true,
      "inputs": [],
      "name": "secondsInADay",
      "outputs": [
        {
          "name": "",
          "type": "uint256"
        }
      ],
      "payable": false,
      "stateMutability": "view",
      "type": "function"
    },
    {
      "constant": true,
      "inputs": [],
      "name": "roundLengthInSeconds",
      "outputs": [
        {
          "name": "",
          "type": "uint256"
        }
      ],
      "payable": false,
      "stateMutability": "view",
      "type": "function"
    },
    {
      "constant": true,
      "inputs": [],
      "name": "accessControls",
      "outputs": [
        {
          "name": "",
          "type": "address"
        }
      ],
      "payable": false,
      "stateMutability": "view",
      "type": "function"
    },
    {
      "constant": true,
      "inputs": [],
      "name": "numOfRounds",
      "outputs": [
        {
          "name": "",
          "type": "uint256"
        }
      ],
      "payable": false,
      "stateMutability": "view",
      "type": "function"
    },
    {
      "constant": true,
      "inputs": [
        {
          "name": "",
          "type": "uint256"
        }
      ],
      "name": "winningRoundParameter",
      "outputs": [
        {
          "name": "",
          "type": "uint256"
        }
      ],
      "payable": false,
      "stateMutability": "view",
      "type": "function"
    },
    {
      "constant": true,
      "inputs": [],
      "name": "currentRound",
      "outputs": [
        {
          "name": "",
          "type": "uint256"
        }
      ],
      "payable": false,
      "stateMutability": "view",
      "type": "function"
    },
    {
      "constant": true,
      "inputs": [],
      "name": "twistedTokenCreator",
      "outputs": [
        {
          "name": "",
          "type": "address"
        }
      ],
      "payable": false,
      "stateMutability": "view",
      "type": "function"
    },
    {
      "constant": false,
      "inputs": [
        {
          "name": "_roundLengthInSeconds",
          "type": "uint256"
        }
      ],
      "name": "updateRoundLength",
      "outputs": [],
      "payable": false,
      "stateMutability": "nonpayable",
      "type": "function"
    },
    {
      "constant": true,
      "inputs": [],
      "name": "auctionStartTime",
      "outputs": [
        {
          "name": "",
          "type": "uint256"
        }
      ],
      "payable": false,
      "stateMutability": "view",
      "type": "function"
    },
    {
      "constant": false,
      "inputs": [
        {
          "name": "_ipfsHash",
          "type": "string"
        }
      ],
      "name": "issueTwistAndPrepNextRound",
      "outputs": [],
      "payable": false,
      "stateMutability": "nonpayable",
      "type": "function"
    },
    {
      "constant": true,
      "inputs": [
        {
          "name": "",
          "type": "uint256"
        }
      ],
      "name": "highestBidFromRound",
      "outputs": [
        {
          "name": "",
          "type": "uint256"
        }
      ],
      "payable": false,
      "stateMutability": "view",
      "type": "function"
    },
    {
      "inputs": [
        {
          "name": "_accessControls",
          "type": "address"
        },
        {
          "name": "_twistedTokenCreator",
          "type": "address"
        },
        {
          "name": "_auctionFundSplitter",
          "type": "address"
        },
        {
          "name": "_printingFund",
          "type": "address"
        },
        {
          "name": "_auctionStartTime",
          "type": "uint256"
        }
      ],
      "payable": false,
      "stateMutability": "nonpayable",
      "type": "constructor"
    },
    {
      "anonymous": false,
      "inputs": [
        {
          "indexed": true,
          "name": "_round",
          "type": "uint256"
        },
        {
          "indexed": false,
          "name": "_timeStamp",
          "type": "uint256"
        },
        {
          "indexed": false,
          "name": "_param",
          "type": "uint256"
        },
        {
          "indexed": false,
          "name": "_amount",
          "type": "uint256"
        },
        {
          "indexed": true,
          "name": "_bidder",
          "type": "address"
        }
      ],
      "name": "BidAccepted",
      "type": "event"
    },
    {
      "anonymous": false,
      "inputs": [
        {
          "indexed": true,
          "name": "_round",
          "type": "uint256"
        },
        {
          "indexed": false,
          "name": "_amount",
          "type": "uint256"
        },
        {
          "indexed": true,
          "name": "_bidder",
          "type": "address"
        }
      ],
      "name": "BidderRefunded",
      "type": "event"
    },
    {
      "anonymous": false,
      "inputs": [
        {
          "indexed": true,
          "name": "_round",
          "type": "uint256"
        },
        {
          "indexed": false,
          "name": "_timestamp",
          "type": "uint256"
        },
        {
          "indexed": false,
          "name": "_param",
          "type": "uint256"
        },
        {
          "indexed": false,
          "name": "_highestBid",
          "type": "uint256"
        },
        {
          "indexed": false,
          "name": "_highestBidder",
          "type": "address"
        }
      ],
      "name": "RoundFinalised",
      "type": "event"
    },
    {
      "constant": false,
      "inputs": [
        {
          "name": "_auctionStartTime",
          "type": "uint256"
        }
      ],
      "name": "updateAuctionStartTime",
      "outputs": [],
      "payable": false,
      "stateMutability": "nonpayable",
      "type": "function"
    },
    {
      "constant": false,
      "inputs": [
        {
          "name": "_currentRound",
          "type": "uint256"
        }
      ],
      "name": "updateCurrentRound",
      "outputs": [],
      "payable": false,
      "stateMutability": "nonpayable",
      "type": "function"
    }
  ],
  "bytecode": "0x608060405266470de4df8200006003556001600455601560055561a8c060065534801561002b57600080fd5b5060405160a080611546833981018060405260a081101561004b57600080fd5b50805160208201516040830151606084015160809094015192939192909190848484848442811161010357604080517f08c379a000000000000000000000000000000000000000000000000000000000815260206004820152602760248201527f41756374696f6e2073746172742074696d65206973206e6f7420696e2074686560448201527f2066757475726500000000000000000000000000000000000000000000000000606482015290519081900360840190fd5b600a8054600160a060020a0319908116600160a060020a0397881617909155600b8054821695871695909517909455600c805485169386169390931790925560008054841691909416178355600255600180543392169190911790556113d195508594506101759350915050396000f3fe6080604052600436106100fb5763ffffffff7c01000000000000000000000000000000000000000000000000000000006000350416630c1dbe63811461010057806320479533146101465780633e109a1914610172578063454a2ab314610199578063484aba99146101b6578063500aba54146101e05780636a019389146101f55780636b26f0f91461020a578063748365ef1461021f5780637895884a146102345780637ac96a62146102495780638a19c8bc146102735780638bb4a2951461028857806393a744a7146102b2578063d9b9e787146102c7578063eb54f9ec146102f1578063f2fd2ea514610306578063fffed38014610383575b600080fd5b34801561010c57600080fd5b5061012a6004803603602081101561012357600080fd5b50356103ad565b60408051600160a060020a039092168252519081900360200190f35b34801561015257600080fd5b506101706004803603602081101561016957600080fd5b50356103c8565b005b34801561017e57600080fd5b5061018761050b565b60408051918252519081900360200190f35b610170600480360360208110156101af57600080fd5b5035610511565b3480156101c257600080fd5b50610170600480360360208110156101d957600080fd5b50356105dc565b3480156101ec57600080fd5b5061012a61069f565b34801561020157600080fd5b506101876106ae565b34801561021657600080fd5b506101876106b5565b34801561022b57600080fd5b5061012a6106bb565b34801561024057600080fd5b506101876106ca565b34801561025557600080fd5b506101876004803603602081101561026c57600080fd5b50356106d0565b34801561027f57600080fd5b506101876106e2565b34801561029457600080fd5b50610170600480360360208110156102ab57600080fd5b50356106e8565b3480156102be57600080fd5b5061012a6107ab565b3480156102d357600080fd5b50610170600480360360208110156102ea57600080fd5b50356107ba565b3480156102fd57600080fd5b5061018761088c565b34801561031257600080fd5b506101706004803603602081101561032957600080fd5b81019060208101813564010000000081111561034457600080fd5b82018360208201111561035657600080fd5b8035906020019184600183028401116401000000008311171561037857600080fd5b509092509050610892565b34801561038f57600080fd5b50610187600480360360208110156103a657600080fd5b5035610be4565b600960205260009081526040902054600160a060020a031681565b600a546040805160e060020a633af32abf0281523360048201529051600160a060020a0390921691633af32abf91602480820192602092909190829003018186803b15801561041657600080fd5b505afa15801561042a573d6000803e3d6000fd5b505050506040513d602081101561044057600080fd5b50511515610486576040805160e560020a62461bcd0281526020600482015260166024820152600080516020611386833981519152604482015290519081900360640190fd5b600454811015610506576040805160e560020a62461bcd02815260206004820152603d60248201527f4e756d626572206f6620726f756e64732063616e277420626520736d616c6c6560448201527f72207468616e20746865206e756d626572206f662070726576696f7573000000606482015290519081900360840190fd5b600555565b60035481565b61051a34610bf6565b610522610de6565b600480546000908152600860208181526040808420349055845484526009808352818520805473ffffffffffffffffffffffffffffffffffffffff191633179055855485526007808452828620889055955480865290835281852054958352818520549383529381902054815142815292830193909352818101929092529051600160a060020a0393909316927f2951c447583280c9dae4144efd5412f37c967a855edd3466e1e1fcf6721768269181900360600190a350565b600a546040805160e060020a633af32abf0281523360048201529051600160a060020a0390921691633af32abf91602480820192602092909190829003018186803b15801561062a57600080fd5b505afa15801561063e573d6000803e3d6000fd5b505050506040513d602081101561065457600080fd5b5051151561069a576040805160e560020a62461bcd0281526020600482015260166024820152600080516020611386833981519152604482015290519081900360640190fd5b600255565b600c54600160a060020a031681565b6201518081565b60065481565b600a54600160a060020a031681565b60055481565b60076020526000908152604090205481565b60045481565b600a546040805160e060020a633af32abf0281523360048201529051600160a060020a0390921691633af32abf91602480820192602092909190829003018186803b15801561073657600080fd5b505afa15801561074a573d6000803e3d6000fd5b505050506040513d602081101561076057600080fd5b505115156107a6576040805160e560020a62461bcd0281526020600482015260166024820152600080516020611386833981519152604482015290519081900360640190fd5b600455565b600b54600160a060020a031681565b600a546040805160e060020a633af32abf0281523360048201529051600160a060020a0390921691633af32abf91602480820192602092909190829003018186803b15801561080857600080fd5b505afa15801561081c573d6000803e3d6000fd5b505050506040513d602081101561083257600080fd5b50511515610878576040805160e560020a62461bcd0281526020600482015260166024820152600080516020611386833981519152604482015290519081900360640190fd5b62015180811061088757600080fd5b600655565b60025481565b600a546040805160e060020a633af32abf0281523360048201529051600160a060020a0390921691633af32abf91602480820192602092909190829003018186803b1580156108e057600080fd5b505afa1580156108f4573d6000803e3d6000fd5b505050506040513d602081101561090a57600080fd5b50511515610950576040805160e560020a62461bcd0281526020600482015260166024820152600080516020611386833981519152604482015290519081900360640190fd5b610958610f49565b156109ad576040805160e560020a62461bcd02815260206004820152601a60248201527f43757272656e7420726f756e64207374696c6c20616374697665000000000000604482015290519081900360640190fd5b6004546109c181600163ffffffff610fc616565b600455600081815260096020526040902054600160a060020a03161515610a1e576001546000828152600960205260409020805473ffffffffffffffffffffffffffffffffffffffff1916600160a060020a039092169190911790555b600081815260096020908152604080832054600790925280832054600b5491517f309d56800000000000000000000000000000000000000000000000000000000081526004810186815260248201839052600160a060020a0394851660648301819052608060448401908152608484018a90529096939593949093169263309d568092889287928c928c928b92909160a401858580828437600081840152601f19601f8201169050808301925050509650505050505050602060405180830381600087803b158015610aef57600080fd5b505af1158015610b03573d6000803e3d6000fd5b505050506040513d6020811015610b1957600080fd5b50519050838114610b74576040805160e560020a62461bcd02815260206004820152601d60248201527f4572726f72206d696e74696e672074686520545749535420746f6b656e000000604482015290519081900360640190fd5b610b7c61102c565b60008481526008602090815260409182902054825142815291820185905281830152600160a060020a0385166060820152905185917fee56ec262f5ecf24fa2dbfd0cf67c35cb1300e6ef1327dc2f91a4b9e03ef7ab4919081900360800190a2505050505050565b60086020526000908152604090205481565b6005546004541115610c52576040805160e560020a62461bcd02815260206004820152601160248201527f41756374696f6e2068617320656e646564000000000000000000000000000000604482015290519081900360640190fd5b600354811015610cd2576040805160e560020a62461bcd02815260206004820152602e60248201527f54686520626964206469646e277420726561636820746865206d696e696d756d60448201527f20626964207468726573686f6c64000000000000000000000000000000000000606482015290519081900360840190fd5b6004546000908152600860205260409020548111610d5f576040805160e560020a62461bcd028152602060048201526024808201527f5468652062696420776173206e6f7420686967686572207468616e207468652060448201527f6c61737400000000000000000000000000000000000000000000000000000000606482015290519081900360840190fd5b610d67610f49565b1515610de3576040805160e560020a62461bcd02815260206004820152602760248201527f5468697320726f756e6427732062696464696e672077696e646f77206973206e60448201527f6f74206f70656e00000000000000000000000000000000000000000000000000606482015290519081900360840190fd5b50565b60045460009081526008602052604081205490811115610de357600454600090815260096020526040808220805473ffffffffffffffffffffffffffffffffffffffff1981169091559051600160a060020a039091169190829084908381818185875af1925050503d8060008114610e7a576040519150601f19603f3d011682016040523d82523d6000602084013e610e7f565b606091505b50509050801515610f00576040805160e560020a62461bcd02815260206004820152602360248201527f4661696c656420746f20726566756e642074686520686967686573742062696460448201527f6465720000000000000000000000000000000000000000000000000000000000606482015290519081900360840190fd5b81600160a060020a03166004547fa6b0a214724be5be631af1800b1bfdef5dbf1ac9dc351d039e1b082d40c62f20856040518082815260200191505060405180910390a3505050565b600080610f62600160045461121a90919063ffffffff16565b90506000610f79620151808363ffffffff61127a16565b90506000610f9282600254610fc690919063ffffffff16565b90506000610fab60065483610fc690919063ffffffff16565b9050814210158015610fbd5750804211155b94505050505090565b600082820183811015611023576040805160e560020a62461bcd02815260206004820152601b60248201527f536166654d6174683a206164646974696f6e206f766572666c6f770000000000604482015290519081900360640190fd5b90505b92915050565b600061106a60026008600061104d600160045461121a90919063ffffffff16565b81526020019081526020016000205461131690919063ffffffff16565b600080546040519293509091600160a060020a039091169083908381818185875af1925050503d80600081146110bc576040519150601f19603f3d011682016040523d82523d6000602084013e6110c1565b606091505b50509050801515611142576040805160e560020a62461bcd02815260206004820152602d60248201527f4661696c656420746f207472616e736665722066756e647320746f207468652060448201527f7072696e74696e672066756e6400000000000000000000000000000000000000606482015290519081900360840190fd5b600c54604051600091600160a060020a03169084908381818185875af1925050503d806000811461118f576040519150601f19603f3d011682016040523d82523d6000602084013e611194565b606091505b50509050801515611215576040805160e560020a62461bcd02815260206004820152603160248201527f4661696c656420746f2073656e642066756e647320746f20746865206175637460448201527f696f6e2066756e642073706c6974746572000000000000000000000000000000606482015290519081900360840190fd5b505050565b600082821115611274576040805160e560020a62461bcd02815260206004820152601e60248201527f536166654d6174683a207375627472616374696f6e206f766572666c6f770000604482015290519081900360640190fd5b50900390565b600082151561128b57506000611026565b82820282848281151561129a57fe5b0414611023576040805160e560020a62461bcd02815260206004820152602160248201527f536166654d6174683a206d756c7469706c69636174696f6e206f766572666c6f60448201527f7700000000000000000000000000000000000000000000000000000000000000606482015290519081900360840190fd5b600080821161136f576040805160e560020a62461bcd02815260206004820152601a60248201527f536166654d6174683a206469766973696f6e206279207a65726f000000000000604482015290519081900360640190fd5b6000828481151561137c57fe5b0494935050505056fe43616c6c6572206e6f742077686974656c697374656400000000000000000000a165627a7a723058209552a0c7ee8d54002bd7bb54babdcc44aa0c8d114804d7af264154bd611a36550029",
  "source": "pragma solidity ^0.5.0;\n\nimport \"../TwistedAuction.sol\";\n\ncontract TwistedAuctionMock is TwistedAuction {\n    constructor(\n        ITwistedAccessControls _accessControls,\n        ITwistedTokenCreator _twistedTokenCreator,\n        TwistedAuctionFundSplitter _auctionFundSplitter,\n        address payable _printingFund,\n        uint256 _auctionStartTime\n    ) public TwistedAuction(_accessControls, _twistedTokenCreator, _auctionFundSplitter, _printingFund, _auctionStartTime) {}\n\n    function updateAuctionStartTime(uint256 _auctionStartTime) external isWhitelisted {\n        auctionStartTime = _auctionStartTime;\n    }\n\n    function updateCurrentRound(uint256 _currentRound) external isWhitelisted {\n        currentRound = _currentRound;\n    }\n}",
  "sourcePath": "/Users/andy/workspace/ts-contracts/contracts/mock/TwistedAuctionMock.sol",
  "compiler": {
    "name": "solc",
    "version": "0.5.0+commit.1d4f565a.Emscripten.clang"
  },
  "schemaVersion": "3.0.16",
  "updatedAt": "2019-10-10T10:29:59.985Z",
  "devdoc": {
    "methods": {}
  },
  "userdoc": {
    "methods": {}
  }
}