{
  "contractName": "TwistedSisterAuction",
  "abi": [
    {
      "constant": true,
      "inputs": [
        {
          "name": "",
          "type": "uint256"
        }
      ],
      "name": "highestBidderFromRound",
      "outputs": [
        {
          "name": "",
          "type": "address"
        }
      ],
      "payable": false,
      "stateMutability": "view",
      "type": "function"
    },
    {
      "constant": true,
      "inputs": [],
      "name": "minBid",
      "outputs": [
        {
          "name": "",
          "type": "uint256"
        }
      ],
      "payable": false,
      "stateMutability": "view",
      "type": "function"
    },
    {
      "constant": true,
      "inputs": [],
      "name": "auctionFundSplitter",
      "outputs": [
        {
          "name": "",
          "type": "address"
        }
      ],
      "payable": false,
      "stateMutability": "view",
      "type": "function"
    },
    {
      "constant": true,
      "inputs": [],
      "name": "secondsInADay",
      "outputs": [
        {
          "name": "",
          "type": "uint256"
        }
      ],
      "payable": false,
      "stateMutability": "view",
      "type": "function"
    },
    {
      "constant": true,
      "inputs": [],
      "name": "roundLengthInSeconds",
      "outputs": [
        {
          "name": "",
          "type": "uint256"
        }
      ],
      "payable": false,
      "stateMutability": "view",
      "type": "function"
    },
    {
      "constant": true,
      "inputs": [],
      "name": "accessControls",
      "outputs": [
        {
          "name": "",
          "type": "address"
        }
      ],
      "payable": false,
      "stateMutability": "view",
      "type": "function"
    },
    {
      "constant": true,
      "inputs": [],
      "name": "numOfRounds",
      "outputs": [
        {
          "name": "",
          "type": "uint256"
        }
      ],
      "payable": false,
      "stateMutability": "view",
      "type": "function"
    },
    {
      "constant": true,
      "inputs": [
        {
          "name": "",
          "type": "uint256"
        }
      ],
      "name": "winningRoundParameter",
      "outputs": [
        {
          "name": "",
          "type": "uint256"
        }
      ],
      "payable": false,
      "stateMutability": "view",
      "type": "function"
    },
    {
      "constant": true,
      "inputs": [],
      "name": "currentRound",
      "outputs": [
        {
          "name": "",
          "type": "uint256"
        }
      ],
      "payable": false,
      "stateMutability": "view",
      "type": "function"
    },
    {
      "constant": true,
      "inputs": [],
      "name": "twistedTokenCreator",
      "outputs": [
        {
          "name": "",
          "type": "address"
        }
      ],
      "payable": false,
      "stateMutability": "view",
      "type": "function"
    },
    {
      "constant": true,
      "inputs": [],
      "name": "auctionStartTime",
      "outputs": [
        {
          "name": "",
          "type": "uint256"
        }
      ],
      "payable": false,
      "stateMutability": "view",
      "type": "function"
    },
    {
      "constant": true,
      "inputs": [
        {
          "name": "",
          "type": "uint256"
        }
      ],
      "name": "highestBidFromRound",
      "outputs": [
        {
          "name": "",
          "type": "uint256"
        }
      ],
      "payable": false,
      "stateMutability": "view",
      "type": "function"
    },
    {
      "inputs": [
        {
          "name": "_accessControls",
          "type": "address"
        },
        {
          "name": "_twistedTokenCreator",
          "type": "address"
        },
        {
          "name": "_auctionFundSplitter",
          "type": "address"
        },
        {
          "name": "_printingFund",
          "type": "address"
        },
        {
          "name": "_auctionOwner",
          "type": "address"
        },
        {
          "name": "_auctionStartTime",
          "type": "uint256"
        }
      ],
      "payable": false,
      "stateMutability": "nonpayable",
      "type": "constructor"
    },
    {
      "anonymous": false,
      "inputs": [
        {
          "indexed": true,
          "name": "_round",
          "type": "uint256"
        },
        {
          "indexed": false,
          "name": "_timeStamp",
          "type": "uint256"
        },
        {
          "indexed": false,
          "name": "_param",
          "type": "uint256"
        },
        {
          "indexed": false,
          "name": "_amount",
          "type": "uint256"
        },
        {
          "indexed": true,
          "name": "_bidder",
          "type": "address"
        }
      ],
      "name": "BidAccepted",
      "type": "event"
    },
    {
      "anonymous": false,
      "inputs": [
        {
          "indexed": true,
          "name": "_round",
          "type": "uint256"
        },
        {
          "indexed": false,
          "name": "_amount",
          "type": "uint256"
        },
        {
          "indexed": true,
          "name": "_bidder",
          "type": "address"
        }
      ],
      "name": "BidderRefunded",
      "type": "event"
    },
    {
      "anonymous": false,
      "inputs": [
        {
          "indexed": true,
          "name": "_round",
          "type": "uint256"
        },
        {
          "indexed": false,
          "name": "_timestamp",
          "type": "uint256"
        },
        {
          "indexed": false,
          "name": "_param",
          "type": "uint256"
        },
        {
          "indexed": false,
          "name": "_highestBid",
          "type": "uint256"
        },
        {
          "indexed": false,
          "name": "_highestBidder",
          "type": "address"
        }
      ],
      "name": "RoundFinalised",
      "type": "event"
    },
    {
      "constant": false,
      "inputs": [
        {
          "name": "_parameter",
          "type": "uint256"
        }
      ],
      "name": "bid",
      "outputs": [],
      "payable": true,
      "stateMutability": "payable",
      "type": "function"
    },
    {
      "constant": false,
      "inputs": [
        {
          "name": "_ipfsHash",
          "type": "string"
        }
      ],
      "name": "issueTwistAndPrepNextRound",
      "outputs": [],
      "payable": false,
      "stateMutability": "nonpayable",
      "type": "function"
    },
    {
      "constant": false,
      "inputs": [
        {
          "name": "_auctionStartTime",
          "type": "uint256"
        }
      ],
      "name": "updateAuctionStartTime",
      "outputs": [],
      "payable": false,
      "stateMutability": "nonpayable",
      "type": "function"
    },
    {
      "constant": false,
      "inputs": [
        {
          "name": "_numOfRounds",
          "type": "uint256"
        }
      ],
      "name": "updateNumberOfRounds",
      "outputs": [],
      "payable": false,
      "stateMutability": "nonpayable",
      "type": "function"
    },
    {
      "constant": false,
      "inputs": [
        {
          "name": "_roundLengthInSeconds",
          "type": "uint256"
        }
      ],
      "name": "updateRoundLength",
      "outputs": [],
      "payable": false,
      "stateMutability": "nonpayable",
      "type": "function"
    }
  ],
  "bytecode": "0x608060405266470de4df8200006003556001600455601560055561a8c060065534801561002b57600080fd5b5060405160c0806114c5833981018060405260c081101561004b57600080fd5b508051602082015160408301516060840151608085015160a090950151939492939192909142811161010457604080517f08c379a000000000000000000000000000000000000000000000000000000000815260206004820152602760248201527f41756374696f6e2073746172742074696d65206973206e6f7420696e2074686560448201527f2066757475726500000000000000000000000000000000000000000000000000606482015290519081900360840190fd5b600a8054600160a060020a0319908116600160a060020a0398891617909155600b8054821696881696909617909555600c8054861694871694909417909355600080548516928616929092178255600292909255600180549093169190931617905561134f90819061017690396000f3fe6080604052600436106100f05763ffffffff7c01000000000000000000000000000000000000000000000000000000006000350416630c1dbe6381146100f5578063204795331461013b5780633e109a1914610167578063454a2ab31461018e578063484aba99146101ab578063500aba54146101d55780636a019389146101ea5780636b26f0f9146101ff578063748365ef146102145780637895884a146102295780637ac96a621461023e5780638a19c8bc1461026857806393a744a71461027d578063d9b9e78714610292578063eb54f9ec146102bc578063f2fd2ea5146102d1578063fffed3801461034e575b600080fd5b34801561010157600080fd5b5061011f6004803603602081101561011857600080fd5b5035610378565b60408051600160a060020a039092168252519081900360200190f35b34801561014757600080fd5b506101656004803603602081101561015e57600080fd5b5035610393565b005b34801561017357600080fd5b5061017c6104d6565b60408051918252519081900360200190f35b610165600480360360208110156101a457600080fd5b50356104dc565b3480156101b757600080fd5b50610165600480360360208110156101ce57600080fd5b50356105ff565b3480156101e157600080fd5b5061011f6106c2565b3480156101f657600080fd5b5061017c6106d1565b34801561020b57600080fd5b5061017c6106d8565b34801561022057600080fd5b5061011f6106de565b34801561023557600080fd5b5061017c6106ed565b34801561024a57600080fd5b5061017c6004803603602081101561026157600080fd5b50356106f3565b34801561027457600080fd5b5061017c610705565b34801561028957600080fd5b5061011f61070b565b34801561029e57600080fd5b50610165600480360360208110156102b557600080fd5b503561071a565b3480156102c857600080fd5b5061017c6107ec565b3480156102dd57600080fd5b50610165600480360360208110156102f457600080fd5b81019060208101813564010000000081111561030f57600080fd5b82018360208201111561032157600080fd5b8035906020019184600183028401116401000000008311171561034357600080fd5b5090925090506107f2565b34801561035a57600080fd5b5061017c6004803603602081101561037157600080fd5b5035610b4f565b600960205260009081526040902054600160a060020a031681565b600a546040805160e060020a633af32abf0281523360048201529051600160a060020a0390921691633af32abf91602480820192602092909190829003018186803b1580156103e157600080fd5b505afa1580156103f5573d6000803e3d6000fd5b505050506040513d602081101561040b57600080fd5b50511515610451576040805160e560020a62461bcd0281526020600482015260166024820152600080516020611304833981519152604482015290519081900360640190fd5b6004548110156104d1576040805160e560020a62461bcd02815260206004820152603d60248201527f4e756d626572206f6620726f756e64732063616e277420626520736d616c6c6560448201527f72207468616e20746865206e756d626572206f662070726576696f7573000000606482015290519081900360840190fd5b600555565b60035481565b60008111610534576040805160e560020a62461bcd02815260206004820152601c60248201527f54686520706172616d657465722063616e6e6f74206265207a65726f00000000604482015290519081900360640190fd5b61053d34610b61565b610545610d64565b600480546000908152600860208181526040808420349055845484526009808352818520805473ffffffffffffffffffffffffffffffffffffffff191633179055855485526007808452828620889055955480865290835281852054958352818520549383529381902054815142815292830193909352818101929092529051600160a060020a0393909316927f2951c447583280c9dae4144efd5412f37c967a855edd3466e1e1fcf6721768269181900360600190a350565b600a546040805160e060020a633af32abf0281523360048201529051600160a060020a0390921691633af32abf91602480820192602092909190829003018186803b15801561064d57600080fd5b505afa158015610661573d6000803e3d6000fd5b505050506040513d602081101561067757600080fd5b505115156106bd576040805160e560020a62461bcd0281526020600482015260166024820152600080516020611304833981519152604482015290519081900360640190fd5b600255565b600c54600160a060020a031681565b6201518081565b60065481565b600a54600160a060020a031681565b60055481565b60076020526000908152604090205481565b60045481565b600b54600160a060020a031681565b600a546040805160e060020a633af32abf0281523360048201529051600160a060020a0390921691633af32abf91602480820192602092909190829003018186803b15801561076857600080fd5b505afa15801561077c573d6000803e3d6000fd5b505050506040513d602081101561079257600080fd5b505115156107d8576040805160e560020a62461bcd0281526020600482015260166024820152600080516020611304833981519152604482015290519081900360640190fd5b6201518081106107e757600080fd5b600655565b60025481565b600a546040805160e060020a633af32abf0281523360048201529051600160a060020a0390921691633af32abf91602480820192602092909190829003018186803b15801561084057600080fd5b505afa158015610854573d6000803e3d6000fd5b505050506040513d602081101561086a57600080fd5b505115156108b0576040805160e560020a62461bcd0281526020600482015260166024820152600080516020611304833981519152604482015290519081900360640190fd5b6108b8610ec7565b1561090d576040805160e560020a62461bcd02815260206004820152601a60248201527f43757272656e7420726f756e64207374696c6c20616374697665000000000000604482015290519081900360640190fd5b60045461092181600163ffffffff610f4416565b600455600081815260096020526040902054600160a060020a0316151561098957600180546000838152600960209081526040808320805473ffffffffffffffffffffffffffffffffffffffff1916600160a060020a03909516949094179093556007905220555b600081815260096020908152604080832054600790925280832054600b5491517f309d56800000000000000000000000000000000000000000000000000000000081526004810186815260248201839052600160a060020a0394851660648301819052608060448401908152608484018a90529096939593949093169263309d568092889287928c928c928b92909160a401858580828437600081840152601f19601f8201169050808301925050509650505050505050602060405180830381600087803b158015610a5a57600080fd5b505af1158015610a6e573d6000803e3d6000fd5b505050506040513d6020811015610a8457600080fd5b50519050838114610adf576040805160e560020a62461bcd02815260206004820152601d60248201527f4572726f72206d696e74696e672074686520545749535420746f6b656e000000604482015290519081900360640190fd5b610ae7610faa565b60008481526008602090815260409182902054825142815291820185905281830152600160a060020a0385166060820152905185917fee56ec262f5ecf24fa2dbfd0cf67c35cb1300e6ef1327dc2f91a4b9e03ef7ab4919081900360800190a2505050505050565b60086020526000908152604090205481565b6005546004541115610bbd576040805160e560020a62461bcd02815260206004820152601160248201527f41756374696f6e2068617320656e646564000000000000000000000000000000604482015290519081900360640190fd5b600354811015610c3d576040805160e560020a62461bcd02815260206004820152602e60248201527f54686520626964206469646e277420726561636820746865206d696e696d756d60448201527f20626964207468726573686f6c64000000000000000000000000000000000000606482015290519081900360840190fd5b600354600454600090815260086020526040902054610c619163ffffffff610f4416565b811015610cdd576040805160e560020a62461bcd028152602060048201526024808201527f5468652062696420776173206e6f7420686967686572207468616e207468652060448201527f6c61737400000000000000000000000000000000000000000000000000000000606482015290519081900360840190fd5b610ce5610ec7565b1515610d61576040805160e560020a62461bcd02815260206004820152602760248201527f5468697320726f756e6427732062696464696e672077696e646f77206973206e60448201527f6f74206f70656e00000000000000000000000000000000000000000000000000606482015290519081900360840190fd5b50565b60045460009081526008602052604081205490811115610d6157600454600090815260096020526040808220805473ffffffffffffffffffffffffffffffffffffffff1981169091559051600160a060020a039091169190829084908381818185875af1925050503d8060008114610df8576040519150601f19603f3d011682016040523d82523d6000602084013e610dfd565b606091505b50509050801515610e7e576040805160e560020a62461bcd02815260206004820152602360248201527f4661696c656420746f20726566756e642074686520686967686573742062696460448201527f6465720000000000000000000000000000000000000000000000000000000000606482015290519081900360840190fd5b81600160a060020a03166004547fa6b0a214724be5be631af1800b1bfdef5dbf1ac9dc351d039e1b082d40c62f20856040518082815260200191505060405180910390a3505050565b600080610ee0600160045461119890919063ffffffff16565b90506000610ef7620151808363ffffffff6111f816565b90506000610f1082600254610f4490919063ffffffff16565b90506000610f2960065483610f4490919063ffffffff16565b9050814210158015610f3b5750804211155b94505050505090565b600082820183811015610fa1576040805160e560020a62461bcd02815260206004820152601b60248201527f536166654d6174683a206164646974696f6e206f766572666c6f770000000000604482015290519081900360640190fd5b90505b92915050565b6000610fe8600260086000610fcb600160045461119890919063ffffffff16565b81526020019081526020016000205461129490919063ffffffff16565b600080546040519293509091600160a060020a039091169083908381818185875af1925050503d806000811461103a576040519150601f19603f3d011682016040523d82523d6000602084013e61103f565b606091505b505090508015156110c0576040805160e560020a62461bcd02815260206004820152602d60248201527f4661696c656420746f207472616e736665722066756e647320746f207468652060448201527f7072696e74696e672066756e6400000000000000000000000000000000000000606482015290519081900360840190fd5b600c54604051600091600160a060020a03169084908381818185875af1925050503d806000811461110d576040519150601f19603f3d011682016040523d82523d6000602084013e611112565b606091505b50509050801515611193576040805160e560020a62461bcd02815260206004820152603160248201527f4661696c656420746f2073656e642066756e647320746f20746865206175637460448201527f696f6e2066756e642073706c6974746572000000000000000000000000000000606482015290519081900360840190fd5b505050565b6000828211156111f2576040805160e560020a62461bcd02815260206004820152601e60248201527f536166654d6174683a207375627472616374696f6e206f766572666c6f770000604482015290519081900360640190fd5b50900390565b600082151561120957506000610fa4565b82820282848281151561121857fe5b0414610fa1576040805160e560020a62461bcd02815260206004820152602160248201527f536166654d6174683a206d756c7469706c69636174696f6e206f766572666c6f60448201527f7700000000000000000000000000000000000000000000000000000000000000606482015290519081900360840190fd5b60008082116112ed576040805160e560020a62461bcd02815260206004820152601a60248201527f536166654d6174683a206469766973696f6e206279207a65726f000000000000604482015290519081900360640190fd5b600082848115156112fa57fe5b0494935050505056fe43616c6c6572206e6f742077686974656c697374656400000000000000000000a165627a7a7230582072a50ec4ef7df15268aae13ecf009292e0d19b1f3cd40ed3d50a3ad75a917f100029",
  "source": "pragma solidity ^0.5.0;\n\nimport \"@openzeppelin/contracts/math/SafeMath.sol\";\n\nimport \"./interfaces/ITwistedSisterAccessControls.sol\";\nimport \"./interfaces/ITwistedSisterTokenCreator.sol\";\nimport \"./splitters/TwistedSisterAuctionFundSplitter.sol\";\n\ncontract TwistedSisterAuction {\n    using SafeMath for uint256;\n\n    event BidAccepted(\n        uint256 indexed _round,\n        uint256 _timeStamp,\n        uint256 _param,\n        uint256 _amount,\n        address indexed _bidder\n    );\n\n    event BidderRefunded(\n        uint256 indexed _round,\n        uint256 _amount,\n        address indexed _bidder\n    );\n\n    event RoundFinalised(\n        uint256 indexed _round,\n        uint256 _timestamp,\n        uint256 _param,\n        uint256 _highestBid,\n        address _highestBidder\n    );\n\n    address payable printingFund;\n    address payable auctionOwner;\n\n    uint256 public auctionStartTime;\n\n    uint256 public minBid = 0.02 ether;\n    uint256 public currentRound = 1;\n    uint256 public numOfRounds = 21;\n    uint256 public roundLengthInSeconds = 0.5 days;\n    uint256 constant public secondsInADay = 1 days;\n\n    // round <> parameter from highest bidder\n    mapping(uint256 => uint256) public winningRoundParameter;\n\n    // round <> highest bid value\n    mapping(uint256 => uint256) public highestBidFromRound;\n\n    // round <> address of the highest bidder\n    mapping(uint256 => address) public highestBidderFromRound;\n\n    ITwistedSisterAccessControls public accessControls;\n    ITwistedSisterTokenCreator public twistedTokenCreator;\n    TwistedSisterAuctionFundSplitter public auctionFundSplitter;\n\n    modifier isWhitelisted() {\n        require(accessControls.isWhitelisted(msg.sender), \"Caller not whitelisted\");\n        _;\n    }\n\n    constructor(ITwistedSisterAccessControls _accessControls,\n                ITwistedSisterTokenCreator _twistedTokenCreator,\n                TwistedSisterAuctionFundSplitter _auctionFundSplitter,\n                address payable _printingFund,\n                address payable _auctionOwner,\n                uint256 _auctionStartTime) public {\n        require(now < _auctionStartTime, \"Auction start time is not in the future\");\n        accessControls = _accessControls;\n        twistedTokenCreator = _twistedTokenCreator;\n        auctionFundSplitter = _auctionFundSplitter;\n        printingFund = _printingFund;\n        auctionStartTime = _auctionStartTime;\n        auctionOwner = _auctionOwner;\n    }\n\n    function _isWithinBiddingWindowForRound() internal view returns (bool) {\n        uint256 offsetFromStartingRound = currentRound.sub(1);\n        uint256 currentRoundSecondsOffsetSinceFirstRound = secondsInADay.mul(offsetFromStartingRound);\n        uint256 currentRoundStartTime = auctionStartTime.add(currentRoundSecondsOffsetSinceFirstRound);\n        uint256 currentRoundEndTime = currentRoundStartTime.add(roundLengthInSeconds);\n        return now >= currentRoundStartTime && now <= currentRoundEndTime;\n    }\n\n    function _isBidValid(uint256 _bidValue) internal view {\n        require(currentRound <= numOfRounds, \"Auction has ended\");\n        require(_bidValue >= minBid, \"The bid didn't reach the minimum bid threshold\");\n        require(_bidValue >= highestBidFromRound[currentRound].add(minBid), \"The bid was not higher than the last\");\n        require(_isWithinBiddingWindowForRound(), \"This round's bidding window is not open\");\n    }\n\n    function _refundHighestBidder() internal {\n        uint256 highestBidAmount = highestBidFromRound[currentRound];\n        if (highestBidAmount > 0) {\n            address highestBidder = highestBidderFromRound[currentRound];\n\n            // Clear out highest bidder as there is no longer one\n            delete highestBidderFromRound[currentRound];\n\n            (bool success, ) = highestBidder.call.value(highestBidAmount)(\"\");\n            require(success, \"Failed to refund the highest bidder\");\n\n            emit BidderRefunded(currentRound, highestBidAmount, highestBidder);\n        }\n    }\n\n    function _splitFundsFromHighestBid() internal {\n        // Split - 50% -> 3D Printing Fund, 50% -> TwistedAuctionFundSplitter\n        uint256 valueToSend = highestBidFromRound[currentRound.sub(1)].div(2);\n\n        (bool pfSuccess, ) = printingFund.call.value(valueToSend)(\"\");\n        require(pfSuccess, \"Failed to transfer funds to the printing fund\");\n\n        (bool fsSuccess, ) = address(auctionFundSplitter).call.value(valueToSend)(\"\");\n        require(fsSuccess, \"Failed to send funds to the auction fund splitter\");\n    }\n\n    function bid(uint256 _parameter) external payable {\n        require(_parameter > 0, \"The parameter cannot be zero\");\n        _isBidValid(msg.value);\n        _refundHighestBidder();\n        highestBidFromRound[currentRound] = msg.value;\n        highestBidderFromRound[currentRound] = msg.sender;\n        winningRoundParameter[currentRound] = _parameter;\n        emit BidAccepted(currentRound, now, winningRoundParameter[currentRound], highestBidFromRound[currentRound], highestBidderFromRound[currentRound]);\n    }\n\n    function issueTwistAndPrepNextRound(string calldata _ipfsHash) external isWhitelisted {\n        require(!_isWithinBiddingWindowForRound(), \"Current round still active\");\n\n        uint256 previousRound = currentRound;\n        currentRound = currentRound.add(1);\n\n        // Handle no-bid scenario\n        if (highestBidderFromRound[previousRound] == address(0)) {\n            highestBidderFromRound[previousRound] = auctionOwner;\n            winningRoundParameter[previousRound] = 1; // 1 is the default and first param (1...64)\n        }\n\n        // Issue the TWIST\n        address winner = highestBidderFromRound[previousRound];\n        uint256 winningRoundParam = winningRoundParameter[previousRound];\n        uint256 tokenId = twistedTokenCreator.createTwisted(previousRound, winningRoundParam, _ipfsHash, winner);\n        require(tokenId == previousRound, \"Error minting the TWIST token\");\n\n        // Take the proceedings from the highest bid and split funds accordingly\n        _splitFundsFromHighestBid();\n\n        emit RoundFinalised(previousRound, now, winningRoundParam, highestBidFromRound[previousRound], winner);\n    }\n\n    function updateAuctionStartTime(uint256 _auctionStartTime) external isWhitelisted {\n        auctionStartTime = _auctionStartTime;\n    }\n\n    function updateNumberOfRounds(uint256 _numOfRounds) external isWhitelisted {\n        require(_numOfRounds >= currentRound, \"Number of rounds can't be smaller than the number of previous\");\n        numOfRounds = _numOfRounds;\n    }\n\n    function updateRoundLength(uint256 _roundLengthInSeconds) external isWhitelisted {\n        require(_roundLengthInSeconds < secondsInADay);\n        roundLengthInSeconds = _roundLengthInSeconds;\n    }\n}\n",
  "sourcePath": "/Users/andy/workspace/ts-contracts/contracts/TwistedSisterAuction.sol",
  "compiler": {
    "name": "solc",
    "version": "0.5.0+commit.1d4f565a.Emscripten.clang"
  },
  "schemaVersion": "3.0.16",
  "updatedAt": "2019-10-28T08:39:22.711Z",
  "devdoc": {
    "methods": {}
  },
  "userdoc": {
    "methods": {}
  }
}