{
  "contractName": "BuyNowNFTMarketplace",
  "abi": [
    {
      "inputs": [
        {
          "internalType": "contract CustomERC721Full",
          "name": "_nft",
          "type": "address"
        }
      ],
      "payable": false,
      "stateMutability": "nonpayable",
      "type": "constructor"
    },
    {
      "anonymous": false,
      "inputs": [
        {
          "indexed": true,
          "internalType": "address",
          "name": "_seller",
          "type": "address"
        },
        {
          "indexed": true,
          "internalType": "uint256",
          "name": "_tokenId",
          "type": "uint256"
        }
      ],
      "name": "Delisting",
      "type": "event"
    },
    {
      "anonymous": false,
      "inputs": [
        {
          "indexed": true,
          "internalType": "address",
          "name": "_seller",
          "type": "address"
        },
        {
          "indexed": true,
          "internalType": "uint256",
          "name": "_tokenId",
          "type": "uint256"
        },
        {
          "indexed": false,
          "internalType": "uint256",
          "name": "_priceInWei",
          "type": "uint256"
        }
      ],
      "name": "Listing",
      "type": "event"
    },
    {
      "anonymous": false,
      "inputs": [
        {
          "indexed": true,
          "internalType": "address",
          "name": "_buyer",
          "type": "address"
        },
        {
          "indexed": false,
          "internalType": "uint256",
          "name": "_tokenId",
          "type": "uint256"
        },
        {
          "indexed": false,
          "internalType": "uint256",
          "name": "_priceInWei",
          "type": "uint256"
        }
      ],
      "name": "Purchase",
      "type": "event"
    },
    {
      "constant": true,
      "inputs": [],
      "name": "nft",
      "outputs": [
        {
          "internalType": "contract CustomERC721Full",
          "name": "",
          "type": "address"
        }
      ],
      "payable": false,
      "stateMutability": "view",
      "type": "function"
    },
    {
      "constant": false,
      "inputs": [
        {
          "internalType": "uint256",
          "name": "_tokenId",
          "type": "uint256"
        },
        {
          "internalType": "uint256",
          "name": "_priceInWei",
          "type": "uint256"
        }
      ],
      "name": "listToken",
      "outputs": [
        {
          "internalType": "bool",
          "name": "",
          "type": "bool"
        }
      ],
      "payable": false,
      "stateMutability": "nonpayable",
      "type": "function"
    },
    {
      "constant": false,
      "inputs": [
        {
          "internalType": "uint256",
          "name": "_tokenId",
          "type": "uint256"
        }
      ],
      "name": "delistToken",
      "outputs": [
        {
          "internalType": "bool",
          "name": "",
          "type": "bool"
        }
      ],
      "payable": false,
      "stateMutability": "nonpayable",
      "type": "function"
    },
    {
      "constant": false,
      "inputs": [
        {
          "internalType": "uint256",
          "name": "_tokenId",
          "type": "uint256"
        }
      ],
      "name": "buyNow",
      "outputs": [],
      "payable": true,
      "stateMutability": "payable",
      "type": "function"
    },
    {
      "constant": true,
      "inputs": [],
      "name": "listedTokens",
      "outputs": [
        {
          "internalType": "uint256[]",
          "name": "",
          "type": "uint256[]"
        }
      ],
      "payable": false,
      "stateMutability": "view",
      "type": "function"
    },
    {
      "constant": true,
      "inputs": [
        {
          "internalType": "uint256",
          "name": "_tokenId",
          "type": "uint256"
        }
      ],
      "name": "listedTokenPrice",
      "outputs": [
        {
          "internalType": "uint256",
          "name": "",
          "type": "uint256"
        }
      ],
      "payable": false,
      "stateMutability": "view",
      "type": "function"
    }
  ],
  "bytecode": "0x608060405234801561001057600080fd5b506040516109be3803806109be8339818101604052602081101561003357600080fd5b5051600080546001600160a01b039092166001600160a01b0319909216919091179055610959806100656000396000f3fe6080604052600436106100555760003560e01c806308a0f32f1461005a57806347ccca02146100795780634a3d6bda146100aa57806375c1631d1461010f578063bed659bc14610153578063ff644df81461017d575b600080fd5b6100776004803603602081101561007057600080fd5b50356101b9565b005b34801561008557600080fd5b5061008e6103a3565b604080516001600160a01b039092168252519081900360200190f35b3480156100b657600080fd5b506100bf6103b2565b60408051602080825283518183015283519192839290830191858101910280838360005b838110156100fb5781810151838201526020016100e3565b505050509050019250505060405180910390f35b34801561011b57600080fd5b5061013f6004803603604081101561013257600080fd5b508035906020013561040a565b604080519115158252519081900360200190f35b34801561015f57600080fd5b5061013f6004803603602081101561017657600080fd5b50356107f6565b34801561018957600080fd5b506101a7600480360360208110156101a057600080fd5b5035610912565b60408051918252519081900360200190f35b60008181526001602052604090205461020c576040805162461bcd60e51b815260206004820152601060248201526f151bdad95b881b9bdd081b1a5cdd195960821b604482015290519081900360640190fd5b60008181526001602052604090205434101561026f576040805162461bcd60e51b815260206004820152601b60248201527f56616c75652069732062656c6f772061736b696e672070726963650000000000604482015290519081900360640190fd5b60008054604080516331a9108f60e11b81526004810185905290516001600160a01b0390921691636352211e91602480820192602092909190829003018186803b1580156102bc57600080fd5b505afa1580156102d0573d6000803e3d6000fd5b505050506040513d60208110156102e657600080fd5b505160008054604080516323b872dd60e01b81526001600160a01b0380861660048301523360248301526044820188905291519495509116926323b872dd9234926064808201939182900301818588803b15801561034357600080fd5b505af1158015610357573d6000803e3d6000fd5b5050505050610365826107f6565b5060408051838152346020820152815133927f12cb4648cf3058b17ceeb33e579f8b0bc269fe0843f3900b8e24b6c54871703c928290030190a25050565b6000546001600160a01b031681565b6060600280548060200260200160405190810160405280929190818152602001828054801561040057602002820191906000526020600020905b8154815260200190600101908083116103ec575b5050505050905090565b60008054604080516331a9108f60e11b8152600481018690529051859233926001600160a01b0390911691636352211e91602480820192602092909190829003018186803b15801561045b57600080fd5b505afa15801561046f573d6000803e3d6000fd5b505050506040513d602081101561048557600080fd5b50516001600160a01b0316146104e2576040805162461bcd60e51b815260206004820181905260248201527f596f7520617265206e6f7420746865206f776e6572206f6620746865204e4654604482015290519081900360640190fd5b60008054604080516331a9108f60e11b81526004810188905290518793926001600160a01b031691636352211e916024808301926020929190829003018186803b15801561052f57600080fd5b505afa158015610543573d6000803e3d6000fd5b505050506040513d602081101561055957600080fd5b50516000546040805163020604bf60e21b815260048101869052905192935030926001600160a01b039092169163081812fc91602480820192602092909190829003018186803b1580156105ac57600080fd5b505afa1580156105c0573d6000803e3d6000fd5b505050506040513d60208110156105d657600080fd5b50516001600160a01b0316148061066857506000546040805163e985e9c560e01b81526001600160a01b0384811660048301523060248301529151919092169163e985e9c5916044808301926020929190829003018186803b15801561063b57600080fd5b505afa15801561064f573d6000803e3d6000fd5b505050506040513d602081101561066557600080fd5b50515b6106b9576040805162461bcd60e51b815260206004820152601860248201527f4e4654206e6f7420617070726f76656420746f2073656c6c0000000000000000604482015290519081900360640190fd5b6000868152600160205260409020541561071a576040805162461bcd60e51b815260206004820152601a60248201527f4d757374206e6f7420626520616c7265616479206c6973746564000000000000604482015290519081900360640190fd5b6000851161076f576040805162461bcd60e51b815260206004820152601a60248201527f4d7573742068617665206120706f736974697665207072696365000000000000604482015290519081900360640190fd5b60008681526001602081815260408084208990556002805493840181559093527f405787fa12a823e0f2b7631cc41b3ba8828b3321ca811111fa75cd3aa3bb5ace90910188905581518781529151889233927f6935191bc626032d8c74ced321b2d6a62df2578bf60599625cb4f59d51e3849f92918290030190a350600195945050505050565b60008054604080516331a9108f60e11b8152600481018590529051849233926001600160a01b0390911691636352211e91602480820192602092909190829003018186803b15801561084757600080fd5b505afa15801561085b573d6000803e3d6000fd5b505050506040513d602081101561087157600080fd5b50516001600160a01b0316146108ce576040805162461bcd60e51b815260206004820181905260248201527f596f7520617265206e6f7420746865206f776e6572206f6620746865204e4654604482015290519081900360640190fd5b60008381526001602052604080822082905551849133917f9c74d776e5765f64303c82b9dceb594cdf4d4e054e6530a839715a276532e0ab9190a350600192915050565b6000908152600160205260409020549056fea265627a7a723158202ac927daf11481fc5651b688eba7dd2ed6d4a6bf1606a7b6260c17df6023439e64736f6c634300050c0032",
  "source": "pragma solidity ^0.5.12;\n\nimport \"@openzeppelin/contracts/math/SafeMath.sol\";\nimport \"../interfaces/erc721/CustomERC721Full.sol\";\n\ncontract BuyNowNFTMarketplace {\n    using SafeMath for uint256;\n\n    event Purchase(address indexed _buyer, uint _tokenId, uint256 _priceInWei);\n    event Listing(address indexed _seller, uint indexed _tokenId, uint256 _priceInWei);\n    event Delisting(address indexed _seller, uint indexed _tokenId);\n\n    modifier onlyWhenTokenOwner(uint256 _tokenId) {\n        require(nft.ownerOf(_tokenId) == msg.sender, \"You are not the owner of the NFT\");\n        _;\n    }\n\n    modifier onlyWhenMarketplaceIsApproved(uint256 _tokenId) {\n        address owner = nft.ownerOf(_tokenId);\n        require(nft.getApproved(_tokenId) == address(this) || nft.isApprovedForAll(owner, address(this)), \"NFT not approved to sell\");\n        _;\n    }\n\n    CustomERC721Full public nft;\n\n    // Manages all listings\n    mapping(uint256 => uint256) internal tokenIdToPrice;\n    uint256[] internal listedTokenIds;\n\n    constructor(CustomERC721Full _nft) public {\n        nft = _nft;\n    }\n\n    function listToken(uint256 _tokenId, uint256 _priceInWei)\n    external onlyWhenTokenOwner(_tokenId) onlyWhenMarketplaceIsApproved(_tokenId) returns (bool) {\n        require(tokenIdToPrice[_tokenId] == 0, \"Must not be already listed\");\n        require(_priceInWei > 0, \"Must have a positive price\");\n\n        tokenIdToPrice[_tokenId] = _priceInWei;\n\n        listedTokenIds.push(_tokenId);\n\n        emit Listing(msg.sender, _tokenId, _priceInWei);\n\n        return true;\n    }\n\n    function delistToken(uint256 _tokenId) public onlyWhenTokenOwner(_tokenId) returns (bool) {\n        delete tokenIdToPrice[_tokenId];\n\n        emit Delisting(msg.sender, _tokenId);\n\n        return true;\n    }\n\n    function buyNow(uint256 _tokenId) external payable {\n        require(tokenIdToPrice[_tokenId] > 0, \"Token not listed\");\n        require(msg.value >= tokenIdToPrice[_tokenId], \"Value is below asking price\");\n\n        address payable tokenSeller = address(uint160(nft.ownerOf(_tokenId)));\n        nft.transferFrom.value(msg.value)(tokenSeller, msg.sender, _tokenId);\n\n        delistToken(_tokenId);\n\n        emit Purchase(msg.sender, _tokenId, msg.value);\n    }\n\n    function listedTokens() external view returns (uint256[] memory) {\n        return listedTokenIds;\n    }\n\n    function listedTokenPrice(uint256 _tokenId) external view returns (uint256) {\n        return tokenIdToPrice[_tokenId];\n    }\n}",
  "sourcePath": "/Users/Natalie/Projects/ts-contracts/contracts/marketplace/BuyNowNFTMarketplace.sol",
  "compiler": {
    "name": "solc",
    "version": "0.5.12+commit.7709ece9.Emscripten.clang"
  },
  "schemaVersion": "3.0.19",
  "updatedAt": "2020-01-07T09:35:45.678Z",
  "networkType": "ethereum",
  "devdoc": {
    "methods": {}
  },
  "userdoc": {
    "methods": {}
  }
}