{
  "contractName": "BuyNowNFTMarketplace",
  "abi": [
    {
      "inputs": [
        {
          "internalType": "contract CustomERC721Full",
          "name": "_nft",
          "type": "address"
        }
      ],
      "payable": false,
      "stateMutability": "nonpayable",
      "type": "constructor"
    },
    {
      "anonymous": false,
      "inputs": [
        {
          "indexed": true,
          "internalType": "address",
          "name": "_seller",
          "type": "address"
        },
        {
          "indexed": true,
          "internalType": "uint256",
          "name": "_tokenId",
          "type": "uint256"
        }
      ],
      "name": "Delisting",
      "type": "event"
    },
    {
      "anonymous": false,
      "inputs": [
        {
          "indexed": true,
          "internalType": "address",
          "name": "_seller",
          "type": "address"
        },
        {
          "indexed": true,
          "internalType": "uint256",
          "name": "_tokenId",
          "type": "uint256"
        },
        {
          "indexed": false,
          "internalType": "uint256",
          "name": "_priceInWei",
          "type": "uint256"
        }
      ],
      "name": "Listing",
      "type": "event"
    },
    {
      "anonymous": false,
      "inputs": [
        {
          "indexed": true,
          "internalType": "address",
          "name": "_buyer",
          "type": "address"
        },
        {
          "indexed": false,
          "internalType": "uint256",
          "name": "_tokenId",
          "type": "uint256"
        },
        {
          "indexed": false,
          "internalType": "uint256",
          "name": "_priceInWei",
          "type": "uint256"
        }
      ],
      "name": "Purchase",
      "type": "event"
    },
    {
      "constant": true,
      "inputs": [],
      "name": "nft",
      "outputs": [
        {
          "internalType": "contract CustomERC721Full",
          "name": "",
          "type": "address"
        }
      ],
      "payable": false,
      "stateMutability": "view",
      "type": "function"
    },
    {
      "constant": true,
      "inputs": [
        {
          "internalType": "uint256",
          "name": "",
          "type": "uint256"
        }
      ],
      "name": "tokenIdToPrice",
      "outputs": [
        {
          "internalType": "uint256",
          "name": "",
          "type": "uint256"
        }
      ],
      "payable": false,
      "stateMutability": "view",
      "type": "function"
    },
    {
      "constant": false,
      "inputs": [
        {
          "internalType": "uint256",
          "name": "_tokenId",
          "type": "uint256"
        },
        {
          "internalType": "uint256",
          "name": "_priceInWei",
          "type": "uint256"
        }
      ],
      "name": "listToken",
      "outputs": [
        {
          "internalType": "bool",
          "name": "",
          "type": "bool"
        }
      ],
      "payable": false,
      "stateMutability": "nonpayable",
      "type": "function"
    },
    {
      "constant": false,
      "inputs": [
        {
          "internalType": "uint256",
          "name": "_tokenId",
          "type": "uint256"
        }
      ],
      "name": "delistToken",
      "outputs": [
        {
          "internalType": "bool",
          "name": "",
          "type": "bool"
        }
      ],
      "payable": false,
      "stateMutability": "nonpayable",
      "type": "function"
    },
    {
      "constant": false,
      "inputs": [
        {
          "internalType": "uint256",
          "name": "_tokenId",
          "type": "uint256"
        }
      ],
      "name": "buyNow",
      "outputs": [],
      "payable": true,
      "stateMutability": "payable",
      "type": "function"
    },
    {
      "constant": true,
      "inputs": [
        {
          "internalType": "uint256",
          "name": "_tokenId",
          "type": "uint256"
        }
      ],
      "name": "listedTokenPrice",
      "outputs": [
        {
          "internalType": "uint256",
          "name": "",
          "type": "uint256"
        }
      ],
      "payable": false,
      "stateMutability": "view",
      "type": "function"
    }
  ],
  "bytecode": "0x608060405234801561001057600080fd5b5060405161090b38038061090b8339818101604052602081101561003357600080fd5b5051600080546001600160a01b039092166001600160a01b03199092169190911790556108a6806100656000396000f3fe6080604052600436106100555760003560e01c806308a0f32f1461005a57806347ccca021461007957806375c1631d146100aa578063bed659bc146100ee578063f4812eb914610118578063ff644df814610154575b600080fd5b6100776004803603602081101561007057600080fd5b503561017e565b005b34801561008557600080fd5b5061008e610368565b604080516001600160a01b039092168252519081900360200190f35b3480156100b657600080fd5b506100da600480360360408110156100cd57600080fd5b5080359060200135610377565b604080519115158252519081900360200190f35b3480156100fa57600080fd5b506100da6004803603602081101561011157600080fd5b5035610731565b34801561012457600080fd5b506101426004803603602081101561013b57600080fd5b503561084d565b60408051918252519081900360200190f35b34801561016057600080fd5b506101426004803603602081101561017757600080fd5b503561085f565b6000818152600160205260409020546101d1576040805162461bcd60e51b815260206004820152601060248201526f151bdad95b881b9bdd081b1a5cdd195960821b604482015290519081900360640190fd5b600081815260016020526040902054341015610234576040805162461bcd60e51b815260206004820152601b60248201527f56616c75652069732062656c6f772061736b696e672070726963650000000000604482015290519081900360640190fd5b60008054604080516331a9108f60e11b81526004810185905290516001600160a01b0390921691636352211e91602480820192602092909190829003018186803b15801561028157600080fd5b505afa158015610295573d6000803e3d6000fd5b505050506040513d60208110156102ab57600080fd5b505160008054604080516323b872dd60e01b81526001600160a01b0380861660048301523360248301526044820188905291519495509116926323b872dd9234926064808201939182900301818588803b15801561030857600080fd5b505af115801561031c573d6000803e3d6000fd5b505050505061032a82610731565b5060408051838152346020820152815133927f12cb4648cf3058b17ceeb33e579f8b0bc269fe0843f3900b8e24b6c54871703c928290030190a25050565b6000546001600160a01b031681565b60008054604080516331a9108f60e11b8152600481018690529051859233926001600160a01b0390911691636352211e91602480820192602092909190829003018186803b1580156103c857600080fd5b505afa1580156103dc573d6000803e3d6000fd5b505050506040513d60208110156103f257600080fd5b50516001600160a01b03161461044f576040805162461bcd60e51b815260206004820181905260248201527f596f7520617265206e6f7420746865206f776e6572206f6620746865204e4654604482015290519081900360640190fd5b60008054604080516331a9108f60e11b81526004810188905290518793926001600160a01b031691636352211e916024808301926020929190829003018186803b15801561049c57600080fd5b505afa1580156104b0573d6000803e3d6000fd5b505050506040513d60208110156104c657600080fd5b50516000546040805163020604bf60e21b815260048101869052905192935030926001600160a01b039092169163081812fc91602480820192602092909190829003018186803b15801561051957600080fd5b505afa15801561052d573d6000803e3d6000fd5b505050506040513d602081101561054357600080fd5b50516001600160a01b031614806105d557506000546040805163e985e9c560e01b81526001600160a01b0384811660048301523060248301529151919092169163e985e9c5916044808301926020929190829003018186803b1580156105a857600080fd5b505afa1580156105bc573d6000803e3d6000fd5b505050506040513d60208110156105d257600080fd5b50515b610626576040805162461bcd60e51b815260206004820152601860248201527f4e4654206e6f7420617070726f76656420746f2073656c6c0000000000000000604482015290519081900360640190fd5b60008681526001602052604090205415610687576040805162461bcd60e51b815260206004820152601a60248201527f4d757374206e6f7420626520616c7265616479206c6973746564000000000000604482015290519081900360640190fd5b600085116106dc576040805162461bcd60e51b815260206004820152601a60248201527f4d7573742068617665206120706f736974697665207072696365000000000000604482015290519081900360640190fd5b60008681526001602090815260409182902087905581518781529151889233927f6935191bc626032d8c74ced321b2d6a62df2578bf60599625cb4f59d51e3849f92918290030190a350600195945050505050565b60008054604080516331a9108f60e11b8152600481018590529051849233926001600160a01b0390911691636352211e91602480820192602092909190829003018186803b15801561078257600080fd5b505afa158015610796573d6000803e3d6000fd5b505050506040513d60208110156107ac57600080fd5b50516001600160a01b031614610809576040805162461bcd60e51b815260206004820181905260248201527f596f7520617265206e6f7420746865206f776e6572206f6620746865204e4654604482015290519081900360640190fd5b60008381526001602052604080822082905551849133917f9c74d776e5765f64303c82b9dceb594cdf4d4e054e6530a839715a276532e0ab9190a350600192915050565b60016020526000908152604090205481565b6000908152600160205260409020549056fea265627a7a72315820cc72229a985646aeb68682d75efe77f203e7595f82ef2bf4d7e0238cb4870c2264736f6c634300050c0032",
  "source": "pragma solidity ^0.5.12;\n\nimport \"@openzeppelin/contracts/math/SafeMath.sol\";\nimport \"../interfaces/erc721/CustomERC721Full.sol\";\n\ncontract BuyNowNFTMarketplace {\n    using SafeMath for uint256;\n\n    event Purchase(address indexed _buyer, uint _tokenId, uint256 _priceInWei);\n    event Listing(address indexed _seller, uint indexed _tokenId, uint256 _priceInWei);\n    event Delisting(address indexed _seller, uint indexed _tokenId);\n\n    modifier onlyWhenTokenOwner(uint256 _tokenId) {\n        require(nft.ownerOf(_tokenId) == msg.sender, \"You are not the owner of the NFT\");\n        _;\n    }\n\n    modifier onlyWhenMarketplaceIsApproved(uint256 _tokenId) {\n        address owner = nft.ownerOf(_tokenId);\n        require(nft.getApproved(_tokenId) == address(this) || nft.isApprovedForAll(owner, address(this)), \"NFT not approved to sell\");\n        _;\n    }\n\n    CustomERC721Full public nft;\n\n    // Manages all listings\n    mapping(uint256 => uint256) public tokenIdToPrice;\n\n    constructor(CustomERC721Full _nft) public {\n        nft = _nft;\n    }\n\n    function listToken(uint256 _tokenId, uint256 _priceInWei)\n    external onlyWhenTokenOwner(_tokenId) onlyWhenMarketplaceIsApproved(_tokenId) returns (bool) {\n        require(tokenIdToPrice[_tokenId] == 0, \"Must not be already listed\");\n        require(_priceInWei > 0, \"Must have a positive price\");\n\n        tokenIdToPrice[_tokenId] = _priceInWei;\n\n        emit Listing(msg.sender, _tokenId, _priceInWei);\n\n        return true;\n    }\n\n    function delistToken(uint256 _tokenId) public onlyWhenTokenOwner(_tokenId) returns (bool) {\n        delete tokenIdToPrice[_tokenId];\n\n        emit Delisting(msg.sender, _tokenId);\n\n        return true;\n    }\n\n    function buyNow(uint256 _tokenId) external payable {\n        require(tokenIdToPrice[_tokenId] > 0, \"Token not listed\");\n        require(msg.value >= tokenIdToPrice[_tokenId], \"Value is below asking price\");\n\n        address payable tokenSeller = address(uint160(nft.ownerOf(_tokenId)));\n        nft.transferFrom.value(msg.value)(tokenSeller, msg.sender, _tokenId);\n\n        delistToken(_tokenId);\n\n        emit Purchase(msg.sender, _tokenId, msg.value);\n    }\n\n    function listedTokenPrice(uint256 _tokenId) external view returns (uint256) {\n        return tokenIdToPrice[_tokenId];\n    }\n}",
  "sourcePath": "/Users/Natalie/Projects/ts-contracts/contracts/marketplace/BuyNowNFTMarketplace.sol",
  "compiler": {
    "name": "solc",
    "version": "0.5.12+commit.7709ece9.Emscripten.clang"
  },
  "schemaVersion": "3.0.19",
  "updatedAt": "2020-01-16T15:45:58.615Z",
  "networkType": "ethereum",
  "devdoc": {
    "methods": {}
  },
  "userdoc": {
    "methods": {}
  }
}