{
  "contractName": "TwistedAuctionMock",
  "abi": [
    {
      "constant": true,
      "inputs": [
        {
          "name": "",
          "type": "uint256"
        }
      ],
      "name": "highestBidderFromRound",
      "outputs": [
        {
          "name": "",
          "type": "address"
        }
      ],
      "payable": false,
      "stateMutability": "view",
      "type": "function"
    },
    {
      "constant": false,
      "inputs": [
        {
          "name": "_numOfRounds",
          "type": "uint256"
        }
      ],
      "name": "updateNumberOfRounds",
      "outputs": [],
      "payable": false,
      "stateMutability": "nonpayable",
      "type": "function"
    },
    {
      "constant": true,
      "inputs": [],
      "name": "minBid",
      "outputs": [
        {
          "name": "",
          "type": "uint256"
        }
      ],
      "payable": false,
      "stateMutability": "view",
      "type": "function"
    },
    {
      "constant": false,
      "inputs": [
        {
          "name": "_parameter",
          "type": "uint256"
        }
      ],
      "name": "bid",
      "outputs": [],
      "payable": true,
      "stateMutability": "payable",
      "type": "function"
    },
    {
      "constant": true,
      "inputs": [],
      "name": "auctionFundSplitter",
      "outputs": [
        {
          "name": "",
          "type": "address"
        }
      ],
      "payable": false,
      "stateMutability": "view",
      "type": "function"
    },
    {
      "constant": true,
      "inputs": [],
      "name": "secondsInADay",
      "outputs": [
        {
          "name": "",
          "type": "uint256"
        }
      ],
      "payable": false,
      "stateMutability": "view",
      "type": "function"
    },
    {
      "constant": true,
      "inputs": [],
      "name": "roundLengthInSeconds",
      "outputs": [
        {
          "name": "",
          "type": "uint256"
        }
      ],
      "payable": false,
      "stateMutability": "view",
      "type": "function"
    },
    {
      "constant": true,
      "inputs": [],
      "name": "accessControls",
      "outputs": [
        {
          "name": "",
          "type": "address"
        }
      ],
      "payable": false,
      "stateMutability": "view",
      "type": "function"
    },
    {
      "constant": true,
      "inputs": [],
      "name": "numOfRounds",
      "outputs": [
        {
          "name": "",
          "type": "uint256"
        }
      ],
      "payable": false,
      "stateMutability": "view",
      "type": "function"
    },
    {
      "constant": true,
      "inputs": [
        {
          "name": "",
          "type": "uint256"
        }
      ],
      "name": "winningRoundParameter",
      "outputs": [
        {
          "name": "",
          "type": "uint256"
        }
      ],
      "payable": false,
      "stateMutability": "view",
      "type": "function"
    },
    {
      "constant": true,
      "inputs": [],
      "name": "currentRound",
      "outputs": [
        {
          "name": "",
          "type": "uint256"
        }
      ],
      "payable": false,
      "stateMutability": "view",
      "type": "function"
    },
    {
      "constant": true,
      "inputs": [],
      "name": "twistedTokenCreator",
      "outputs": [
        {
          "name": "",
          "type": "address"
        }
      ],
      "payable": false,
      "stateMutability": "view",
      "type": "function"
    },
    {
      "constant": false,
      "inputs": [
        {
          "name": "_roundLengthInSeconds",
          "type": "uint256"
        }
      ],
      "name": "updateRoundLength",
      "outputs": [],
      "payable": false,
      "stateMutability": "nonpayable",
      "type": "function"
    },
    {
      "constant": true,
      "inputs": [],
      "name": "auctionStartTime",
      "outputs": [
        {
          "name": "",
          "type": "uint256"
        }
      ],
      "payable": false,
      "stateMutability": "view",
      "type": "function"
    },
    {
      "constant": false,
      "inputs": [
        {
          "name": "_ipfsHash",
          "type": "string"
        }
      ],
      "name": "issueTwistAndPrepNextRound",
      "outputs": [],
      "payable": false,
      "stateMutability": "nonpayable",
      "type": "function"
    },
    {
      "constant": true,
      "inputs": [
        {
          "name": "",
          "type": "uint256"
        }
      ],
      "name": "highestBidFromRound",
      "outputs": [
        {
          "name": "",
          "type": "uint256"
        }
      ],
      "payable": false,
      "stateMutability": "view",
      "type": "function"
    },
    {
      "inputs": [
        {
          "name": "_accessControls",
          "type": "address"
        },
        {
          "name": "_twistedTokenCreator",
          "type": "address"
        },
        {
          "name": "_auctionFundSplitter",
          "type": "address"
        },
        {
          "name": "_printingFund",
          "type": "address"
        },
        {
          "name": "_auctionStartTime",
          "type": "uint256"
        }
      ],
      "payable": false,
      "stateMutability": "nonpayable",
      "type": "constructor"
    },
    {
      "anonymous": false,
      "inputs": [
        {
          "indexed": true,
          "name": "_round",
          "type": "uint256"
        },
        {
          "indexed": false,
          "name": "_param",
          "type": "uint256"
        },
        {
          "indexed": false,
          "name": "_amount",
          "type": "uint256"
        },
        {
          "indexed": true,
          "name": "_bidder",
          "type": "address"
        }
      ],
      "name": "BidAccepted",
      "type": "event"
    },
    {
      "anonymous": false,
      "inputs": [
        {
          "indexed": true,
          "name": "_round",
          "type": "uint256"
        },
        {
          "indexed": false,
          "name": "_amount",
          "type": "uint256"
        },
        {
          "indexed": true,
          "name": "_bidder",
          "type": "address"
        }
      ],
      "name": "BidderRefunded",
      "type": "event"
    },
    {
      "anonymous": false,
      "inputs": [
        {
          "indexed": true,
          "name": "_round",
          "type": "uint256"
        },
        {
          "indexed": false,
          "name": "_nextRound",
          "type": "uint256"
        },
        {
          "indexed": false,
          "name": "_issuedTokenId",
          "type": "uint256"
        }
      ],
      "name": "RoundFinalised",
      "type": "event"
    },
    {
      "constant": false,
      "inputs": [
        {
          "name": "_auctionStartTime",
          "type": "uint256"
        }
      ],
      "name": "updateAuctionStartTime",
      "outputs": [],
      "payable": false,
      "stateMutability": "nonpayable",
      "type": "function"
    },
    {
      "constant": false,
      "inputs": [
        {
          "name": "_currentRound",
          "type": "uint256"
        }
      ],
      "name": "updateCurrentRound",
      "outputs": [],
      "payable": false,
      "stateMutability": "nonpayable",
      "type": "function"
    }
  ],
  "bytecode": "0x6080604052662386f26fc100006003556001600455601560055561a8c060065534801561002b57600080fd5b5060405160a08061151d833981018060405260a081101561004b57600080fd5b50805160208201516040830151606084015160809094015192939192909190848484848442811161010357604080517f08c379a000000000000000000000000000000000000000000000000000000000815260206004820152602760248201527f41756374696f6e2073746172742074696d65206973206e6f7420696e2074686560448201527f2066757475726500000000000000000000000000000000000000000000000000606482015290519081900360840190fd5b600a8054600160a060020a0319908116600160a060020a0397881617909155600b8054821695871695909517909455600c805485169386169390931790925560008054841691909416178355600255600180543392169190911790556113a895508594506101759350915050396000f3fe6080604052600436106100fb5763ffffffff7c01000000000000000000000000000000000000000000000000000000006000350416630c1dbe63811461010057806320479533146101465780633e109a1914610172578063454a2ab314610199578063484aba99146101b6578063500aba54146101e05780636a019389146101f55780636b26f0f91461020a578063748365ef1461021f5780637895884a146102345780637ac96a62146102495780638a19c8bc146102735780638bb4a2951461028857806393a744a7146102b2578063d9b9e787146102c7578063eb54f9ec146102f1578063f2fd2ea514610306578063fffed38014610383575b600080fd5b34801561010c57600080fd5b5061012a6004803603602081101561012357600080fd5b50356103ad565b60408051600160a060020a039092168252519081900360200190f35b34801561015257600080fd5b506101706004803603602081101561016957600080fd5b50356103c8565b005b34801561017e57600080fd5b5061018761050b565b60408051918252519081900360200190f35b610170600480360360208110156101af57600080fd5b5035610511565b3480156101c257600080fd5b50610170600480360360208110156101d957600080fd5b50356105d5565b3480156101ec57600080fd5b5061012a610698565b34801561020157600080fd5b506101876106a7565b34801561021657600080fd5b506101876106ae565b34801561022b57600080fd5b5061012a6106b4565b34801561024057600080fd5b506101876106c3565b34801561025557600080fd5b506101876004803603602081101561026c57600080fd5b50356106c9565b34801561027f57600080fd5b506101876106db565b34801561029457600080fd5b50610170600480360360208110156102ab57600080fd5b50356106e1565b3480156102be57600080fd5b5061012a6107a4565b3480156102d357600080fd5b50610170600480360360208110156102ea57600080fd5b50356107b3565b3480156102fd57600080fd5b50610187610885565b34801561031257600080fd5b506101706004803603602081101561032957600080fd5b81019060208101813564010000000081111561034457600080fd5b82018360208201111561035657600080fd5b8035906020019184600183028401116401000000008311171561037857600080fd5b50909250905061088b565b34801561038f57600080fd5b50610187600480360360208110156103a657600080fd5b5035610bbb565b600960205260009081526040902054600160a060020a031681565b600a546040805160e060020a633af32abf0281523360048201529051600160a060020a0390921691633af32abf91602480820192602092909190829003018186803b15801561041657600080fd5b505afa15801561042a573d6000803e3d6000fd5b505050506040513d602081101561044057600080fd5b50511515610486576040805160e560020a62461bcd028152602060048201526016602482015260008051602061135d833981519152604482015290519081900360640190fd5b600454811015610506576040805160e560020a62461bcd02815260206004820152603d60248201527f4e756d626572206f6620726f756e64732063616e277420626520736d616c6c6560448201527f72207468616e20746865206e756d626572206f662070726576696f7573000000606482015290519081900360840190fd5b600555565b60035481565b61051a34610bcd565b610522610dbd565b600480546000908152600860208181526040808420349055845484526009808352818520805473ffffffffffffffffffffffffffffffffffffffff1916331790558554855260078084528286208890559554808652908352818520549583528185205493835293819020548151938452918301919091528051600160a060020a0394909416937f9a6c30aa52e2150f2003a14c3eb666c1ae3dcc8661c51e2ab48ca88eed07823c9281900390910190a350565b600a546040805160e060020a633af32abf0281523360048201529051600160a060020a0390921691633af32abf91602480820192602092909190829003018186803b15801561062357600080fd5b505afa158015610637573d6000803e3d6000fd5b505050506040513d602081101561064d57600080fd5b50511515610693576040805160e560020a62461bcd028152602060048201526016602482015260008051602061135d833981519152604482015290519081900360640190fd5b600255565b600c54600160a060020a031681565b6201518081565b60065481565b600a54600160a060020a031681565b60055481565b60076020526000908152604090205481565b60045481565b600a546040805160e060020a633af32abf0281523360048201529051600160a060020a0390921691633af32abf91602480820192602092909190829003018186803b15801561072f57600080fd5b505afa158015610743573d6000803e3d6000fd5b505050506040513d602081101561075957600080fd5b5051151561079f576040805160e560020a62461bcd028152602060048201526016602482015260008051602061135d833981519152604482015290519081900360640190fd5b600455565b600b54600160a060020a031681565b600a546040805160e060020a633af32abf0281523360048201529051600160a060020a0390921691633af32abf91602480820192602092909190829003018186803b15801561080157600080fd5b505afa158015610815573d6000803e3d6000fd5b505050506040513d602081101561082b57600080fd5b50511515610871576040805160e560020a62461bcd028152602060048201526016602482015260008051602061135d833981519152604482015290519081900360640190fd5b62015180811061088057600080fd5b600655565b60025481565b600a546040805160e060020a633af32abf0281523360048201529051600160a060020a0390921691633af32abf91602480820192602092909190829003018186803b1580156108d957600080fd5b505afa1580156108ed573d6000803e3d6000fd5b505050506040513d602081101561090357600080fd5b50511515610949576040805160e560020a62461bcd028152602060048201526016602482015260008051602061135d833981519152604482015290519081900360640190fd5b610951610f20565b156109a6576040805160e560020a62461bcd02815260206004820152601a60248201527f43757272656e7420726f756e64207374696c6c20616374697665000000000000604482015290519081900360640190fd5b6004546109ba81600163ffffffff610f9d16565b600455600081815260096020526040902054600160a060020a03161515610a17576001546000828152600960205260409020805473ffffffffffffffffffffffffffffffffffffffff1916600160a060020a039092169190911790555b600081815260096020908152604080832054600790925280832054600b5491517f309d56800000000000000000000000000000000000000000000000000000000081526004810186815260248201839052600160a060020a0394851660648301819052608060448401908152608484018a90529096939593949093169263309d568092889287928c928c928b92909160a401858580828437600081840152601f19601f8201169050808301925050509650505050505050602060405180830381600087803b158015610ae857600080fd5b505af1158015610afc573d6000803e3d6000fd5b505050506040513d6020811015610b1257600080fd5b50519050838114610b6d576040805160e560020a62461bcd02815260206004820152601d60248201527f4572726f72206d696e74696e672074686520545749535420746f6b656e000000604482015290519081900360640190fd5b610b75611003565b6004546040805191825260208201839052805186927ff7c765310707d3f0d55e555d8ac7d50aba0a10ec7f3567de4b06faf93df9949792908290030190a2505050505050565b60086020526000908152604090205481565b6005546004541115610c29576040805160e560020a62461bcd02815260206004820152601160248201527f41756374696f6e2068617320656e646564000000000000000000000000000000604482015290519081900360640190fd5b600354811015610ca9576040805160e560020a62461bcd02815260206004820152602e60248201527f54686520626964206469646e277420726561636820746865206d696e696d756d60448201527f20626964207468726573686f6c64000000000000000000000000000000000000606482015290519081900360840190fd5b6004546000908152600860205260409020548111610d36576040805160e560020a62461bcd028152602060048201526024808201527f5468652062696420776173206e6f7420686967686572207468616e207468652060448201527f6c61737400000000000000000000000000000000000000000000000000000000606482015290519081900360840190fd5b610d3e610f20565b1515610dba576040805160e560020a62461bcd02815260206004820152602760248201527f5468697320726f756e6427732062696464696e672077696e646f77206973206e60448201527f6f74206f70656e00000000000000000000000000000000000000000000000000606482015290519081900360840190fd5b50565b60045460009081526008602052604081205490811115610dba57600454600090815260096020526040808220805473ffffffffffffffffffffffffffffffffffffffff1981169091559051600160a060020a039091169190829084908381818185875af1925050503d8060008114610e51576040519150601f19603f3d011682016040523d82523d6000602084013e610e56565b606091505b50509050801515610ed7576040805160e560020a62461bcd02815260206004820152602360248201527f4661696c656420746f20726566756e642074686520686967686573742062696460448201527f6465720000000000000000000000000000000000000000000000000000000000606482015290519081900360840190fd5b81600160a060020a03166004547fa6b0a214724be5be631af1800b1bfdef5dbf1ac9dc351d039e1b082d40c62f20856040518082815260200191505060405180910390a3505050565b600080610f3960016004546111f190919063ffffffff16565b90506000610f50620151808363ffffffff61125116565b90506000610f6982600254610f9d90919063ffffffff16565b90506000610f8260065483610f9d90919063ffffffff16565b9050814210158015610f945750804211155b94505050505090565b600082820183811015610ffa576040805160e560020a62461bcd02815260206004820152601b60248201527f536166654d6174683a206164646974696f6e206f766572666c6f770000000000604482015290519081900360640190fd5b90505b92915050565b600061104160026008600061102460016004546111f190919063ffffffff16565b8152602001908152602001600020546112ed90919063ffffffff16565b600080546040519293509091600160a060020a039091169083908381818185875af1925050503d8060008114611093576040519150601f19603f3d011682016040523d82523d6000602084013e611098565b606091505b50509050801515611119576040805160e560020a62461bcd02815260206004820152602d60248201527f4661696c656420746f207472616e736665722066756e647320746f207468652060448201527f7072696e74696e672066756e6400000000000000000000000000000000000000606482015290519081900360840190fd5b600c54604051600091600160a060020a03169084908381818185875af1925050503d8060008114611166576040519150601f19603f3d011682016040523d82523d6000602084013e61116b565b606091505b505090508015156111ec576040805160e560020a62461bcd02815260206004820152603160248201527f4661696c656420746f2073656e642066756e647320746f20746865206175637460448201527f696f6e2066756e642073706c6974746572000000000000000000000000000000606482015290519081900360840190fd5b505050565b60008282111561124b576040805160e560020a62461bcd02815260206004820152601e60248201527f536166654d6174683a207375627472616374696f6e206f766572666c6f770000604482015290519081900360640190fd5b50900390565b600082151561126257506000610ffd565b82820282848281151561127157fe5b0414610ffa576040805160e560020a62461bcd02815260206004820152602160248201527f536166654d6174683a206d756c7469706c69636174696f6e206f766572666c6f60448201527f7700000000000000000000000000000000000000000000000000000000000000606482015290519081900360840190fd5b6000808211611346576040805160e560020a62461bcd02815260206004820152601a60248201527f536166654d6174683a206469766973696f6e206279207a65726f000000000000604482015290519081900360640190fd5b6000828481151561135357fe5b0494935050505056fe43616c6c6572206e6f742077686974656c697374656400000000000000000000a165627a7a723058204e4ecbfae0b0b24da1be295d7dad50522d64fe6b31c22284c6de52f13a4319410029",
  "source": "pragma solidity ^0.5.0;\n\nimport \"../TwistedAuction.sol\";\n\ncontract TwistedAuctionMock is TwistedAuction {\n    constructor(\n        ITwistedAccessControls _accessControls,\n        ITwistedTokenCreator _twistedTokenCreator,\n        TwistedAuctionFundSplitter _auctionFundSplitter,\n        address payable _printingFund,\n        uint256 _auctionStartTime\n    ) public TwistedAuction(_accessControls, _twistedTokenCreator, _auctionFundSplitter, _printingFund, _auctionStartTime) {}\n\n    function updateAuctionStartTime(uint256 _auctionStartTime) external isWhitelisted {\n        auctionStartTime = _auctionStartTime;\n    }\n\n    function updateCurrentRound(uint256 _currentRound) external isWhitelisted {\n        currentRound = _currentRound;\n    }\n}",
  "sourcePath": "/Users/vincentdealmeida/Projects/ts-contracts/contracts/mock/TwistedAuctionMock.sol",
  "compiler": {
    "name": "solc",
    "version": "0.5.0+commit.1d4f565a.Emscripten.clang"
  },
  "schemaVersion": "3.0.16",
  "updatedAt": "2019-09-23T16:07:12.431Z",
  "devdoc": {
    "methods": {}
  },
  "userdoc": {
    "methods": {}
  }
}