{
  "contractName": "TwistedSisterToken",
  "abi": [
    {
      "constant": true,
      "inputs": [
        {
          "name": "interfaceId",
          "type": "bytes4"
        }
      ],
      "name": "supportsInterface",
      "outputs": [
        {
          "name": "",
          "type": "bool"
        }
      ],
      "payable": false,
      "stateMutability": "view",
      "type": "function"
    },
    {
      "constant": true,
      "inputs": [],
      "name": "name",
      "outputs": [
        {
          "name": "",
          "type": "string"
        }
      ],
      "payable": false,
      "stateMutability": "view",
      "type": "function"
    },
    {
      "constant": true,
      "inputs": [
        {
          "name": "tokenId",
          "type": "uint256"
        }
      ],
      "name": "getApproved",
      "outputs": [
        {
          "name": "",
          "type": "address"
        }
      ],
      "payable": false,
      "stateMutability": "view",
      "type": "function"
    },
    {
      "constant": false,
      "inputs": [
        {
          "name": "to",
          "type": "address"
        },
        {
          "name": "tokenId",
          "type": "uint256"
        }
      ],
      "name": "approve",
      "outputs": [],
      "payable": false,
      "stateMutability": "nonpayable",
      "type": "function"
    },
    {
      "constant": true,
      "inputs": [],
      "name": "totalSupply",
      "outputs": [
        {
          "name": "",
          "type": "uint256"
        }
      ],
      "payable": false,
      "stateMutability": "view",
      "type": "function"
    },
    {
      "constant": false,
      "inputs": [
        {
          "name": "from",
          "type": "address"
        },
        {
          "name": "to",
          "type": "address"
        },
        {
          "name": "tokenId",
          "type": "uint256"
        }
      ],
      "name": "transferFrom",
      "outputs": [],
      "payable": false,
      "stateMutability": "nonpayable",
      "type": "function"
    },
    {
      "constant": true,
      "inputs": [
        {
          "name": "owner",
          "type": "address"
        },
        {
          "name": "index",
          "type": "uint256"
        }
      ],
      "name": "tokenOfOwnerByIndex",
      "outputs": [
        {
          "name": "",
          "type": "uint256"
        }
      ],
      "payable": false,
      "stateMutability": "view",
      "type": "function"
    },
    {
      "constant": true,
      "inputs": [],
      "name": "tokenIdPointer",
      "outputs": [
        {
          "name": "",
          "type": "uint256"
        }
      ],
      "payable": false,
      "stateMutability": "view",
      "type": "function"
    },
    {
      "constant": false,
      "inputs": [
        {
          "name": "from",
          "type": "address"
        },
        {
          "name": "to",
          "type": "address"
        },
        {
          "name": "tokenId",
          "type": "uint256"
        }
      ],
      "name": "safeTransferFrom",
      "outputs": [],
      "payable": false,
      "stateMutability": "nonpayable",
      "type": "function"
    },
    {
      "constant": true,
      "inputs": [],
      "name": "tokenBaseURI",
      "outputs": [
        {
          "name": "",
          "type": "string"
        }
      ],
      "payable": false,
      "stateMutability": "view",
      "type": "function"
    },
    {
      "constant": true,
      "inputs": [
        {
          "name": "index",
          "type": "uint256"
        }
      ],
      "name": "tokenByIndex",
      "outputs": [
        {
          "name": "",
          "type": "uint256"
        }
      ],
      "payable": false,
      "stateMutability": "view",
      "type": "function"
    },
    {
      "constant": true,
      "inputs": [
        {
          "name": "tokenId",
          "type": "uint256"
        }
      ],
      "name": "ownerOf",
      "outputs": [
        {
          "name": "",
          "type": "address"
        }
      ],
      "payable": false,
      "stateMutability": "view",
      "type": "function"
    },
    {
      "constant": true,
      "inputs": [
        {
          "name": "owner",
          "type": "address"
        }
      ],
      "name": "balanceOf",
      "outputs": [
        {
          "name": "",
          "type": "uint256"
        }
      ],
      "payable": false,
      "stateMutability": "view",
      "type": "function"
    },
    {
      "constant": true,
      "inputs": [],
      "name": "accessControls",
      "outputs": [
        {
          "name": "",
          "type": "address"
        }
      ],
      "payable": false,
      "stateMutability": "view",
      "type": "function"
    },
    {
      "constant": true,
      "inputs": [],
      "name": "symbol",
      "outputs": [
        {
          "name": "",
          "type": "string"
        }
      ],
      "payable": false,
      "stateMutability": "view",
      "type": "function"
    },
    {
      "constant": false,
      "inputs": [
        {
          "name": "to",
          "type": "address"
        },
        {
          "name": "approved",
          "type": "bool"
        }
      ],
      "name": "setApprovalForAll",
      "outputs": [],
      "payable": false,
      "stateMutability": "nonpayable",
      "type": "function"
    },
    {
      "constant": false,
      "inputs": [
        {
          "name": "from",
          "type": "address"
        },
        {
          "name": "to",
          "type": "address"
        },
        {
          "name": "tokenId",
          "type": "uint256"
        },
        {
          "name": "_data",
          "type": "bytes"
        }
      ],
      "name": "safeTransferFrom",
      "outputs": [],
      "payable": false,
      "stateMutability": "nonpayable",
      "type": "function"
    },
    {
      "constant": true,
      "inputs": [
        {
          "name": "owner",
          "type": "address"
        },
        {
          "name": "operator",
          "type": "address"
        }
      ],
      "name": "isApprovedForAll",
      "outputs": [
        {
          "name": "",
          "type": "bool"
        }
      ],
      "payable": false,
      "stateMutability": "view",
      "type": "function"
    },
    {
      "inputs": [
        {
          "name": "_tokenBaseURI",
          "type": "string"
        },
        {
          "name": "_accessControls",
          "type": "address"
        }
      ],
      "payable": false,
      "stateMutability": "nonpayable",
      "type": "constructor"
    },
    {
      "anonymous": false,
      "inputs": [
        {
          "indexed": true,
          "name": "_recipient",
          "type": "address"
        },
        {
          "indexed": true,
          "name": "_tokenId",
          "type": "uint256"
        }
      ],
      "name": "TwistMinted",
      "type": "event"
    },
    {
      "anonymous": false,
      "inputs": [
        {
          "indexed": true,
          "name": "from",
          "type": "address"
        },
        {
          "indexed": true,
          "name": "to",
          "type": "address"
        },
        {
          "indexed": true,
          "name": "tokenId",
          "type": "uint256"
        }
      ],
      "name": "Transfer",
      "type": "event"
    },
    {
      "anonymous": false,
      "inputs": [
        {
          "indexed": true,
          "name": "owner",
          "type": "address"
        },
        {
          "indexed": true,
          "name": "approved",
          "type": "address"
        },
        {
          "indexed": true,
          "name": "tokenId",
          "type": "uint256"
        }
      ],
      "name": "Approval",
      "type": "event"
    },
    {
      "anonymous": false,
      "inputs": [
        {
          "indexed": true,
          "name": "owner",
          "type": "address"
        },
        {
          "indexed": true,
          "name": "operator",
          "type": "address"
        },
        {
          "indexed": false,
          "name": "approved",
          "type": "bool"
        }
      ],
      "name": "ApprovalForAll",
      "type": "event"
    },
    {
      "constant": false,
      "inputs": [
        {
          "name": "_round",
          "type": "uint256"
        },
        {
          "name": "_parameter",
          "type": "uint256"
        },
        {
          "name": "_ipfsHash",
          "type": "string"
        },
        {
          "name": "_recipient",
          "type": "address"
        }
      ],
      "name": "createTwisted",
      "outputs": [
        {
          "name": "_tokenId",
          "type": "uint256"
        }
      ],
      "payable": false,
      "stateMutability": "nonpayable",
      "type": "function"
    },
    {
      "constant": true,
      "inputs": [
        {
          "name": "_tokenId",
          "type": "uint256"
        }
      ],
      "name": "attributes",
      "outputs": [
        {
          "name": "_round",
          "type": "uint256"
        },
        {
          "name": "_parameter",
          "type": "uint256"
        },
        {
          "name": "_ipfsUrl",
          "type": "string"
        }
      ],
      "payable": false,
      "stateMutability": "view",
      "type": "function"
    },
    {
      "constant": true,
      "inputs": [
        {
          "name": "_tokenId",
          "type": "uint256"
        }
      ],
      "name": "tokenURI",
      "outputs": [
        {
          "name": "",
          "type": "string"
        }
      ],
      "payable": false,
      "stateMutability": "view",
      "type": "function"
    },
    {
      "constant": true,
      "inputs": [
        {
          "name": "owner",
          "type": "address"
        }
      ],
      "name": "tokensOfOwner",
      "outputs": [
        {
          "name": "",
          "type": "uint256[]"
        }
      ],
      "payable": false,
      "stateMutability": "view",
      "type": "function"
    },
    {
      "constant": false,
      "inputs": [
        {
          "name": "_newBaseURI",
          "type": "string"
        }
      ],
      "name": "updateTokenBaseURI",
      "outputs": [],
      "payable": false,
      "stateMutability": "nonpayable",
      "type": "function"
    },
    {
      "constant": false,
      "inputs": [
        {
          "name": "_tokenId",
          "type": "uint256"
        },
        {
          "name": "_newIpfsHash",
          "type": "string"
        }
      ],
      "name": "updateIpfsHash",
      "outputs": [],
      "payable": false,
      "stateMutability": "nonpayable",
      "type": "function"
    }
  ],
  "bytecode": "0x60a06040819052600060808190526200001b91600c9162000319565b506000600d553480156200002e57600080fd5b50604051620028f7380380620028f7833981018060405260408110156200005457600080fd5b8101908080516401000000008111156200006d57600080fd5b820160208101848111156200008157600080fd5b81516401000000008111828201871017156200009c57600080fd5b5050602091820151604080518082018252600781527f5477697374656400000000000000000000000000000000000000000000000000818601528151808301909252600582527f54574953540000000000000000000000000000000000000000000000000000009482019490945291945092508181620001457f01ffc9a7000000000000000000000000000000000000000000000000000000006401000000006200024a810204565b620001797f80ac58cd000000000000000000000000000000000000000000000000000000006401000000006200024a810204565b620001ad7f780e9d63000000000000000000000000000000000000000000000000000000006401000000006200024a810204565b8151620001c290600990602085019062000319565b508051620001d890600a90602084019062000319565b506200020d7f5b5e139f000000000000000000000000000000000000000000000000000000006401000000006200024a810204565b5050600b8054600160a060020a031916600160a060020a038516179055505081516200024190600c90602085019062000319565b505050620003be565b7fffffffff000000000000000000000000000000000000000000000000000000008082161415620002dc57604080517f08c379a000000000000000000000000000000000000000000000000000000000815260206004820152601c60248201527f4552433136353a20696e76616c696420696e7465726661636520696400000000604482015290519081900360640190fd5b7fffffffff00000000000000000000000000000000000000000000000000000000166000908152602081905260409020805460ff19166001179055565b828054600181600116156101000203166002900490600052602060002090601f016020900481019282601f106200035c57805160ff19168380011785556200038c565b828001600101855582156200038c579182015b828111156200038c5782518255916020019190600101906200036f565b506200039a9291506200039e565b5090565b620003bb91905b808211156200039a5760008155600101620003a5565b90565b61252980620003ce6000396000f3fe60806040526004361061013d5763ffffffff7c010000000000000000000000000000000000000000000000000000000060003504166301ffc9a7811461014257806306fdde031461019f578063081812fc14610229578063095ea7b31461026f57806318160ddd146102aa5780632295ee5b146102d157806323b872dd1461034e5780632f745c5914610391578063309d5680146103ca5780633b3a1a7a1461045c57806342842e0e146104715780634e99b800146104b45780634f6ccce7146104c95780636352211e146104f357806370a082311461051d578063748365ef146105505780638462151c1461056557806395d89b41146105e85780639611c051146105fd578063a22cb46514610681578063b88d4fde146106bc578063c87b56dd1461078f578063d05dcc6a146107b9578063e985e9c514610869575b600080fd5b34801561014e57600080fd5b5061018b6004803603602081101561016557600080fd5b50357bffffffffffffffffffffffffffffffffffffffffffffffffffffffff19166108a4565b604080519115158252519081900360200190f35b3480156101ab57600080fd5b506101b46108d8565b6040805160208082528351818301528351919283929083019185019080838360005b838110156101ee5781810151838201526020016101d6565b50505050905090810190601f16801561021b5780820380516001836020036101000a031916815260200191505b509250505060405180910390f35b34801561023557600080fd5b506102536004803603602081101561024c57600080fd5b503561096f565b60408051600160a060020a039092168252519081900360200190f35b34801561027b57600080fd5b506102a86004803603604081101561029257600080fd5b50600160a060020a038135169060200135610a12565b005b3480156102b657600080fd5b506102bf610baa565b60408051918252519081900360200190f35b3480156102dd57600080fd5b506102a8600480360360208110156102f457600080fd5b81019060208101813564010000000081111561030f57600080fd5b82018360208201111561032157600080fd5b8035906020019184600183028401116401000000008311171561034357600080fd5b509092509050610bb0565b34801561035a57600080fd5b506102a86004803603606081101561037157600080fd5b50600160a060020a03813581169160208101359091169060400135610cfe565b34801561039d57600080fd5b506102bf600480360360408110156103b457600080fd5b50600160a060020a038135169060200135610d8f565b3480156103d657600080fd5b506102bf600480360360808110156103ed57600080fd5b81359160208101359181019060608101604082013564010000000081111561041457600080fd5b82018360208201111561042657600080fd5b8035906020019184600183028401116401000000008311171561044857600080fd5b919350915035600160a060020a0316610e4d565b34801561046857600080fd5b506102bf61101e565b34801561047d57600080fd5b506102a86004803603606081101561049457600080fd5b50600160a060020a03813581169160208101359091169060400135611024565b3480156104c057600080fd5b506101b4611040565b3480156104d557600080fd5b506102bf600480360360208110156104ec57600080fd5b50356110ce565b3480156104ff57600080fd5b506102536004803603602081101561051657600080fd5b5035611174565b34801561052957600080fd5b506102bf6004803603602081101561054057600080fd5b5035600160a060020a031661120f565b34801561055c57600080fd5b506102536112b8565b34801561057157600080fd5b506105986004803603602081101561058857600080fd5b5035600160a060020a03166112c7565b60408051602080825283518183015283519192839290830191858101910280838360005b838110156105d45781810151838201526020016105bc565b505050509050019250505060405180910390f35b3480156105f457600080fd5b506101b4611328565b34801561060957600080fd5b506102a86004803603604081101561062057600080fd5b8135919081019060408101602082013564010000000081111561064257600080fd5b82018360208201111561065457600080fd5b8035906020019184600183028401116401000000008311171561067657600080fd5b509092509050611389565b34801561068d57600080fd5b506102a8600480360360408110156106a457600080fd5b50600160a060020a0381351690602001351515611549565b3480156106c857600080fd5b506102a8600480360360808110156106df57600080fd5b600160a060020a0382358116926020810135909116916040820135919081019060808101606082013564010000000081111561071a57600080fd5b82018360208201111561072c57600080fd5b8035906020019184600183028401116401000000008311171561074e57600080fd5b91908080601f016020809104026020016040519081016040528093929190818152602001838380828437600092019190915250929550611618945050505050565b34801561079b57600080fd5b506101b4600480360360208110156107b257600080fd5b50356116b1565b3480156107c557600080fd5b506107e3600480360360208110156107dc57600080fd5b503561184c565b6040518084815260200183815260200180602001828103825283818151815260200191508051906020019080838360005b8381101561082c578181015183820152602001610814565b50505050905090810190601f1680156108595780820380516001836020036101000a031916815260200191505b5094505050505060405180910390f35b34801561087557600080fd5b5061018b6004803603604081101561088c57600080fd5b50600160a060020a03813581169160200135166119c9565b7bffffffffffffffffffffffffffffffffffffffffffffffffffffffff191660009081526020819052604090205460ff1690565b60098054604080516020601f60026000196101006001881615020190951694909404938401819004810282018101909252828152606093909290918301828280156109645780601f1061093957610100808354040283529160200191610964565b820191906000526020600020905b81548152906001019060200180831161094757829003601f168201915b505050505090505b90565b600061097a826119f7565b15156109f6576040805160e560020a62461bcd02815260206004820152602c60248201527f4552433732313a20617070726f76656420717565727920666f72206e6f6e657860448201527f697374656e7420746f6b656e0000000000000000000000000000000000000000606482015290519081900360840190fd5b50600090815260026020526040902054600160a060020a031690565b6000610a1d82611174565b9050600160a060020a038381169082161415610aa9576040805160e560020a62461bcd02815260206004820152602160248201527f4552433732313a20617070726f76616c20746f2063757272656e74206f776e6560448201527f7200000000000000000000000000000000000000000000000000000000000000606482015290519081900360840190fd5b33600160a060020a0382161480610ac55750610ac581336119c9565b1515610b41576040805160e560020a62461bcd02815260206004820152603860248201527f4552433732313a20617070726f76652063616c6c6572206973206e6f74206f7760448201527f6e6572206e6f7220617070726f76656420666f7220616c6c0000000000000000606482015290519081900360840190fd5b600082815260026020526040808220805473ffffffffffffffffffffffffffffffffffffffff1916600160a060020a0387811691821790925591518593918516917f8c5be1e5ebec7d5bd14f71427d1e84f3dd0314c0f7b2291e5b200ac8c7c3b92591a4505050565b60075490565b600b54604080517f3af32abf0000000000000000000000000000000000000000000000000000000081523360048201529051600160a060020a0390921691633af32abf91602480820192602092909190829003018186803b158015610c1457600080fd5b505afa158015610c28573d6000803e3d6000fd5b505050506040513d6020811015610c3e57600080fd5b50511515610c96576040805160e560020a62461bcd02815260206004820152601660248201527f43616c6c6572206e6f742077686974656c697374656400000000000000000000604482015290519081900360640190fd5b801515610ced576040805160e560020a62461bcd02815260206004820152601060248201527f426173652055524920696e76616c696400000000000000000000000000000000604482015290519081900360640190fd5b610cf9600c83836123d7565b505050565b610d083382611a14565b1515610d84576040805160e560020a62461bcd02815260206004820152603160248201527f4552433732313a207472616e736665722063616c6c6572206973206e6f74206f60448201527f776e6572206e6f7220617070726f766564000000000000000000000000000000606482015290519081900360840190fd5b610cf9838383611af9565b6000610d9a8361120f565b8210610e16576040805160e560020a62461bcd02815260206004820152602b60248201527f455243373231456e756d657261626c653a206f776e657220696e646578206f7560448201527f74206f6620626f756e6473000000000000000000000000000000000000000000606482015290519081900360840190fd5b600160a060020a0383166000908152600560205260409020805483908110610e3a57fe5b9060005260206000200154905092915050565b600b54604080517f3af32abf0000000000000000000000000000000000000000000000000000000081523360048201529051600092600160a060020a031691633af32abf916024808301926020929190829003018186803b158015610eb157600080fd5b505afa158015610ec5573d6000803e3d6000fd5b505050506040513d6020811015610edb57600080fd5b50511515610f33576040805160e560020a62461bcd02815260206004820152601660248201527f43616c6c6572206e6f742077686974656c697374656400000000000000000000604482015290519081900360640190fd5b600d54610f4790600163ffffffff611b1816565b600d8190556040805160608101825288815260208082018990528251601f8801829004820281018201845287815291928301919088908890819084018382808284376000920182905250939094525050838152600e602090815260409182902084518155848201516001820155918401518051929350610fd09260028501929190910190612455565b50905050610fde8382611b75565b6040518190600160a060020a038516907f2feda9071495da20047859acf6710a8c42a8198da4ce96ad26eed97313c7880890600090a39695505050505050565b600d5481565b610cf98383836020604051908101604052806000815250611618565b600c805460408051602060026001851615610100026000190190941693909304601f810184900484028201840190925281815292918301828280156110c65780601f1061109b576101008083540402835291602001916110c6565b820191906000526020600020905b8154815290600101906020018083116110a957829003601f168201915b505050505081565b60006110d8610baa565b8210611154576040805160e560020a62461bcd02815260206004820152602c60248201527f455243373231456e756d657261626c653a20676c6f62616c20696e646578206f60448201527f7574206f6620626f756e64730000000000000000000000000000000000000000606482015290519081900360840190fd5b600780548390811061116257fe5b90600052602060002001549050919050565b600081815260016020526040812054600160a060020a0316801515611209576040805160e560020a62461bcd02815260206004820152602960248201527f4552433732313a206f776e657220717565727920666f72206e6f6e657869737460448201527f656e7420746f6b656e0000000000000000000000000000000000000000000000606482015290519081900360840190fd5b92915050565b6000600160a060020a0382161515611297576040805160e560020a62461bcd02815260206004820152602a60248201527f4552433732313a2062616c616e636520717565727920666f7220746865207a6560448201527f726f206164647265737300000000000000000000000000000000000000000000606482015290519081900360840190fd5b600160a060020a038216600090815260036020526040902061120990611b96565b600b54600160a060020a031681565b60606112d282611b9a565b80548060200260200160405190810160405280929190818152602001828054801561131c57602002820191906000526020600020905b815481526020019060010190808311611308575b50505050509050919050565b600a8054604080516020601f60026000196101006001881615020190951694909404938401819004810282018101909252828152606093909290918301828280156109645780601f1061093957610100808354040283529160200191610964565b600b54604080517f3af32abf0000000000000000000000000000000000000000000000000000000081523360048201529051600160a060020a0390921691633af32abf91602480820192602092909190829003018186803b1580156113ed57600080fd5b505afa158015611401573d6000803e3d6000fd5b505050506040513d602081101561141757600080fd5b5051151561146f576040805160e560020a62461bcd02815260206004820152601660248201527f43616c6c6572206e6f742077686974656c697374656400000000000000000000604482015290519081900360640190fd5b82611479816119f7565b15156114cf576040805160e560020a62461bcd02815260206004820152601660248201527f546f6b656e206e6f7420666f756e6420666f7220494400000000000000000000604482015290519081900360640190fd5b811515611526576040805160e560020a62461bcd02815260206004820152601560248201527f4e65772049504653206861736820696e76616c69640000000000000000000000604482015290519081900360640190fd5b6000848152600e602052604090206115429060020184846123d7565b5050505050565b600160a060020a0382163314156115aa576040805160e560020a62461bcd02815260206004820152601960248201527f4552433732313a20617070726f766520746f2063616c6c657200000000000000604482015290519081900360640190fd5b336000818152600460209081526040808320600160a060020a03871680855290835292819020805460ff1916861515908117909155815190815290519293927f17307eab39ab6107e8899845ad3d59bd9653f200f220920489ca2b5937696c31929181900390910190a35050565b611623848484610cfe565b61162f84848484611bb4565b15156116ab576040805160e560020a62461bcd02815260206004820152603260248201527f4552433732313a207472616e7366657220746f206e6f6e20455243373231526560448201527f63656976657220696d706c656d656e7465720000000000000000000000000000606482015290519081900360840190fd5b50505050565b6060816116bd816119f7565b1515611713576040805160e560020a62461bcd02815260206004820152601660248201527f546f6b656e206e6f7420666f756e6420666f7220494400000000000000000000604482015290519081900360640190fd5b600c8054604080516020601f6002600019610100600188161502019095169490940493840181900481028201810190925282815261184593909290918301828280156117a05780601f10611775576101008083540402835291602001916117a0565b820191906000526020600020905b81548152906001019060200180831161178357829003601f168201915b5050506000878152600e60209081526040918290206002908101805484516001821615610100026000190190911692909204601f8101849004840283018401909452838252909450925083018282801561183b5780601f106118105761010080835404028352916020019161183b565b820191906000526020600020905b81548152906001019060200180831161181e57829003601f168201915b5050505050611d30565b9392505050565b60008060608361185b816119f7565b15156118b1576040805160e560020a62461bcd02815260206004820152601660248201527f546f6b656e206e6f7420666f756e6420666f7220494400000000000000000000604482015290519081900360640190fd5b6000858152600e60209081526040918290208054600180830154600c80548751600294821615610100026000190190911693909304601f81018790048702840187019097528683529395929490936119ba9390918301828280156119565780601f1061192b57610100808354040283529160200191611956565b820191906000526020600020905b81548152906001019060200180831161193957829003601f168201915b50505060028088018054604080516020601f600019610100600187161502019094169590950492830185900485028101850190915281815294509092509083018282801561183b5780601f106118105761010080835404028352916020019161183b565b94509450945050509193909250565b600160a060020a03918216600090815260046020908152604080832093909416825291909152205460ff1690565b600090815260016020526040902054600160a060020a0316151590565b6000611a1f826119f7565b1515611a9b576040805160e560020a62461bcd02815260206004820152602c60248201527f4552433732313a206f70657261746f7220717565727920666f72206e6f6e657860448201527f697374656e7420746f6b656e0000000000000000000000000000000000000000606482015290519081900360840190fd5b6000611aa683611174565b905080600160a060020a031684600160a060020a03161480611ae1575083600160a060020a0316611ad68461096f565b600160a060020a0316145b80611af15750611af181856119c9565b949350505050565b611b04838383611d3c565b611b0e8382611f0c565b610cf98282611ffc565b600082820183811015611845576040805160e560020a62461bcd02815260206004820152601b60248201527f536166654d6174683a206164646974696f6e206f766572666c6f770000000000604482015290519081900360640190fd5b611b7f828261203a565b611b898282611ffc565b611b9281612180565b5050565b5490565b600160a060020a0316600090815260056020526040902090565b6000611bc884600160a060020a03166121c4565b1515611bd657506001611af1565b6040517f150b7a020000000000000000000000000000000000000000000000000000000081523360048201818152600160a060020a03888116602485015260448401879052608060648501908152865160848601528651600095928a169463150b7a029490938c938b938b939260a4019060208501908083838e5b83811015611c69578181015183820152602001611c51565b50505050905090810190601f168015611c965780820380516001836020036101000a031916815260200191505b5095505050505050602060405180830381600087803b158015611cb857600080fd5b505af1158015611ccc573d6000803e3d6000fd5b505050506040513d6020811015611ce257600080fd5b50517bffffffffffffffffffffffffffffffffffffffffffffffffffffffff19167f150b7a020000000000000000000000000000000000000000000000000000000014915050949350505050565b606061184583836121cc565b82600160a060020a0316611d4f82611174565b600160a060020a031614611dd3576040805160e560020a62461bcd02815260206004820152602960248201527f4552433732313a207472616e73666572206f6620746f6b656e2074686174206960448201527f73206e6f74206f776e0000000000000000000000000000000000000000000000606482015290519081900360840190fd5b600160a060020a0382161515611e58576040805160e560020a62461bcd028152602060048201526024808201527f4552433732313a207472616e7366657220746f20746865207a65726f2061646460448201527f7265737300000000000000000000000000000000000000000000000000000000606482015290519081900360840190fd5b611e618161230d565b600160a060020a0383166000908152600360205260409020611e8290612357565b600160a060020a0382166000908152600360205260409020611ea39061236e565b600081815260016020526040808220805473ffffffffffffffffffffffffffffffffffffffff1916600160a060020a0386811691821790925591518493918716917fddf252ad1be2c89b69c2b068fc378daa952ba7f163c4a11628f55a4df523b3ef91a4505050565b600160a060020a038216600090815260056020526040812054611f3690600163ffffffff61237716565b600083815260066020526040902054909150808214611fd357600160a060020a0384166000908152600560205260408120805484908110611f7357fe5b90600052602060002001549050806005600087600160a060020a0316600160a060020a0316815260200190815260200160002083815481101515611fb357fe5b600091825260208083209091019290925591825260069052604090208190555b600160a060020a03841660009081526005602052604090208054906115429060001983016124c3565b600160a060020a0390911660009081526005602081815260408084208054868652600684529185208290559282526001810183559183529091200155565b600160a060020a038216151561209a576040805160e560020a62461bcd02815260206004820181905260248201527f4552433732313a206d696e7420746f20746865207a65726f2061646472657373604482015290519081900360640190fd5b6120a3816119f7565b156120f8576040805160e560020a62461bcd02815260206004820152601c60248201527f4552433732313a20746f6b656e20616c7265616479206d696e74656400000000604482015290519081900360640190fd5b6000818152600160209081526040808320805473ffffffffffffffffffffffffffffffffffffffff1916600160a060020a0387169081179091558352600390915290206121449061236e565b6040518190600160a060020a038416906000907fddf252ad1be2c89b69c2b068fc378daa952ba7f163c4a11628f55a4df523b3ef908290a45050565b600780546000838152600860205260408120829055600182018355919091527fa66cc928b5edb82af9bd49922954155ab7b0942694bea4ce44661d9a8736c6880155565b6000903b1190565b6060808390506060839050606081518351016040519080825280601f01601f191660200182016040528015612208576020820181803883390190505b509050806000805b855181101561228657858181518110151561222757fe5b90602001015160f860020a900460f860020a02838380600101945081518110151561224e57fe5b9060200101907effffffffffffffffffffffffffffffffffffffffffffffffffffffffffffff1916908160001a905350600101612210565b5060005b84518110156123005784818151811015156122a157fe5b90602001015160f860020a900460f860020a0283838060010194508151811015156122c857fe5b9060200101907effffffffffffffffffffffffffffffffffffffffffffffffffffffffffffff1916908160001a90535060010161228a565b5090979650505050505050565b600081815260026020526040902054600160a060020a031615612354576000818152600260205260409020805473ffffffffffffffffffffffffffffffffffffffff191690555b50565b805461236a90600163ffffffff61237716565b9055565b80546001019055565b6000828211156123d1576040805160e560020a62461bcd02815260206004820152601e60248201527f536166654d6174683a207375627472616374696f6e206f766572666c6f770000604482015290519081900360640190fd5b50900390565b828054600181600116156101000203166002900490600052602060002090601f016020900481019282601f106124185782800160ff19823516178555612445565b82800160010185558215612445579182015b8281111561244557823582559160200191906001019061242a565b506124519291506124e3565b5090565b828054600181600116156101000203166002900490600052602060002090601f016020900481019282601f1061249657805160ff1916838001178555612445565b82800160010185558215612445579182015b828111156124455782518255916020019190600101906124a8565b815481835581811115610cf957600083815260209020610cf99181019083015b61096c91905b8082111561245157600081556001016124e956fea165627a7a72305820f9d28ea020dea5ae8a69f3f5114836d3fd4f57e5bad58b879c0d2049ddab31cb0029",
  "source": "pragma solidity ^0.5.0;\n\nimport \"@openzeppelin/contracts/math/SafeMath.sol\";\n\nimport \"../libs/Strings.sol\";\nimport \"../interfaces/erc721/CustomERC721Full.sol\";\nimport \"../interfaces/ITwistedTokenCreator.sol\";\nimport \"../interfaces/ITwistedAccessControls.sol\";\n\n\ncontract TwistedSisterToken is CustomERC721Full, ITwistedTokenCreator {\n    using SafeMath for uint256;\n\n    ITwistedAccessControls public accessControls;\n\n    string public tokenBaseURI = \"\";\n\n    event TwistMinted(\n        address indexed _recipient,\n        uint256 indexed _tokenId\n    );\n\n    struct Twist {\n        uint256 round;\n        uint256 parameter;\n        string ipfsHash;\n    }\n\n    uint256 public tokenIdPointer = 0;\n\n    mapping(uint256 => Twist) internal twists;\n\n    modifier isWhitelisted() {\n        require(accessControls.isWhitelisted(msg.sender), \"Caller not whitelisted\");\n        _;\n    }\n\n    modifier onlyWhenTokenExists(uint256 _tokenId) {\n        require(_exists(_tokenId), \"Token not found for ID\");\n        _;\n    }\n\n    constructor (string memory _tokenBaseURI, ITwistedAccessControls _accessControls) public CustomERC721Full(\"Twisted\", \"TWIST\") {\n        accessControls = _accessControls;\n        tokenBaseURI = _tokenBaseURI;\n    }\n\n    function createTwisted(\n        uint256 _round,\n        uint256 _parameter,\n        string calldata _ipfsHash,\n        address _recipient\n    ) external isWhitelisted returns (uint256 _tokenId) {\n        tokenIdPointer = tokenIdPointer.add(1);\n        uint256 tokenId = tokenIdPointer;\n\n        // Create Twist metadata\n        twists[tokenId] = Twist({\n            round: _round,\n            parameter: _parameter,\n            ipfsHash: _ipfsHash\n        });\n\n        _mint(_recipient, tokenId);\n\n        emit TwistMinted(_recipient, tokenId);\n\n        return tokenId;\n    }\n\n    function attributes(uint256 _tokenId) external onlyWhenTokenExists(_tokenId) view returns (\n        uint256 _round,\n        uint256 _parameter,\n        string memory _ipfsUrl\n    ) {\n        Twist storage twist = twists[_tokenId];\n        return (\n            twist.round,\n            twist.parameter,\n            Strings.strConcat(tokenBaseURI, twist.ipfsHash)\n        );\n    }\n\n    function tokenURI(uint256 _tokenId) external onlyWhenTokenExists(_tokenId) view returns (string memory) {\n        return Strings.strConcat(tokenBaseURI, twists[_tokenId].ipfsHash);\n    }\n\n    function tokensOfOwner(address owner) external view returns (uint256[] memory) {\n        return _tokensOfOwner(owner);\n    }\n\n    function updateTokenBaseURI(string calldata _newBaseURI) external isWhitelisted {\n        require(bytes(_newBaseURI).length != 0, \"Base URI invalid\");\n        tokenBaseURI = _newBaseURI;\n    }\n\n    function updateIpfsHash(uint256 _tokenId, string calldata _newIpfsHash) external isWhitelisted onlyWhenTokenExists(_tokenId) {\n        require(bytes(_newIpfsHash).length != 0, \"New IPFS hash invalid\");\n        twists[_tokenId].ipfsHash = _newIpfsHash;\n    }\n}\n",
  "sourcePath": "/Users/vincentdealmeida/Projects/ts-contracts/contracts/token/TwistedSisterToken.sol",
  "compiler": {
    "name": "solc",
    "version": "0.5.0+commit.1d4f565a.Emscripten.clang"
  },
  "schemaVersion": "3.0.16",
  "updatedAt": "2019-09-27T08:18:58.312Z",
  "devdoc": {
    "methods": {
      "approve(address,uint256)": {
        "details": "Approves another address to transfer the given token ID The zero address indicates there is no approved address. There can only be one approved address per token at a given time. Can only be called by the token owner or an approved operator.",
        "params": {
          "to": "address to be approved for the given token ID",
          "tokenId": "uint256 ID of the token to be approved"
        }
      },
      "balanceOf(address)": {
        "details": "Gets the balance of the specified address.",
        "params": {
          "owner": "address to query the balance of"
        },
        "return": "uint256 representing the amount owned by the passed address"
      },
      "getApproved(uint256)": {
        "details": "Gets the approved address for a token ID, or zero if no address set Reverts if the token ID does not exist.",
        "params": {
          "tokenId": "uint256 ID of the token to query the approval of"
        },
        "return": "address currently approved for the given token ID"
      },
      "isApprovedForAll(address,address)": {
        "details": "Tells whether an operator is approved by a given owner.",
        "params": {
          "operator": "operator address which you want to query the approval of",
          "owner": "owner address which you want to query the approval of"
        },
        "return": "bool whether the given operator is approved by the given owner"
      },
      "name()": {
        "details": "Gets the token name.",
        "return": "string representing the token name"
      },
      "ownerOf(uint256)": {
        "details": "Gets the owner of the specified token ID.",
        "params": {
          "tokenId": "uint256 ID of the token to query the owner of"
        },
        "return": "address currently marked as the owner of the given token ID"
      },
      "safeTransferFrom(address,address,uint256)": {
        "details": "Safely transfers the ownership of a given token ID to another address If the target address is a contract, it must implement `onERC721Received`, which is called upon a safe transfer, and return the magic value `bytes4(keccak256(\"onERC721Received(address,address,uint256,bytes)\"))`; otherwise, the transfer is reverted. Requires the msg.sender to be the owner, approved, or operator",
        "params": {
          "from": "current owner of the token",
          "to": "address to receive the ownership of the given token ID",
          "tokenId": "uint256 ID of the token to be transferred"
        }
      },
      "safeTransferFrom(address,address,uint256,bytes)": {
        "details": "Safely transfers the ownership of a given token ID to another address If the target address is a contract, it must implement `onERC721Received`, which is called upon a safe transfer, and return the magic value `bytes4(keccak256(\"onERC721Received(address,address,uint256,bytes)\"))`; otherwise, the transfer is reverted. Requires the msg.sender to be the owner, approved, or operator",
        "params": {
          "_data": "bytes data to send along with a safe transfer check",
          "from": "current owner of the token",
          "to": "address to receive the ownership of the given token ID",
          "tokenId": "uint256 ID of the token to be transferred"
        }
      },
      "setApprovalForAll(address,bool)": {
        "details": "Sets or unsets the approval of a given operator An operator is allowed to transfer all tokens of the sender on their behalf.",
        "params": {
          "approved": "representing the status of the approval to be set",
          "to": "operator address to set the approval"
        }
      },
      "supportsInterface(bytes4)": {
        "details": "See `IERC165.supportsInterface`.     * Time complexity O(1), guaranteed to always use less than 30 000 gas."
      },
      "symbol()": {
        "details": "Gets the token symbol.",
        "return": "string representing the token symbol"
      },
      "tokenByIndex(uint256)": {
        "details": "Gets the token ID at a given index of all the tokens in this contract Reverts if the index is greater or equal to the total number of tokens.",
        "params": {
          "index": "uint256 representing the index to be accessed of the tokens list"
        },
        "return": "uint256 token ID at the given index of the tokens list"
      },
      "tokenOfOwnerByIndex(address,uint256)": {
        "details": "Gets the token ID at a given index of the tokens list of the requested owner.",
        "params": {
          "index": "uint256 representing the index to be accessed of the requested tokens list",
          "owner": "address owning the tokens list to be accessed"
        },
        "return": "uint256 token ID at the given index of the tokens list owned by the requested address"
      },
      "totalSupply()": {
        "details": "Gets the total amount of tokens stored by the contract.",
        "return": "uint256 representing the total amount of tokens"
      },
      "transferFrom(address,address,uint256)": {
        "details": "Transfers the ownership of a given token ID to another address. Usage of this method is discouraged, use `safeTransferFrom` whenever possible. Requires the msg.sender to be the owner, approved, or operator.",
        "params": {
          "from": "current owner of the token",
          "to": "address to receive the ownership of the given token ID",
          "tokenId": "uint256 ID of the token to be transferred"
        }
      }
    }
  },
  "userdoc": {
    "methods": {}
  }
}