{
  "contractName": "TwistedSisterToken",
  "abi": [
    {
      "constant": true,
      "inputs": [
        {
          "name": "interfaceId",
          "type": "bytes4"
        }
      ],
      "name": "supportsInterface",
      "outputs": [
        {
          "name": "",
          "type": "bool"
        }
      ],
      "payable": false,
      "stateMutability": "view",
      "type": "function"
    },
    {
      "constant": true,
      "inputs": [],
      "name": "name",
      "outputs": [
        {
          "name": "",
          "type": "string"
        }
      ],
      "payable": false,
      "stateMutability": "view",
      "type": "function"
    },
    {
      "constant": true,
      "inputs": [
        {
          "name": "tokenId",
          "type": "uint256"
        }
      ],
      "name": "getApproved",
      "outputs": [
        {
          "name": "",
          "type": "address"
        }
      ],
      "payable": false,
      "stateMutability": "view",
      "type": "function"
    },
    {
      "constant": false,
      "inputs": [
        {
          "name": "to",
          "type": "address"
        },
        {
          "name": "tokenId",
          "type": "uint256"
        }
      ],
      "name": "approve",
      "outputs": [],
      "payable": false,
      "stateMutability": "nonpayable",
      "type": "function"
    },
    {
      "constant": true,
      "inputs": [],
      "name": "totalSupply",
      "outputs": [
        {
          "name": "",
          "type": "uint256"
        }
      ],
      "payable": false,
      "stateMutability": "view",
      "type": "function"
    },
    {
      "constant": true,
      "inputs": [
        {
          "name": "owner",
          "type": "address"
        },
        {
          "name": "index",
          "type": "uint256"
        }
      ],
      "name": "tokenOfOwnerByIndex",
      "outputs": [
        {
          "name": "",
          "type": "uint256"
        }
      ],
      "payable": false,
      "stateMutability": "view",
      "type": "function"
    },
    {
      "constant": true,
      "inputs": [],
      "name": "tokenIdPointer",
      "outputs": [
        {
          "name": "",
          "type": "uint256"
        }
      ],
      "payable": false,
      "stateMutability": "view",
      "type": "function"
    },
    {
      "constant": false,
      "inputs": [
        {
          "name": "from",
          "type": "address"
        },
        {
          "name": "to",
          "type": "address"
        },
        {
          "name": "tokenId",
          "type": "uint256"
        }
      ],
      "name": "safeTransferFrom",
      "outputs": [],
      "payable": false,
      "stateMutability": "nonpayable",
      "type": "function"
    },
    {
      "constant": true,
      "inputs": [],
      "name": "tokenBaseURI",
      "outputs": [
        {
          "name": "",
          "type": "string"
        }
      ],
      "payable": false,
      "stateMutability": "view",
      "type": "function"
    },
    {
      "constant": true,
      "inputs": [
        {
          "name": "index",
          "type": "uint256"
        }
      ],
      "name": "tokenByIndex",
      "outputs": [
        {
          "name": "",
          "type": "uint256"
        }
      ],
      "payable": false,
      "stateMutability": "view",
      "type": "function"
    },
    {
      "constant": true,
      "inputs": [
        {
          "name": "tokenId",
          "type": "uint256"
        }
      ],
      "name": "ownerOf",
      "outputs": [
        {
          "name": "",
          "type": "address"
        }
      ],
      "payable": false,
      "stateMutability": "view",
      "type": "function"
    },
    {
      "constant": true,
      "inputs": [
        {
          "name": "owner",
          "type": "address"
        }
      ],
      "name": "balanceOf",
      "outputs": [
        {
          "name": "",
          "type": "uint256"
        }
      ],
      "payable": false,
      "stateMutability": "view",
      "type": "function"
    },
    {
      "constant": true,
      "inputs": [],
      "name": "accessControls",
      "outputs": [
        {
          "name": "",
          "type": "address"
        }
      ],
      "payable": false,
      "stateMutability": "view",
      "type": "function"
    },
    {
      "constant": true,
      "inputs": [],
      "name": "symbol",
      "outputs": [
        {
          "name": "",
          "type": "string"
        }
      ],
      "payable": false,
      "stateMutability": "view",
      "type": "function"
    },
    {
      "constant": false,
      "inputs": [
        {
          "name": "to",
          "type": "address"
        },
        {
          "name": "approved",
          "type": "bool"
        }
      ],
      "name": "setApprovalForAll",
      "outputs": [],
      "payable": false,
      "stateMutability": "nonpayable",
      "type": "function"
    },
    {
      "constant": false,
      "inputs": [
        {
          "name": "from",
          "type": "address"
        },
        {
          "name": "to",
          "type": "address"
        },
        {
          "name": "tokenId",
          "type": "uint256"
        },
        {
          "name": "_data",
          "type": "bytes"
        }
      ],
      "name": "safeTransferFrom",
      "outputs": [],
      "payable": false,
      "stateMutability": "nonpayable",
      "type": "function"
    },
    {
      "constant": true,
      "inputs": [
        {
          "name": "owner",
          "type": "address"
        },
        {
          "name": "operator",
          "type": "address"
        }
      ],
      "name": "isApprovedForAll",
      "outputs": [
        {
          "name": "",
          "type": "bool"
        }
      ],
      "payable": false,
      "stateMutability": "view",
      "type": "function"
    },
    {
      "constant": true,
      "inputs": [],
      "name": "transfersEnabledFrom",
      "outputs": [
        {
          "name": "",
          "type": "uint256"
        }
      ],
      "payable": false,
      "stateMutability": "view",
      "type": "function"
    },
    {
      "inputs": [
        {
          "name": "_tokenBaseURI",
          "type": "string"
        },
        {
          "name": "_accessControls",
          "type": "address"
        },
        {
          "name": "_transfersEnabledFrom",
          "type": "uint256"
        }
      ],
      "payable": false,
      "stateMutability": "nonpayable",
      "type": "constructor"
    },
    {
      "anonymous": false,
      "inputs": [
        {
          "indexed": true,
          "name": "_recipient",
          "type": "address"
        },
        {
          "indexed": true,
          "name": "_tokenId",
          "type": "uint256"
        }
      ],
      "name": "TwistMinted",
      "type": "event"
    },
    {
      "anonymous": false,
      "inputs": [
        {
          "indexed": true,
          "name": "from",
          "type": "address"
        },
        {
          "indexed": true,
          "name": "to",
          "type": "address"
        },
        {
          "indexed": true,
          "name": "tokenId",
          "type": "uint256"
        }
      ],
      "name": "Transfer",
      "type": "event"
    },
    {
      "anonymous": false,
      "inputs": [
        {
          "indexed": true,
          "name": "owner",
          "type": "address"
        },
        {
          "indexed": true,
          "name": "approved",
          "type": "address"
        },
        {
          "indexed": true,
          "name": "tokenId",
          "type": "uint256"
        }
      ],
      "name": "Approval",
      "type": "event"
    },
    {
      "anonymous": false,
      "inputs": [
        {
          "indexed": true,
          "name": "owner",
          "type": "address"
        },
        {
          "indexed": true,
          "name": "operator",
          "type": "address"
        },
        {
          "indexed": false,
          "name": "approved",
          "type": "bool"
        }
      ],
      "name": "ApprovalForAll",
      "type": "event"
    },
    {
      "constant": false,
      "inputs": [
        {
          "name": "_round",
          "type": "uint256"
        },
        {
          "name": "_parameter",
          "type": "uint256"
        },
        {
          "name": "_ipfsHash",
          "type": "string"
        },
        {
          "name": "_recipient",
          "type": "address"
        }
      ],
      "name": "createTwisted",
      "outputs": [
        {
          "name": "_tokenId",
          "type": "uint256"
        }
      ],
      "payable": false,
      "stateMutability": "nonpayable",
      "type": "function"
    },
    {
      "constant": true,
      "inputs": [
        {
          "name": "_tokenId",
          "type": "uint256"
        }
      ],
      "name": "attributes",
      "outputs": [
        {
          "name": "_round",
          "type": "uint256"
        },
        {
          "name": "_parameter",
          "type": "uint256"
        },
        {
          "name": "_ipfsUrl",
          "type": "string"
        }
      ],
      "payable": false,
      "stateMutability": "view",
      "type": "function"
    },
    {
      "constant": true,
      "inputs": [
        {
          "name": "_tokenId",
          "type": "uint256"
        }
      ],
      "name": "tokenURI",
      "outputs": [
        {
          "name": "",
          "type": "string"
        }
      ],
      "payable": false,
      "stateMutability": "view",
      "type": "function"
    },
    {
      "constant": true,
      "inputs": [
        {
          "name": "owner",
          "type": "address"
        }
      ],
      "name": "tokensOfOwner",
      "outputs": [
        {
          "name": "",
          "type": "uint256[]"
        }
      ],
      "payable": false,
      "stateMutability": "view",
      "type": "function"
    },
    {
      "constant": false,
      "inputs": [
        {
          "name": "from",
          "type": "address"
        },
        {
          "name": "to",
          "type": "address"
        },
        {
          "name": "tokenId",
          "type": "uint256"
        }
      ],
      "name": "transferFrom",
      "outputs": [],
      "payable": false,
      "stateMutability": "nonpayable",
      "type": "function"
    },
    {
      "constant": false,
      "inputs": [
        {
          "name": "_transfersEnabledFrom",
          "type": "uint256"
        }
      ],
      "name": "updateTransfersEnabledFrom",
      "outputs": [],
      "payable": false,
      "stateMutability": "nonpayable",
      "type": "function"
    },
    {
      "constant": false,
      "inputs": [
        {
          "name": "_newBaseURI",
          "type": "string"
        }
      ],
      "name": "updateTokenBaseURI",
      "outputs": [],
      "payable": false,
      "stateMutability": "nonpayable",
      "type": "function"
    },
    {
      "constant": false,
      "inputs": [
        {
          "name": "_tokenId",
          "type": "uint256"
        },
        {
          "name": "_newIpfsHash",
          "type": "string"
        }
      ],
      "name": "updateIpfsHash",
      "outputs": [],
      "payable": false,
      "stateMutability": "nonpayable",
      "type": "function"
    }
  ],
  "bytecode": "0x60a06040819052600060808190526200001b91600c9162000323565b506000600d553480156200002e57600080fd5b5060405162002a2438038062002a24833981018060405260608110156200005457600080fd5b8101908080516401000000008111156200006d57600080fd5b820160208101848111156200008157600080fd5b81516401000000008111828201871017156200009c57600080fd5b505060208083015160409384015184518086018652600781527f5477697374656400000000000000000000000000000000000000000000000000818501528551808701909652600586527f5457495354000000000000000000000000000000000000000000000000000000938601939093529295509350909181816200014b7f01ffc9a70000000000000000000000000000000000000000000000000000000064010000000062000254810204565b6200017f7f80ac58cd0000000000000000000000000000000000000000000000000000000064010000000062000254810204565b620001b37f780e9d630000000000000000000000000000000000000000000000000000000064010000000062000254810204565b8151620001c890600990602085019062000323565b508051620001de90600a90602084019062000323565b50620002137f5b5e139f0000000000000000000000000000000000000000000000000000000064010000000062000254810204565b5050600b8054600160a060020a031916600160a060020a038616179055505082516200024790600c90602086019062000323565b50600e5550620003c89050565b7fffffffff000000000000000000000000000000000000000000000000000000008082161415620002e657604080517f08c379a000000000000000000000000000000000000000000000000000000000815260206004820152601c60248201527f4552433136353a20696e76616c696420696e7465726661636520696400000000604482015290519081900360640190fd5b7fffffffff00000000000000000000000000000000000000000000000000000000166000908152602081905260409020805460ff19166001179055565b828054600181600116156101000203166002900490600052602060002090601f016020900481019282601f106200036657805160ff191683800117855562000396565b8280016001018555821562000396579182015b828111156200039657825182559160200191906001019062000379565b50620003a4929150620003a8565b5090565b620003c591905b80821115620003a45760008155600101620003af565b90565b61264c80620003d86000396000f3fe6080604052600436106101535763ffffffff7c010000000000000000000000000000000000000000000000000000000060003504166301ffc9a7811461015857806306fdde03146101b5578063081812fc1461023f578063095ea7b31461028557806318160ddd146102c05780632295ee5b146102e757806323b872dd146103645780632f745c59146103a7578063309d5680146103e05780633b3a1a7a1461047257806342842e0e146104875780634e99b800146104ca5780634f6ccce7146104df5780634fd774cd146105095780636352211e1461053357806370a082311461055d578063748365ef146105905780638462151c146105a557806395d89b41146106285780639611c0511461063d578063a22cb465146106c1578063b88d4fde146106fc578063c87b56dd146107cf578063d05dcc6a146107f9578063e985e9c5146108a9578063e9bf24af146108e4575b600080fd5b34801561016457600080fd5b506101a16004803603602081101561017b57600080fd5b50357bffffffffffffffffffffffffffffffffffffffffffffffffffffffff19166108f9565b604080519115158252519081900360200190f35b3480156101c157600080fd5b506101ca61092d565b6040805160208082528351818301528351919283929083019185019080838360005b838110156102045781810151838201526020016101ec565b50505050905090810190601f1680156102315780820380516001836020036101000a031916815260200191505b509250505060405180910390f35b34801561024b57600080fd5b506102696004803603602081101561026257600080fd5b50356109c4565b60408051600160a060020a039092168252519081900360200190f35b34801561029157600080fd5b506102be600480360360408110156102a857600080fd5b50600160a060020a038135169060200135610a67565b005b3480156102cc57600080fd5b506102d5610bff565b60408051918252519081900360200190f35b3480156102f357600080fd5b506102be6004803603602081101561030a57600080fd5b81019060208101813564010000000081111561032557600080fd5b82018360208201111561033757600080fd5b8035906020019184600183028401116401000000008311171561035957600080fd5b509092509050610c05565b34801561037057600080fd5b506102be6004803603606081101561038757600080fd5b50600160a060020a03813581169160208101359091169060400135610d2b565b3480156103b357600080fd5b506102d5600480360360408110156103ca57600080fd5b50600160a060020a038135169060200135610d8f565b3480156103ec57600080fd5b506102d56004803603608081101561040357600080fd5b81359160208101359181019060608101604082013564010000000081111561042a57600080fd5b82018360208201111561043c57600080fd5b8035906020019184600183028401116401000000008311171561045e57600080fd5b919350915035600160a060020a0316610e4d565b34801561047e57600080fd5b506102d5610ff6565b34801561049357600080fd5b506102be600480360360608110156104aa57600080fd5b50600160a060020a03813581169160208101359091169060400135610ffc565b3480156104d657600080fd5b506101ca611018565b3480156104eb57600080fd5b506102d56004803603602081101561050257600080fd5b50356110a6565b34801561051557600080fd5b506102be6004803603602081101561052c57600080fd5b503561114c565b34801561053f57600080fd5b506102696004803603602081101561055657600080fd5b503561120f565b34801561056957600080fd5b506102d56004803603602081101561058057600080fd5b5035600160a060020a03166112aa565b34801561059c57600080fd5b50610269611353565b3480156105b157600080fd5b506105d8600480360360208110156105c857600080fd5b5035600160a060020a0316611362565b60408051602080825283518183015283519192839290830191858101910280838360005b838110156106145781810151838201526020016105fc565b505050509050019250505060405180910390f35b34801561063457600080fd5b506101ca6113c3565b34801561064957600080fd5b506102be6004803603604081101561066057600080fd5b8135919081019060408101602082013564010000000081111561068257600080fd5b82018360208201111561069457600080fd5b803590602001918460018302840111640100000000831117156106b657600080fd5b509092509050611424565b3480156106cd57600080fd5b506102be600480360360408110156106e457600080fd5b50600160a060020a03813516906020013515156115bc565b34801561070857600080fd5b506102be6004803603608081101561071f57600080fd5b600160a060020a0382358116926020810135909116916040820135919081019060808101606082013564010000000081111561075a57600080fd5b82018360208201111561076c57600080fd5b8035906020019184600183028401116401000000008311171561078e57600080fd5b91908080601f01602080910402602001604051908101604052809392919081815260200183838082843760009201919091525092955061168b945050505050565b3480156107db57600080fd5b506101ca600480360360208110156107f257600080fd5b5035611724565b34801561080557600080fd5b506108236004803603602081101561081c57600080fd5b50356118bf565b6040518084815260200183815260200180602001828103825283818151815260200191508051906020019080838360005b8381101561086c578181015183820152602001610854565b50505050905090810190601f1680156108995780820380516001836020036101000a031916815260200191505b5094505050505060405180910390f35b3480156108b557600080fd5b506101a1600480360360408110156108cc57600080fd5b50600160a060020a0381358116916020013516611a3c565b3480156108f057600080fd5b506102d5611a6a565b7bffffffffffffffffffffffffffffffffffffffffffffffffffffffff191660009081526020819052604090205460ff1690565b60098054604080516020601f60026000196101006001881615020190951694909404938401819004810282018101909252828152606093909290918301828280156109b95780601f1061098e576101008083540402835291602001916109b9565b820191906000526020600020905b81548152906001019060200180831161099c57829003601f168201915b505050505090505b90565b60006109cf82611a70565b1515610a4b576040805160e560020a62461bcd02815260206004820152602c60248201527f4552433732313a20617070726f76656420717565727920666f72206e6f6e657860448201527f697374656e7420746f6b656e0000000000000000000000000000000000000000606482015290519081900360840190fd5b50600090815260026020526040902054600160a060020a031690565b6000610a728261120f565b9050600160a060020a038381169082161415610afe576040805160e560020a62461bcd02815260206004820152602160248201527f4552433732313a20617070726f76616c20746f2063757272656e74206f776e6560448201527f7200000000000000000000000000000000000000000000000000000000000000606482015290519081900360840190fd5b33600160a060020a0382161480610b1a5750610b1a8133611a3c565b1515610b96576040805160e560020a62461bcd02815260206004820152603860248201527f4552433732313a20617070726f76652063616c6c6572206973206e6f74206f7760448201527f6e6572206e6f7220617070726f76656420666f7220616c6c0000000000000000606482015290519081900360840190fd5b600082815260026020526040808220805473ffffffffffffffffffffffffffffffffffffffff1916600160a060020a0387811691821790925591518593918516917f8c5be1e5ebec7d5bd14f71427d1e84f3dd0314c0f7b2291e5b200ac8c7c3b92591a4505050565b60075490565b600b546040805160e060020a633af32abf0281523360048201529051600160a060020a0390921691633af32abf91602480820192602092909190829003018186803b158015610c5357600080fd5b505afa158015610c67573d6000803e3d6000fd5b505050506040513d6020811015610c7d57600080fd5b50511515610cc3576040805160e560020a62461bcd0281526020600482015260166024820152600080516020612601833981519152604482015290519081900360640190fd5b801515610d1a576040805160e560020a62461bcd02815260206004820152601060248201527f426173652055524920696e76616c696400000000000000000000000000000000604482015290519081900360640190fd5b610d26600c83836124da565b505050565b600e544211610d84576040805160e560020a62461bcd02815260206004820181905260248201527f5472616e7366657273206172652063757272656e746c792064697361626c6564604482015290519081900360640190fd5b610d26838383611a8d565b6000610d9a836112aa565b8210610e16576040805160e560020a62461bcd02815260206004820152602b60248201527f455243373231456e756d657261626c653a206f776e657220696e646578206f7560448201527f74206f6620626f756e6473000000000000000000000000000000000000000000606482015290519081900360840190fd5b600160a060020a0383166000908152600560205260409020805483908110610e3a57fe5b9060005260206000200154905092915050565b600b546040805160e060020a633af32abf0281523360048201529051600092600160a060020a031691633af32abf916024808301926020929190829003018186803b158015610e9b57600080fd5b505afa158015610eaf573d6000803e3d6000fd5b505050506040513d6020811015610ec557600080fd5b50511515610f0b576040805160e560020a62461bcd0281526020600482015260166024820152600080516020612601833981519152604482015290519081900360640190fd5b600d54610f1f90600163ffffffff611b1e16565b600d8190556040805160608101825288815260208082018990528251601f8801829004820281018201845287815291928301919088908890819084018382808284376000920182905250939094525050838152600f602090815260409182902084518155848201516001820155918401518051929350610fa89260028501929190910190612558565b50905050610fb68382611b7b565b6040518190600160a060020a038516907f2feda9071495da20047859acf6710a8c42a8198da4ce96ad26eed97313c7880890600090a39695505050505050565b600d5481565b610d26838383602060405190810160405280600081525061168b565b600c805460408051602060026001851615610100026000190190941693909304601f8101849004840282018401909252818152929183018282801561109e5780601f106110735761010080835404028352916020019161109e565b820191906000526020600020905b81548152906001019060200180831161108157829003601f168201915b505050505081565b60006110b0610bff565b821061112c576040805160e560020a62461bcd02815260206004820152602c60248201527f455243373231456e756d657261626c653a20676c6f62616c20696e646578206f60448201527f7574206f6620626f756e64730000000000000000000000000000000000000000606482015290519081900360840190fd5b600780548390811061113a57fe5b90600052602060002001549050919050565b600b546040805160e060020a633af32abf0281523360048201529051600160a060020a0390921691633af32abf91602480820192602092909190829003018186803b15801561119a57600080fd5b505afa1580156111ae573d6000803e3d6000fd5b505050506040513d60208110156111c457600080fd5b5051151561120a576040805160e560020a62461bcd0281526020600482015260166024820152600080516020612601833981519152604482015290519081900360640190fd5b600e55565b600081815260016020526040812054600160a060020a03168015156112a4576040805160e560020a62461bcd02815260206004820152602960248201527f4552433732313a206f776e657220717565727920666f72206e6f6e657869737460448201527f656e7420746f6b656e0000000000000000000000000000000000000000000000606482015290519081900360840190fd5b92915050565b6000600160a060020a0382161515611332576040805160e560020a62461bcd02815260206004820152602a60248201527f4552433732313a2062616c616e636520717565727920666f7220746865207a6560448201527f726f206164647265737300000000000000000000000000000000000000000000606482015290519081900360840190fd5b600160a060020a03821660009081526003602052604090206112a490611b9c565b600b54600160a060020a031681565b606061136d82611ba0565b8054806020026020016040519081016040528092919081815260200182805480156113b757602002820191906000526020600020905b8154815260200190600101908083116113a3575b50505050509050919050565b600a8054604080516020601f60026000196101006001881615020190951694909404938401819004810282018101909252828152606093909290918301828280156109b95780601f1061098e576101008083540402835291602001916109b9565b600b546040805160e060020a633af32abf0281523360048201529051600160a060020a0390921691633af32abf91602480820192602092909190829003018186803b15801561147257600080fd5b505afa158015611486573d6000803e3d6000fd5b505050506040513d602081101561149c57600080fd5b505115156114e2576040805160e560020a62461bcd0281526020600482015260166024820152600080516020612601833981519152604482015290519081900360640190fd5b826114ec81611a70565b1515611542576040805160e560020a62461bcd02815260206004820152601660248201527f546f6b656e206e6f7420666f756e6420666f7220494400000000000000000000604482015290519081900360640190fd5b811515611599576040805160e560020a62461bcd02815260206004820152601560248201527f4e65772049504653206861736820696e76616c69640000000000000000000000604482015290519081900360640190fd5b6000848152600f602052604090206115b59060020184846124da565b5050505050565b600160a060020a03821633141561161d576040805160e560020a62461bcd02815260206004820152601960248201527f4552433732313a20617070726f766520746f2063616c6c657200000000000000604482015290519081900360640190fd5b336000818152600460209081526040808320600160a060020a03871680855290835292819020805460ff1916861515908117909155815190815290519293927f17307eab39ab6107e8899845ad3d59bd9653f200f220920489ca2b5937696c31929181900390910190a35050565b611696848484610d2b565b6116a284848484611bba565b151561171e576040805160e560020a62461bcd02815260206004820152603260248201527f4552433732313a207472616e7366657220746f206e6f6e20455243373231526560448201527f63656976657220696d706c656d656e7465720000000000000000000000000000606482015290519081900360840190fd5b50505050565b60608161173081611a70565b1515611786576040805160e560020a62461bcd02815260206004820152601660248201527f546f6b656e206e6f7420666f756e6420666f7220494400000000000000000000604482015290519081900360640190fd5b600c8054604080516020601f600260001961010060018816150201909516949094049384018190048102820181019092528281526118b893909290918301828280156118135780601f106117e857610100808354040283529160200191611813565b820191906000526020600020905b8154815290600101906020018083116117f657829003601f168201915b5050506000878152600f60209081526040918290206002908101805484516001821615610100026000190190911692909204601f810184900484028301840190945283825290945092508301828280156118ae5780601f10611883576101008083540402835291602001916118ae565b820191906000526020600020905b81548152906001019060200180831161189157829003601f168201915b5050505050611d37565b9392505050565b6000806060836118ce81611a70565b1515611924576040805160e560020a62461bcd02815260206004820152601660248201527f546f6b656e206e6f7420666f756e6420666f7220494400000000000000000000604482015290519081900360640190fd5b6000858152600f60209081526040918290208054600180830154600c80548751600294821615610100026000190190911693909304601f8101879004870284018701909752868352939592949093611a2d9390918301828280156119c95780601f1061199e576101008083540402835291602001916119c9565b820191906000526020600020905b8154815290600101906020018083116119ac57829003601f168201915b50505060028088018054604080516020601f60001961010060018716150201909416959095049283018590048502810185019091528181529450909250908301828280156118ae5780601f10611883576101008083540402835291602001916118ae565b94509450945050509193909250565b600160a060020a03918216600090815260046020908152604080832093909416825291909152205460ff1690565b600e5481565b600090815260016020526040902054600160a060020a0316151590565b611a973382611d43565b1515611b13576040805160e560020a62461bcd02815260206004820152603160248201527f4552433732313a207472616e736665722063616c6c6572206973206e6f74206f60448201527f776e6572206e6f7220617070726f766564000000000000000000000000000000606482015290519081900360840190fd5b610d26838383611e20565b6000828201838110156118b8576040805160e560020a62461bcd02815260206004820152601b60248201527f536166654d6174683a206164646974696f6e206f766572666c6f770000000000604482015290519081900360640190fd5b611b858282611e3f565b611b8f8282611f85565b611b9881611fc3565b5050565b5490565b600160a060020a0316600090815260056020526040902090565b6000611bce84600160a060020a0316612007565b1515611bdc57506001611d2f565b6040517f150b7a020000000000000000000000000000000000000000000000000000000081523360048201818152600160a060020a03888116602485015260448401879052608060648501908152865160848601528651600095928a169463150b7a029490938c938b938b939260a4019060208501908083838e5b83811015611c6f578181015183820152602001611c57565b50505050905090810190601f168015611c9c5780820380516001836020036101000a031916815260200191505b5095505050505050602060405180830381600087803b158015611cbe57600080fd5b505af1158015611cd2573d6000803e3d6000fd5b505050506040513d6020811015611ce857600080fd5b50517bffffffffffffffffffffffffffffffffffffffffffffffffffffffff19167f150b7a0200000000000000000000000000000000000000000000000000000000149150505b949350505050565b60606118b8838361200f565b6000611d4e82611a70565b1515611dca576040805160e560020a62461bcd02815260206004820152602c60248201527f4552433732313a206f70657261746f7220717565727920666f72206e6f6e657860448201527f697374656e7420746f6b656e0000000000000000000000000000000000000000606482015290519081900360840190fd5b6000611dd58361120f565b905080600160a060020a031684600160a060020a03161480611e10575083600160a060020a0316611e05846109c4565b600160a060020a0316145b80611d2f5750611d2f8185611a3c565b611e2b838383612150565b611e358382612320565b610d268282611f85565b600160a060020a0382161515611e9f576040805160e560020a62461bcd02815260206004820181905260248201527f4552433732313a206d696e7420746f20746865207a65726f2061646472657373604482015290519081900360640190fd5b611ea881611a70565b15611efd576040805160e560020a62461bcd02815260206004820152601c60248201527f4552433732313a20746f6b656e20616c7265616479206d696e74656400000000604482015290519081900360640190fd5b6000818152600160209081526040808320805473ffffffffffffffffffffffffffffffffffffffff1916600160a060020a038716908117909155835260039091529020611f4990612410565b6040518190600160a060020a038416906000907fddf252ad1be2c89b69c2b068fc378daa952ba7f163c4a11628f55a4df523b3ef908290a45050565b600160a060020a0390911660009081526005602081815260408084208054868652600684529185208290559282526001810183559183529091200155565b600780546000838152600860205260408120829055600182018355919091527fa66cc928b5edb82af9bd49922954155ab7b0942694bea4ce44661d9a8736c6880155565b6000903b1190565b6060808390506060839050606081518351016040519080825280601f01601f19166020018201604052801561204b576020820181803883390190505b509050806000805b85518110156120c957858181518110151561206a57fe5b90602001015160f860020a900460f860020a02838380600101945081518110151561209157fe5b9060200101907effffffffffffffffffffffffffffffffffffffffffffffffffffffffffffff1916908160001a905350600101612053565b5060005b84518110156121435784818151811015156120e457fe5b90602001015160f860020a900460f860020a02838380600101945081518110151561210b57fe5b9060200101907effffffffffffffffffffffffffffffffffffffffffffffffffffffffffffff1916908160001a9053506001016120cd565b5090979650505050505050565b82600160a060020a03166121638261120f565b600160a060020a0316146121e7576040805160e560020a62461bcd02815260206004820152602960248201527f4552433732313a207472616e73666572206f6620746f6b656e2074686174206960448201527f73206e6f74206f776e0000000000000000000000000000000000000000000000606482015290519081900360840190fd5b600160a060020a038216151561226c576040805160e560020a62461bcd028152602060048201526024808201527f4552433732313a207472616e7366657220746f20746865207a65726f2061646460448201527f7265737300000000000000000000000000000000000000000000000000000000606482015290519081900360840190fd5b61227581612419565b600160a060020a038316600090815260036020526040902061229690612463565b600160a060020a03821660009081526003602052604090206122b790612410565b600081815260016020526040808220805473ffffffffffffffffffffffffffffffffffffffff1916600160a060020a0386811691821790925591518493918716917fddf252ad1be2c89b69c2b068fc378daa952ba7f163c4a11628f55a4df523b3ef91a4505050565b600160a060020a03821660009081526005602052604081205461234a90600163ffffffff61247a16565b6000838152600660205260409020549091508082146123e757600160a060020a038416600090815260056020526040812080548490811061238757fe5b90600052602060002001549050806005600087600160a060020a0316600160a060020a03168152602001908152602001600020838154811015156123c757fe5b600091825260208083209091019290925591825260069052604090208190555b600160a060020a03841660009081526005602052604090208054906115b59060001983016125c6565b80546001019055565b600081815260026020526040902054600160a060020a031615612460576000818152600260205260409020805473ffffffffffffffffffffffffffffffffffffffff191690555b50565b805461247690600163ffffffff61247a16565b9055565b6000828211156124d4576040805160e560020a62461bcd02815260206004820152601e60248201527f536166654d6174683a207375627472616374696f6e206f766572666c6f770000604482015290519081900360640190fd5b50900390565b828054600181600116156101000203166002900490600052602060002090601f016020900481019282601f1061251b5782800160ff19823516178555612548565b82800160010185558215612548579182015b8281111561254857823582559160200191906001019061252d565b506125549291506125e6565b5090565b828054600181600116156101000203166002900490600052602060002090601f016020900481019282601f1061259957805160ff1916838001178555612548565b82800160010185558215612548579182015b828111156125485782518255916020019190600101906125ab565b815481835581811115610d2657600083815260209020610d269181019083015b6109c191905b8082111561255457600081556001016125ec56fe43616c6c6572206e6f742077686974656c697374656400000000000000000000a165627a7a72305820aec2825744ec23c9aafac107c43a9aab6c13ba61f418a76e740c7101245a34be0029",
  "source": "pragma solidity ^0.5.0;\n\nimport \"@openzeppelin/contracts/math/SafeMath.sol\";\n\nimport \"../libs/Strings.sol\";\nimport \"../interfaces/erc721/CustomERC721Full.sol\";\nimport \"../interfaces/ITwistedSisterTokenCreator.sol\";\nimport \"../interfaces/ITwistedSisterAccessControls.sol\";\n\n\ncontract TwistedSisterToken is CustomERC721Full, ITwistedSisterTokenCreator {\n    using SafeMath for uint256;\n\n    ITwistedSisterAccessControls public accessControls;\n\n    string public tokenBaseURI = \"\";\n\n    event TwistMinted(\n        address indexed _recipient,\n        uint256 indexed _tokenId\n    );\n\n    struct Twist {\n        uint256 round;\n        uint256 parameter;\n        string ipfsHash;\n    }\n\n    uint256 public tokenIdPointer = 0;\n    uint256 public transfersEnabledFrom;\n\n    mapping(uint256 => Twist) internal twists;\n\n    modifier isWhitelisted() {\n        require(accessControls.isWhitelisted(msg.sender), \"Caller not whitelisted\");\n        _;\n    }\n\n    modifier onlyWhenTokenExists(uint256 _tokenId) {\n        require(_exists(_tokenId), \"Token not found for ID\");\n        _;\n    }\n\n    constructor (string memory _tokenBaseURI, ITwistedSisterAccessControls _accessControls, uint256 _transfersEnabledFrom)\n    public CustomERC721Full(\"Twisted\", \"TWIST\") {\n        accessControls = _accessControls;\n        tokenBaseURI = _tokenBaseURI;\n        transfersEnabledFrom = _transfersEnabledFrom;\n    }\n\n    function createTwisted(\n        uint256 _round,\n        uint256 _parameter,\n        string calldata _ipfsHash,\n        address _recipient\n    ) external isWhitelisted returns (uint256 _tokenId) {\n        tokenIdPointer = tokenIdPointer.add(1);\n        uint256 tokenId = tokenIdPointer;\n\n        // Create Twist metadata\n        twists[tokenId] = Twist({\n            round: _round,\n            parameter: _parameter,\n            ipfsHash: _ipfsHash\n        });\n\n        _mint(_recipient, tokenId);\n\n        emit TwistMinted(_recipient, tokenId);\n\n        return tokenId;\n    }\n\n    function attributes(uint256 _tokenId) external onlyWhenTokenExists(_tokenId) view returns (\n        uint256 _round,\n        uint256 _parameter,\n        string memory _ipfsUrl\n    ) {\n        Twist storage twist = twists[_tokenId];\n        return (\n            twist.round,\n            twist.parameter,\n            Strings.strConcat(tokenBaseURI, twist.ipfsHash)\n        );\n    }\n\n    function tokenURI(uint256 _tokenId) external onlyWhenTokenExists(_tokenId) view returns (string memory) {\n        return Strings.strConcat(tokenBaseURI, twists[_tokenId].ipfsHash);\n    }\n\n    function tokensOfOwner(address owner) external view returns (uint256[] memory) {\n        return _tokensOfOwner(owner);\n    }\n\n    function transferFrom(address from, address to, uint256 tokenId) public {\n        require(now > transfersEnabledFrom, \"Transfers are currently disabled\");\n        super.transferFrom(from, to, tokenId);\n    }\n\n    function updateTransfersEnabledFrom(uint256 _transfersEnabledFrom) external isWhitelisted {\n        transfersEnabledFrom = _transfersEnabledFrom;\n    }\n\n    function updateTokenBaseURI(string calldata _newBaseURI) external isWhitelisted {\n        require(bytes(_newBaseURI).length != 0, \"Base URI invalid\");\n        tokenBaseURI = _newBaseURI;\n    }\n\n    function updateIpfsHash(uint256 _tokenId, string calldata _newIpfsHash) external isWhitelisted onlyWhenTokenExists(_tokenId) {\n        require(bytes(_newIpfsHash).length != 0, \"New IPFS hash invalid\");\n        twists[_tokenId].ipfsHash = _newIpfsHash;\n    }\n}\n",
  "sourcePath": "/Users/andy/workspace/ts-contracts/contracts/token/TwistedSisterToken.sol",
  "compiler": {
    "name": "solc",
    "version": "0.5.0+commit.1d4f565a.Emscripten.clang"
  },
  "schemaVersion": "3.0.16",
  "updatedAt": "2019-10-28T08:39:22.695Z",
  "devdoc": {
    "methods": {
      "approve(address,uint256)": {
        "details": "Approves another address to transfer the given token ID The zero address indicates there is no approved address. There can only be one approved address per token at a given time. Can only be called by the token owner or an approved operator.",
        "params": {
          "to": "address to be approved for the given token ID",
          "tokenId": "uint256 ID of the token to be approved"
        }
      },
      "balanceOf(address)": {
        "details": "Gets the balance of the specified address.",
        "params": {
          "owner": "address to query the balance of"
        },
        "return": "uint256 representing the amount owned by the passed address"
      },
      "getApproved(uint256)": {
        "details": "Gets the approved address for a token ID, or zero if no address set Reverts if the token ID does not exist.",
        "params": {
          "tokenId": "uint256 ID of the token to query the approval of"
        },
        "return": "address currently approved for the given token ID"
      },
      "isApprovedForAll(address,address)": {
        "details": "Tells whether an operator is approved by a given owner.",
        "params": {
          "operator": "operator address which you want to query the approval of",
          "owner": "owner address which you want to query the approval of"
        },
        "return": "bool whether the given operator is approved by the given owner"
      },
      "name()": {
        "details": "Gets the token name.",
        "return": "string representing the token name"
      },
      "ownerOf(uint256)": {
        "details": "Gets the owner of the specified token ID.",
        "params": {
          "tokenId": "uint256 ID of the token to query the owner of"
        },
        "return": "address currently marked as the owner of the given token ID"
      },
      "safeTransferFrom(address,address,uint256)": {
        "details": "Safely transfers the ownership of a given token ID to another address If the target address is a contract, it must implement `onERC721Received`, which is called upon a safe transfer, and return the magic value `bytes4(keccak256(\"onERC721Received(address,address,uint256,bytes)\"))`; otherwise, the transfer is reverted. Requires the msg.sender to be the owner, approved, or operator",
        "params": {
          "from": "current owner of the token",
          "to": "address to receive the ownership of the given token ID",
          "tokenId": "uint256 ID of the token to be transferred"
        }
      },
      "safeTransferFrom(address,address,uint256,bytes)": {
        "details": "Safely transfers the ownership of a given token ID to another address If the target address is a contract, it must implement `onERC721Received`, which is called upon a safe transfer, and return the magic value `bytes4(keccak256(\"onERC721Received(address,address,uint256,bytes)\"))`; otherwise, the transfer is reverted. Requires the msg.sender to be the owner, approved, or operator",
        "params": {
          "_data": "bytes data to send along with a safe transfer check",
          "from": "current owner of the token",
          "to": "address to receive the ownership of the given token ID",
          "tokenId": "uint256 ID of the token to be transferred"
        }
      },
      "setApprovalForAll(address,bool)": {
        "details": "Sets or unsets the approval of a given operator An operator is allowed to transfer all tokens of the sender on their behalf.",
        "params": {
          "approved": "representing the status of the approval to be set",
          "to": "operator address to set the approval"
        }
      },
      "supportsInterface(bytes4)": {
        "details": "See `IERC165.supportsInterface`.     * Time complexity O(1), guaranteed to always use less than 30 000 gas."
      },
      "symbol()": {
        "details": "Gets the token symbol.",
        "return": "string representing the token symbol"
      },
      "tokenByIndex(uint256)": {
        "details": "Gets the token ID at a given index of all the tokens in this contract Reverts if the index is greater or equal to the total number of tokens.",
        "params": {
          "index": "uint256 representing the index to be accessed of the tokens list"
        },
        "return": "uint256 token ID at the given index of the tokens list"
      },
      "tokenOfOwnerByIndex(address,uint256)": {
        "details": "Gets the token ID at a given index of the tokens list of the requested owner.",
        "params": {
          "index": "uint256 representing the index to be accessed of the requested tokens list",
          "owner": "address owning the tokens list to be accessed"
        },
        "return": "uint256 token ID at the given index of the tokens list owned by the requested address"
      },
      "totalSupply()": {
        "details": "Gets the total amount of tokens stored by the contract.",
        "return": "uint256 representing the total amount of tokens"
      }
    }
  },
  "userdoc": {
    "methods": {}
  }
}