{
  "contractName": "TwistedSisterToken",
  "abi": [
    {
      "inputs": [
        {
          "internalType": "string",
          "name": "_tokenBaseURI",
          "type": "string"
        },
        {
          "internalType": "contract ITwistedSisterAccessControls",
          "name": "_accessControls",
          "type": "address"
        },
        {
          "internalType": "uint256",
          "name": "_transfersEnabledFrom",
          "type": "uint256"
        },
        {
          "internalType": "contract TwistedSisterArtistFundSplitter",
          "name": "_artistFundSplitter",
          "type": "address"
        }
      ],
      "payable": false,
      "stateMutability": "nonpayable",
      "type": "constructor"
    },
    {
      "anonymous": false,
      "inputs": [
        {
          "indexed": true,
          "internalType": "address",
          "name": "owner",
          "type": "address"
        },
        {
          "indexed": true,
          "internalType": "address",
          "name": "approved",
          "type": "address"
        },
        {
          "indexed": true,
          "internalType": "uint256",
          "name": "tokenId",
          "type": "uint256"
        }
      ],
      "name": "Approval",
      "type": "event"
    },
    {
      "anonymous": false,
      "inputs": [
        {
          "indexed": true,
          "internalType": "address",
          "name": "owner",
          "type": "address"
        },
        {
          "indexed": true,
          "internalType": "address",
          "name": "operator",
          "type": "address"
        },
        {
          "indexed": false,
          "internalType": "bool",
          "name": "approved",
          "type": "bool"
        }
      ],
      "name": "ApprovalForAll",
      "type": "event"
    },
    {
      "anonymous": false,
      "inputs": [
        {
          "indexed": true,
          "internalType": "address",
          "name": "from",
          "type": "address"
        },
        {
          "indexed": true,
          "internalType": "address",
          "name": "to",
          "type": "address"
        },
        {
          "indexed": true,
          "internalType": "uint256",
          "name": "tokenId",
          "type": "uint256"
        }
      ],
      "name": "Transfer",
      "type": "event"
    },
    {
      "anonymous": false,
      "inputs": [
        {
          "indexed": true,
          "internalType": "address",
          "name": "_recipient",
          "type": "address"
        },
        {
          "indexed": true,
          "internalType": "uint256",
          "name": "_tokenId",
          "type": "uint256"
        }
      ],
      "name": "TwistMinted",
      "type": "event"
    },
    {
      "constant": true,
      "inputs": [],
      "name": "accessControls",
      "outputs": [
        {
          "internalType": "contract ITwistedSisterAccessControls",
          "name": "",
          "type": "address"
        }
      ],
      "payable": false,
      "stateMutability": "view",
      "type": "function"
    },
    {
      "constant": false,
      "inputs": [
        {
          "internalType": "address",
          "name": "to",
          "type": "address"
        },
        {
          "internalType": "uint256",
          "name": "tokenId",
          "type": "uint256"
        }
      ],
      "name": "approve",
      "outputs": [],
      "payable": false,
      "stateMutability": "nonpayable",
      "type": "function"
    },
    {
      "constant": true,
      "inputs": [],
      "name": "artistFundSplitter",
      "outputs": [
        {
          "internalType": "contract TwistedSisterArtistFundSplitter",
          "name": "",
          "type": "address"
        }
      ],
      "payable": false,
      "stateMutability": "view",
      "type": "function"
    },
    {
      "constant": true,
      "inputs": [
        {
          "internalType": "address",
          "name": "owner",
          "type": "address"
        }
      ],
      "name": "balanceOf",
      "outputs": [
        {
          "internalType": "uint256",
          "name": "",
          "type": "uint256"
        }
      ],
      "payable": false,
      "stateMutability": "view",
      "type": "function"
    },
    {
      "constant": true,
      "inputs": [
        {
          "internalType": "uint256",
          "name": "tokenId",
          "type": "uint256"
        }
      ],
      "name": "getApproved",
      "outputs": [
        {
          "internalType": "address",
          "name": "",
          "type": "address"
        }
      ],
      "payable": false,
      "stateMutability": "view",
      "type": "function"
    },
    {
      "constant": true,
      "inputs": [
        {
          "internalType": "address",
          "name": "owner",
          "type": "address"
        },
        {
          "internalType": "address",
          "name": "operator",
          "type": "address"
        }
      ],
      "name": "isApprovedForAll",
      "outputs": [
        {
          "internalType": "bool",
          "name": "",
          "type": "bool"
        }
      ],
      "payable": false,
      "stateMutability": "view",
      "type": "function"
    },
    {
      "constant": true,
      "inputs": [],
      "name": "name",
      "outputs": [
        {
          "internalType": "string",
          "name": "",
          "type": "string"
        }
      ],
      "payable": false,
      "stateMutability": "view",
      "type": "function"
    },
    {
      "constant": true,
      "inputs": [
        {
          "internalType": "uint256",
          "name": "tokenId",
          "type": "uint256"
        }
      ],
      "name": "ownerOf",
      "outputs": [
        {
          "internalType": "address",
          "name": "",
          "type": "address"
        }
      ],
      "payable": false,
      "stateMutability": "view",
      "type": "function"
    },
    {
      "constant": false,
      "inputs": [
        {
          "internalType": "address payable",
          "name": "from",
          "type": "address"
        },
        {
          "internalType": "address",
          "name": "to",
          "type": "address"
        },
        {
          "internalType": "uint256",
          "name": "tokenId",
          "type": "uint256"
        }
      ],
      "name": "safeTransferFrom",
      "outputs": [],
      "payable": true,
      "stateMutability": "payable",
      "type": "function"
    },
    {
      "constant": false,
      "inputs": [
        {
          "internalType": "address payable",
          "name": "from",
          "type": "address"
        },
        {
          "internalType": "address",
          "name": "to",
          "type": "address"
        },
        {
          "internalType": "uint256",
          "name": "tokenId",
          "type": "uint256"
        },
        {
          "internalType": "bytes",
          "name": "_data",
          "type": "bytes"
        }
      ],
      "name": "safeTransferFrom",
      "outputs": [],
      "payable": true,
      "stateMutability": "payable",
      "type": "function"
    },
    {
      "constant": false,
      "inputs": [
        {
          "internalType": "address",
          "name": "to",
          "type": "address"
        },
        {
          "internalType": "bool",
          "name": "approved",
          "type": "bool"
        }
      ],
      "name": "setApprovalForAll",
      "outputs": [],
      "payable": false,
      "stateMutability": "nonpayable",
      "type": "function"
    },
    {
      "constant": true,
      "inputs": [
        {
          "internalType": "bytes4",
          "name": "interfaceId",
          "type": "bytes4"
        }
      ],
      "name": "supportsInterface",
      "outputs": [
        {
          "internalType": "bool",
          "name": "",
          "type": "bool"
        }
      ],
      "payable": false,
      "stateMutability": "view",
      "type": "function"
    },
    {
      "constant": true,
      "inputs": [],
      "name": "symbol",
      "outputs": [
        {
          "internalType": "string",
          "name": "",
          "type": "string"
        }
      ],
      "payable": false,
      "stateMutability": "view",
      "type": "function"
    },
    {
      "constant": true,
      "inputs": [],
      "name": "tokenBaseURI",
      "outputs": [
        {
          "internalType": "string",
          "name": "",
          "type": "string"
        }
      ],
      "payable": false,
      "stateMutability": "view",
      "type": "function"
    },
    {
      "constant": true,
      "inputs": [
        {
          "internalType": "uint256",
          "name": "index",
          "type": "uint256"
        }
      ],
      "name": "tokenByIndex",
      "outputs": [
        {
          "internalType": "uint256",
          "name": "",
          "type": "uint256"
        }
      ],
      "payable": false,
      "stateMutability": "view",
      "type": "function"
    },
    {
      "constant": true,
      "inputs": [],
      "name": "tokenIdPointer",
      "outputs": [
        {
          "internalType": "uint256",
          "name": "",
          "type": "uint256"
        }
      ],
      "payable": false,
      "stateMutability": "view",
      "type": "function"
    },
    {
      "constant": true,
      "inputs": [
        {
          "internalType": "address",
          "name": "owner",
          "type": "address"
        },
        {
          "internalType": "uint256",
          "name": "index",
          "type": "uint256"
        }
      ],
      "name": "tokenOfOwnerByIndex",
      "outputs": [
        {
          "internalType": "uint256",
          "name": "",
          "type": "uint256"
        }
      ],
      "payable": false,
      "stateMutability": "view",
      "type": "function"
    },
    {
      "constant": true,
      "inputs": [],
      "name": "totalSupply",
      "outputs": [
        {
          "internalType": "uint256",
          "name": "",
          "type": "uint256"
        }
      ],
      "payable": false,
      "stateMutability": "view",
      "type": "function"
    },
    {
      "constant": true,
      "inputs": [],
      "name": "transfersEnabledFrom",
      "outputs": [
        {
          "internalType": "uint256",
          "name": "",
          "type": "uint256"
        }
      ],
      "payable": false,
      "stateMutability": "view",
      "type": "function"
    },
    {
      "constant": false,
      "inputs": [
        {
          "internalType": "uint256",
          "name": "_round",
          "type": "uint256"
        },
        {
          "internalType": "uint256",
          "name": "_parameter",
          "type": "uint256"
        },
        {
          "internalType": "string",
          "name": "_ipfsHash",
          "type": "string"
        },
        {
          "internalType": "address",
          "name": "_recipient",
          "type": "address"
        }
      ],
      "name": "createTwisted",
      "outputs": [
        {
          "internalType": "uint256",
          "name": "_tokenId",
          "type": "uint256"
        }
      ],
      "payable": false,
      "stateMutability": "nonpayable",
      "type": "function"
    },
    {
      "constant": true,
      "inputs": [
        {
          "internalType": "uint256",
          "name": "_tokenId",
          "type": "uint256"
        }
      ],
      "name": "attributes",
      "outputs": [
        {
          "internalType": "uint256",
          "name": "_round",
          "type": "uint256"
        },
        {
          "internalType": "uint256",
          "name": "_parameter",
          "type": "uint256"
        },
        {
          "internalType": "string",
          "name": "_ipfsUrl",
          "type": "string"
        }
      ],
      "payable": false,
      "stateMutability": "view",
      "type": "function"
    },
    {
      "constant": true,
      "inputs": [
        {
          "internalType": "uint256",
          "name": "_tokenId",
          "type": "uint256"
        }
      ],
      "name": "tokenURI",
      "outputs": [
        {
          "internalType": "string",
          "name": "",
          "type": "string"
        }
      ],
      "payable": false,
      "stateMutability": "view",
      "type": "function"
    },
    {
      "constant": true,
      "inputs": [
        {
          "internalType": "address",
          "name": "owner",
          "type": "address"
        }
      ],
      "name": "tokensOfOwner",
      "outputs": [
        {
          "internalType": "uint256[]",
          "name": "",
          "type": "uint256[]"
        }
      ],
      "payable": false,
      "stateMutability": "view",
      "type": "function"
    },
    {
      "constant": false,
      "inputs": [
        {
          "internalType": "address payable",
          "name": "from",
          "type": "address"
        },
        {
          "internalType": "address",
          "name": "to",
          "type": "address"
        },
        {
          "internalType": "uint256",
          "name": "tokenId",
          "type": "uint256"
        }
      ],
      "name": "transferFrom",
      "outputs": [],
      "payable": true,
      "stateMutability": "payable",
      "type": "function"
    },
    {
      "constant": false,
      "inputs": [
        {
          "internalType": "uint256",
          "name": "_transfersEnabledFrom",
          "type": "uint256"
        }
      ],
      "name": "updateTransfersEnabledFrom",
      "outputs": [],
      "payable": false,
      "stateMutability": "nonpayable",
      "type": "function"
    },
    {
      "constant": false,
      "inputs": [
        {
          "internalType": "string",
          "name": "_newBaseURI",
          "type": "string"
        }
      ],
      "name": "updateTokenBaseURI",
      "outputs": [],
      "payable": false,
      "stateMutability": "nonpayable",
      "type": "function"
    },
    {
      "constant": false,
      "inputs": [
        {
          "internalType": "uint256",
          "name": "_tokenId",
          "type": "uint256"
        },
        {
          "internalType": "string",
          "name": "_newIpfsHash",
          "type": "string"
        }
      ],
      "name": "updateIpfsHash",
      "outputs": [],
      "payable": false,
      "stateMutability": "nonpayable",
      "type": "function"
    },
    {
      "constant": false,
      "inputs": [
        {
          "internalType": "contract TwistedSisterArtistFundSplitter",
          "name": "_artistFundSplitter",
          "type": "address"
        }
      ],
      "name": "updateArtistFundSplitter",
      "outputs": [],
      "payable": false,
      "stateMutability": "nonpayable",
      "type": "function"
    }
  ],
  "bytecode": "0x60a06040819052600060808190526200001b91600d91620003b0565b506000600e553480156200002e57600080fd5b5060405162002d9338038062002d93833981810160405260808110156200005457600080fd5b81019080805160405193929190846401000000008211156200007557600080fd5b9083019060208201858111156200008b57600080fd5b8251640100000000811182820188101715620000a657600080fd5b82525081516020918201929091019080838360005b83811015620000d5578181015183820152602001620000bb565b50505050905090810190601f168015620001035780820380516001836020036101000a031916815260200191505b506040818152602083810151848301516060909501518484018452601085527f747769737465647369737465722e696f00000000000000000000000000000000838601528351808501909452600584527f54574953540000000000000000000000000000000000000000000000000000009284019290925295509293508181620001b67f01ffc9a7000000000000000000000000000000000000000000000000000000006001600160e01b03620002e116565b620001ea7f80ac58cd000000000000000000000000000000000000000000000000000000006001600160e01b03620002e116565b6200021e7f780e9d63000000000000000000000000000000000000000000000000000000006001600160e01b03620002e116565b815162000233906009906020850190620003b0565b5080516200024990600a906020840190620003b0565b506200027e7f5b5e139f000000000000000000000000000000000000000000000000000000006001600160e01b03620002e116565b5050600b80546001600160a01b0319166001600160a01b03871617905550508351620002b290600d906020870190620003b0565b50600f91909155600c80546001600160a01b0319166001600160a01b0390921691909117905550620004559050565b7fffffffff0000000000000000000000000000000000000000000000000000000080821614156200037357604080517f08c379a000000000000000000000000000000000000000000000000000000000815260206004820152601c60248201527f4552433136353a20696e76616c696420696e7465726661636520696400000000604482015290519081900360640190fd5b7fffffffff00000000000000000000000000000000000000000000000000000000166000908152602081905260409020805460ff19166001179055565b828054600181600116156101000203166002900490600052602060002090601f016020900481019282601f10620003f357805160ff191683800117855562000423565b8280016001018555821562000423579182015b828111156200042357825182559160200191906001019062000406565b506200043192915062000435565b5090565b6200045291905b808211156200043157600081556001016200043c565b90565b61292e80620004656000396000f3fe6080604052600436106101b75760003560e01c80634fd774cd116100ec578063a22cb4651161008a578063c87b56dd11610064578063c87b56dd14610837578063d05dcc6a14610861578063e985e9c514610911578063e9bf24af1461094c576101b7565b8063a22cb46514610705578063b88d4fde14610740578063bdd7cfe714610804576101b7565b8063748365ef116100c6578063748365ef146105d65780638462151c146105eb57806395d89b411461066e5780639611c05114610683576101b7565b80634fd774cd1461054f5780636352211e1461057957806370a08231146105a3576101b7565b806323c19fbd116101595780633b3a1a7a116101335780633b3a1a7a146104c557806342842e0e146104da5780634e99b800146105105780634f6ccce714610525576101b7565b806323c19fbd146103e75780632f745c59146103fc578063309d568014610435576101b7565b8063095ea7b311610195578063095ea7b3146102d457806318160ddd1461030f5780632295ee5b1461033657806323b872dd146103b1576101b7565b806301ffc9a7146101bc57806306fdde0314610204578063081812fc1461028e575b600080fd5b3480156101c857600080fd5b506101f0600480360360208110156101df57600080fd5b50356001600160e01b031916610961565b604080519115158252519081900360200190f35b34801561021057600080fd5b50610219610980565b6040805160208082528351818301528351919283929083019185019080838360005b8381101561025357818101518382015260200161023b565b50505050905090810190601f1680156102805780820380516001836020036101000a031916815260200191505b509250505060405180910390f35b34801561029a57600080fd5b506102b8600480360360208110156102b157600080fd5b5035610a17565b604080516001600160a01b039092168252519081900360200190f35b3480156102e057600080fd5b5061030d600480360360408110156102f757600080fd5b506001600160a01b038135169060200135610a79565b005b34801561031b57600080fd5b50610324610b8a565b60408051918252519081900360200190f35b34801561034257600080fd5b5061030d6004803603602081101561035957600080fd5b810190602081018135600160201b81111561037357600080fd5b82018360208201111561038557600080fd5b803590602001918460018302840111600160201b831117156103a657600080fd5b509092509050610b90565b61030d600480360360608110156103c757600080fd5b506001600160a01b03813581169160208101359091169060400135610ca7565b3480156103f357600080fd5b506102b8610e9c565b34801561040857600080fd5b506103246004803603604081101561041f57600080fd5b506001600160a01b038135169060200135610eab565b34801561044157600080fd5b506103246004803603608081101561045857600080fd5b813591602081013591810190606081016040820135600160201b81111561047e57600080fd5b82018360208201111561049057600080fd5b803590602001918460018302840111600160201b831117156104b157600080fd5b9193509150356001600160a01b0316610f2b565b3480156104d157600080fd5b506103246110d7565b61030d600480360360608110156104f057600080fd5b506001600160a01b038135811691602081013590911690604001356110dd565b34801561051c57600080fd5b506102196110f8565b34801561053157600080fd5b506103246004803603602081101561054857600080fd5b5035611186565b34801561055b57600080fd5b5061030d6004803603602081101561057257600080fd5b50356111ec565b34801561058557600080fd5b506102b86004803603602081101561059c57600080fd5b50356112b2565b3480156105af57600080fd5b50610324600480360360208110156105c657600080fd5b50356001600160a01b0316611306565b3480156105e257600080fd5b506102b861136e565b3480156105f757600080fd5b5061061e6004803603602081101561060e57600080fd5b50356001600160a01b031661137d565b60408051602080825283518183015283519192839290830191858101910280838360005b8381101561065a578181015183820152602001610642565b505050509050019250505060405180910390f35b34801561067a57600080fd5b506102196113de565b34801561068f57600080fd5b5061030d600480360360408110156106a657600080fd5b81359190810190604081016020820135600160201b8111156106c757600080fd5b8201836020820111156106d957600080fd5b803590602001918460018302840111600160201b831117156106fa57600080fd5b50909250905061143f565b34801561071157600080fd5b5061030d6004803603604081101561072857600080fd5b506001600160a01b03813516906020013515156115c1565b61030d6004803603608081101561075657600080fd5b6001600160a01b03823581169260208101359091169160408201359190810190608081016060820135600160201b81111561079057600080fd5b8201836020820111156107a257600080fd5b803590602001918460018302840111600160201b831117156107c357600080fd5b91908080601f01602080910402602001604051908101604052809392919081815260200183838082843760009201919091525092955061168d945050505050565b34801561081057600080fd5b5061030d6004803603602081101561082757600080fd5b50356001600160a01b03166116e5565b34801561084357600080fd5b506102196004803603602081101561085a57600080fd5b50356117c8565b34801561086d57600080fd5b5061088b6004803603602081101561088457600080fd5b5035611957565b6040518084815260200183815260200180602001828103825283818151815260200191508051906020019080838360005b838110156108d45781810151838201526020016108bc565b50505050905090810190601f1680156109015780820380516001836020036101000a031916815260200191505b5094505050505060405180910390f35b34801561091d57600080fd5b506101f06004803603604081101561093457600080fd5b506001600160a01b0381358116916020013516611ac8565b34801561095857600080fd5b50610324611af6565b6001600160e01b03191660009081526020819052604090205460ff1690565b60098054604080516020601f6002600019610100600188161502019095169490940493840181900481028201810190925282815260609390929091830182828015610a0c5780601f106109e157610100808354040283529160200191610a0c565b820191906000526020600020905b8154815290600101906020018083116109ef57829003601f168201915b505050505090505b90565b6000610a2282611afc565b610a5d5760405162461bcd60e51b815260040180806020018281038252602c8152602001806127cb602c913960400191505060405180910390fd5b506000908152600260205260409020546001600160a01b031690565b6000610a84826112b2565b9050806001600160a01b0316836001600160a01b03161415610ad75760405162461bcd60e51b81526004018080602001828103825260218152602001806128206021913960400191505060405180910390fd5b336001600160a01b0382161480610af35750610af38133611ac8565b610b2e5760405162461bcd60e51b81526004018080602001828103825260388152602001806126fd6038913960400191505060405180910390fd5b60008281526002602052604080822080546001600160a01b0319166001600160a01b0387811691821790925591518593918516917f8c5be1e5ebec7d5bd14f71427d1e84f3dd0314c0f7b2291e5b200ac8c7c3b92591a4505050565b60075490565b600b5460408051633af32abf60e01b815233600482015290516001600160a01b0390921691633af32abf91602480820192602092909190829003018186803b158015610bdb57600080fd5b505afa158015610bef573d6000803e3d6000fd5b505050506040513d6020811015610c0557600080fd5b5051610c51576040805162461bcd60e51b815260206004820152601660248201527510d85b1b195c881b9bdd081dda1a5d195b1a5cdd195960521b604482015290519081900360640190fd5b80610c96576040805162461bcd60e51b815260206004820152601060248201526f10985cd948155492481a5b9d985b1a5960821b604482015290519081900360640190fd5b610ca2600d8383612529565b505050565b600f544211610cfd576040805162461bcd60e51b815260206004820181905260248201527f5472616e7366657273206172652063757272656e746c792064697361626c6564604482015290519081900360640190fd5b610d08838383611b19565b3415610ca2576000610d2134606463ffffffff611b6916565b90506000610d3682601463ffffffff611bd316565b9050610d4181611c2c565b6000610d5483600a63ffffffff611bd316565b600c546040519192506000916001600160a01b039091169083908381818185875af1925050503d8060008114610da6576040519150601f19603f3d011682016040523d82523d6000602084013e610dab565b606091505b5050905080610deb5760405162461bcd60e51b81526004018080602001828103825260318152602001806128c96031913960400191505060405180910390fd5b6000610dfe85604663ffffffff611bd316565b6040519091506000906001600160a01b038a169083908381818185875af1925050503d8060008114610e4c576040519150601f19603f3d011682016040523d82523d6000602084013e610e51565b606091505b5050905080610e915760405162461bcd60e51b81526004018080602001828103825260228152602001806127886022913960400191505060405180910390fd5b505050505050505050565b600c546001600160a01b031681565b6000610eb683611306565b8210610ef35760405162461bcd60e51b815260040180806020018281038252602b815260200180612650602b913960400191505060405180910390fd5b6001600160a01b0383166000908152600560205260409020805483908110610f1757fe5b906000526020600020015490505b92915050565b600b5460408051633af32abf60e01b815233600482015290516000926001600160a01b031691633af32abf916024808301926020929190829003018186803b158015610f7657600080fd5b505afa158015610f8a573d6000803e3d6000fd5b505050506040513d6020811015610fa057600080fd5b5051610fec576040805162461bcd60e51b815260206004820152601660248201527510d85b1b195c881b9bdd081dda1a5d195b1a5cdd195960521b604482015290519081900360640190fd5b600e5461100090600163ffffffff611cf916565b600e8190556040805160608101825288815260208082018990528251601f8801829004820281018201845287815291928301919088908890819084018382808284376000920182905250939094525050838152601060209081526040918290208451815584820151600182015591840151805192935061108992600285019291909101906125a7565b509050506110978382611d53565b60405181906001600160a01b038516907f2feda9071495da20047859acf6710a8c42a8198da4ce96ad26eed97313c7880890600090a39695505050505050565b600e5481565b610ca28383836040518060200160405280600081525061168d565b600d805460408051602060026001851615610100026000190190941693909304601f8101849004840282018401909252818152929183018282801561117e5780601f106111535761010080835404028352916020019161117e565b820191906000526020600020905b81548152906001019060200180831161116157829003601f168201915b505050505081565b6000611190610b8a565b82106111cd5760405162461bcd60e51b815260040180806020018281038252602c815260200180612872602c913960400191505060405180910390fd5b600782815481106111da57fe5b90600052602060002001549050919050565b600b5460408051633af32abf60e01b815233600482015290516001600160a01b0390921691633af32abf91602480820192602092909190829003018186803b15801561123757600080fd5b505afa15801561124b573d6000803e3d6000fd5b505050506040513d602081101561126157600080fd5b50516112ad576040805162461bcd60e51b815260206004820152601660248201527510d85b1b195c881b9bdd081dda1a5d195b1a5cdd195960521b604482015290519081900360640190fd5b600f55565b6000818152600160205260408120546001600160a01b031680610f255760405162461bcd60e51b815260040180806020018281038252602981526020018061275f6029913960400191505060405180910390fd5b60006001600160a01b03821661134d5760405162461bcd60e51b815260040180806020018281038252602a815260200180612735602a913960400191505060405180910390fd5b6001600160a01b0382166000908152600360205260409020610f2590611d74565b600b546001600160a01b031681565b606061138882611d78565b8054806020026020016040519081016040528092919081815260200182805480156113d257602002820191906000526020600020905b8154815260200190600101908083116113be575b50505050509050919050565b600a8054604080516020601f6002600019610100600188161502019095169490940493840181900481028201810190925282815260609390929091830182828015610a0c5780601f106109e157610100808354040283529160200191610a0c565b600b5460408051633af32abf60e01b815233600482015290516001600160a01b0390921691633af32abf91602480820192602092909190829003018186803b15801561148a57600080fd5b505afa15801561149e573d6000803e3d6000fd5b505050506040513d60208110156114b457600080fd5b5051611500576040805162461bcd60e51b815260206004820152601660248201527510d85b1b195c881b9bdd081dda1a5d195b1a5cdd195960521b604482015290519081900360640190fd5b8261150a81611afc565b611554576040805162461bcd60e51b8152602060048201526016602482015275151bdad95b881b9bdd08199bdd5b9908199bdc88125160521b604482015290519081900360640190fd5b8161159e576040805162461bcd60e51b815260206004820152601560248201527413995dc812541194c81a185cda081a5b9d985b1a59605a1b604482015290519081900360640190fd5b60008481526010602052604090206115ba906002018484612529565b5050505050565b6001600160a01b03821633141561161f576040805162461bcd60e51b815260206004820152601960248201527f4552433732313a20617070726f766520746f2063616c6c657200000000000000604482015290519081900360640190fd5b3360008181526004602090815260408083206001600160a01b03871680855290835292819020805460ff1916861515908117909155815190815290519293927f17307eab39ab6107e8899845ad3d59bd9653f200f220920489ca2b5937696c31929181900390910190a35050565b611698848484610ca7565b6116a484848484611d92565b6116df5760405162461bcd60e51b815260040180806020018281038252603281526020018061267b6032913960400191505060405180910390fd5b50505050565b600b5460408051633af32abf60e01b815233600482015290516001600160a01b0390921691633af32abf91602480820192602092909190829003018186803b15801561173057600080fd5b505afa158015611744573d6000803e3d6000fd5b505050506040513d602081101561175a57600080fd5b50516117a6576040805162461bcd60e51b815260206004820152601660248201527510d85b1b195c881b9bdd081dda1a5d195b1a5cdd195960521b604482015290519081900360640190fd5b600c80546001600160a01b0319166001600160a01b0392909216919091179055565b6060816117d481611afc565b61181e576040805162461bcd60e51b8152602060048201526016602482015275151bdad95b881b9bdd08199bdd5b9908199bdc88125160521b604482015290519081900360640190fd5b600d8054604080516020601f6002600019610100600188161502019095169490940493840181900481028201810190925282815261195093909290918301828280156118ab5780601f10611880576101008083540402835291602001916118ab565b820191906000526020600020905b81548152906001019060200180831161188e57829003601f168201915b5050506000878152601060209081526040918290206002908101805484516001821615610100026000190190911692909204601f810184900484028301840190945283825290945092508301828280156119465780601f1061191b57610100808354040283529160200191611946565b820191906000526020600020905b81548152906001019060200180831161192957829003601f168201915b5050505050611ec6565b9392505050565b60008060608361196681611afc565b6119b0576040805162461bcd60e51b8152602060048201526016602482015275151bdad95b881b9bdd08199bdd5b9908199bdc88125160521b604482015290519081900360640190fd5b6000858152601060209081526040918290208054600180830154600d80548751600294821615610100026000190190911693909304601f8101879004870284018701909752868352939592949093611ab9939091830182828015611a555780601f10611a2a57610100808354040283529160200191611a55565b820191906000526020600020905b815481529060010190602001808311611a3857829003601f168201915b50505060028088018054604080516020601f60001961010060018716150201909416959095049283018590048502810185019091528181529450909250908301828280156119465780601f1061191b57610100808354040283529160200191611946565b94509450945050509193909250565b6001600160a01b03918216600090815260046020908152604080832093909416825291909152205460ff1690565b600f5481565b6000908152600160205260409020546001600160a01b0316151590565b611b233382611ed2565b611b5e5760405162461bcd60e51b81526004018080602001828103825260318152602001806128416031913960400191505060405180910390fd5b610ca2838383611f6e565b6000808211611bbf576040805162461bcd60e51b815260206004820152601a60248201527f536166654d6174683a206469766973696f6e206279207a65726f000000000000604482015290519081900360640190fd5b6000828481611bca57fe5b04949350505050565b600082611be257506000610f25565b82820282848281611bef57fe5b04146119505760405162461bcd60e51b81526004018080602001828103825260218152602001806127aa6021913960400191505060405180910390fd5b6000611c43600e5483611b6990919063ffffffff16565b905060015b600e548111610ca2576000611c5c826112b2565b6040519091506000906001600160a01b0383169085908381818185875af1925050503d8060008114611caa576040519150601f19603f3d011682016040523d82523d6000602084013e611caf565b606091505b5050905080611cef5760405162461bcd60e51b815260040180806020018281038252602b81526020018061289e602b913960400191505060405180910390fd5b5050600101611c48565b600082820183811015611950576040805162461bcd60e51b815260206004820152601b60248201527f536166654d6174683a206164646974696f6e206f766572666c6f770000000000604482015290519081900360640190fd5b611d5d8282611f8d565b611d6782826120be565b611d70816120fc565b5050565b5490565b6001600160a01b0316600090815260056020526040902090565b6000611da6846001600160a01b0316612140565b611db257506001611ebe565b604051630a85bd0160e11b815233600482018181526001600160a01b03888116602485015260448401879052608060648501908152865160848601528651600095928a169463150b7a029490938c938b938b939260a4019060208501908083838e5b83811015611e2c578181015183820152602001611e14565b50505050905090810190601f168015611e595780820380516001836020036101000a031916815260200191505b5095505050505050602060405180830381600087803b158015611e7b57600080fd5b505af1158015611e8f573d6000803e3d6000fd5b505050506040513d6020811015611ea557600080fd5b50516001600160e01b031916630a85bd0160e11b149150505b949350505050565b60606119508383612146565b6000611edd82611afc565b611f185760405162461bcd60e51b815260040180806020018281038252602c8152602001806126d1602c913960400191505060405180910390fd5b6000611f23836112b2565b9050806001600160a01b0316846001600160a01b03161480611f5e5750836001600160a01b0316611f5384610a17565b6001600160a01b0316145b80611ebe5750611ebe8185611ac8565b611f7983838361223d565b611f838382612381565b610ca282826120be565b6001600160a01b038216611fe8576040805162461bcd60e51b815260206004820181905260248201527f4552433732313a206d696e7420746f20746865207a65726f2061646472657373604482015290519081900360640190fd5b611ff181611afc565b15612043576040805162461bcd60e51b815260206004820152601c60248201527f4552433732313a20746f6b656e20616c7265616479206d696e74656400000000604482015290519081900360640190fd5b600081815260016020908152604080832080546001600160a01b0319166001600160a01b0387169081179091558352600390915290206120829061246f565b60405181906001600160a01b038416906000907fddf252ad1be2c89b69c2b068fc378daa952ba7f163c4a11628f55a4df523b3ef908290a45050565b6001600160a01b0390911660009081526005602081815260408084208054868652600684529185208290559282526001810183559183529091200155565b600780546000838152600860205260408120829055600182018355919091527fa66cc928b5edb82af9bd49922954155ab7b0942694bea4ce44661d9a8736c6880155565b3b151590565b6060808390506060839050606081518351016040519080825280601f01601f191660200182016040528015612182576020820181803883390190505b509050806000805b85518110156121db5785818151811061219f57fe5b602001015160f81c60f81b8383806001019450815181106121bc57fe5b60200101906001600160f81b031916908160001a90535060010161218a565b5060005b8451811015612230578481815181106121f457fe5b602001015160f81c60f81b83838060010194508151811061221157fe5b60200101906001600160f81b031916908160001a9053506001016121df565b5090979650505050505050565b826001600160a01b0316612250826112b2565b6001600160a01b0316146122955760405162461bcd60e51b81526004018080602001828103825260298152602001806127f76029913960400191505060405180910390fd5b6001600160a01b0382166122da5760405162461bcd60e51b81526004018080602001828103825260248152602001806126ad6024913960400191505060405180910390fd5b6122e381612478565b6001600160a01b0383166000908152600360205260409020612304906124b5565b6001600160a01b03821660009081526003602052604090206123259061246f565b60008181526001602052604080822080546001600160a01b0319166001600160a01b0386811691821790925591518493918716917fddf252ad1be2c89b69c2b068fc378daa952ba7f163c4a11628f55a4df523b3ef91a4505050565b6001600160a01b0382166000908152600560205260408120546123ab90600163ffffffff6124cc16565b600083815260066020526040902054909150808214612446576001600160a01b03841660009081526005602052604081208054849081106123e857fe5b906000526020600020015490508060056000876001600160a01b03166001600160a01b03168152602001908152602001600020838154811061242657fe5b600091825260208083209091019290925591825260069052604090208190555b6001600160a01b03841660009081526005602052604090208054906115ba906000198301612615565b80546001019055565b6000818152600260205260409020546001600160a01b0316156124b257600081815260026020526040902080546001600160a01b03191690555b50565b80546124c890600163ffffffff6124cc16565b9055565b600082821115612523576040805162461bcd60e51b815260206004820152601e60248201527f536166654d6174683a207375627472616374696f6e206f766572666c6f770000604482015290519081900360640190fd5b50900390565b828054600181600116156101000203166002900490600052602060002090601f016020900481019282601f1061256a5782800160ff19823516178555612597565b82800160010185558215612597579182015b8281111561259757823582559160200191906001019061257c565b506125a3929150612635565b5090565b828054600181600116156101000203166002900490600052602060002090601f016020900481019282601f106125e857805160ff1916838001178555612597565b82800160010185558215612597579182015b828111156125975782518255916020019190600101906125fa565b815481835581811115610ca257600083815260209020610ca29181019083015b610a1491905b808211156125a3576000815560010161263b56fe455243373231456e756d657261626c653a206f776e657220696e646578206f7574206f6620626f756e64734552433732313a207472616e7366657220746f206e6f6e20455243373231526563656976657220696d706c656d656e7465724552433732313a207472616e7366657220746f20746865207a65726f20616464726573734552433732313a206f70657261746f7220717565727920666f72206e6f6e6578697374656e7420746f6b656e4552433732313a20617070726f76652063616c6c6572206973206e6f74206f776e6572206e6f7220617070726f76656420666f7220616c6c4552433732313a2062616c616e636520717565727920666f7220746865207a65726f20616464726573734552433732313a206f776e657220717565727920666f72206e6f6e6578697374656e7420746f6b656e4661696c656420746f2073656e642066756e647320746f207468652073656c6c6572536166654d6174683a206d756c7469706c69636174696f6e206f766572666c6f774552433732313a20617070726f76656420717565727920666f72206e6f6e6578697374656e7420746f6b656e4552433732313a207472616e73666572206f6620746f6b656e2074686174206973206e6f74206f776e4552433732313a20617070726f76616c20746f2063757272656e74206f776e65724552433732313a207472616e736665722063616c6c6572206973206e6f74206f776e6572206e6f7220617070726f766564455243373231456e756d657261626c653a20676c6f62616c20696e646578206f7574206f6620626f756e64734661696c656420746f2073656e642066756e647320746f206120545749535420746f6b656e206f776e65724661696c656420746f2073656e642066756e647320746f207468652061756374696f6e2066756e642073706c6974746572a265627a7a72315820fb1ef970b4ce198565b2c4ce69bc781f255991b8346eeda8f5c99b62718b7edf64736f6c634300050c0032",
  "source": "pragma solidity ^0.5.12;\n\nimport \"@openzeppelin/contracts/math/SafeMath.sol\";\n\nimport \"../libs/Strings.sol\";\nimport \"../interfaces/erc721/CustomERC721Full.sol\";\nimport \"../interfaces/ITwistedSisterTokenCreator.sol\";\nimport \"../interfaces/ITwistedSisterAccessControls.sol\";\nimport \"../TwistedSisterArtistFundSplitter.sol\";\n\n\ncontract TwistedSisterToken is CustomERC721Full, ITwistedSisterTokenCreator {\n    using SafeMath for uint256;\n\n    ITwistedSisterAccessControls public accessControls;\n    TwistedSisterArtistFundSplitter public artistFundSplitter;\n\n    string public tokenBaseURI = \"\";\n\n    event TwistMinted(\n        address indexed _recipient,\n        uint256 indexed _tokenId\n    );\n\n    struct Twist {\n        uint256 round;\n        uint256 parameter;\n        string ipfsHash;\n    }\n\n    uint256 public tokenIdPointer = 0;\n    uint256 public transfersEnabledFrom;\n\n    mapping(uint256 => Twist) internal twists;\n\n    modifier isWhitelisted() {\n        require(accessControls.isWhitelisted(msg.sender), \"Caller not whitelisted\");\n        _;\n    }\n\n    modifier onlyWhenTokenExists(uint256 _tokenId) {\n        require(_exists(_tokenId), \"Token not found for ID\");\n        _;\n    }\n\n    constructor (\n        string memory _tokenBaseURI,\n        ITwistedSisterAccessControls _accessControls,\n        uint256 _transfersEnabledFrom,\n        TwistedSisterArtistFundSplitter _artistFundSplitter\n    ) public CustomERC721Full(\"twistedsister.io\", \"TWIST\") {\n        accessControls = _accessControls;\n        tokenBaseURI = _tokenBaseURI;\n        transfersEnabledFrom = _transfersEnabledFrom;\n        artistFundSplitter = _artistFundSplitter;\n    }\n\n    function createTwisted(\n        uint256 _round,\n        uint256 _parameter,\n        string calldata _ipfsHash,\n        address _recipient\n    ) external isWhitelisted returns (uint256 _tokenId) {\n        tokenIdPointer = tokenIdPointer.add(1);\n        uint256 tokenId = tokenIdPointer;\n\n        // Create Twist metadata\n        twists[tokenId] = Twist({\n            round: _round,\n            parameter: _parameter,\n            ipfsHash: _ipfsHash\n        });\n\n        _mint(_recipient, tokenId);\n\n        emit TwistMinted(_recipient, tokenId);\n\n        return tokenId;\n    }\n\n    function attributes(uint256 _tokenId) external onlyWhenTokenExists(_tokenId) view returns (\n        uint256 _round,\n        uint256 _parameter,\n        string memory _ipfsUrl\n    ) {\n        Twist storage twist = twists[_tokenId];\n        return (\n            twist.round,\n            twist.parameter,\n            Strings.strConcat(tokenBaseURI, twist.ipfsHash)\n        );\n    }\n\n    function tokenURI(uint256 _tokenId) external onlyWhenTokenExists(_tokenId) view returns (string memory) {\n        return Strings.strConcat(tokenBaseURI, twists[_tokenId].ipfsHash);\n    }\n\n    function tokensOfOwner(address owner) external view returns (uint256[] memory) {\n        return _tokensOfOwner(owner);\n    }\n\n    function transferFrom(address payable from, address to, uint256 tokenId) public payable {\n        require(now > transfersEnabledFrom, \"Transfers are currently disabled\");\n\n        super.transferFrom(from, to, tokenId);\n\n        if (msg.value > 0) {\n            uint256 singleUnitOfValue = msg.value.div(100);\n\n            // 20% holders\n            uint256 holderSplit = singleUnitOfValue.mul(20);\n            _sendValueToTokenHolders(holderSplit);\n\n            // 10% artists\n            uint256 artistsSplit = singleUnitOfValue.mul(10);\n            (bool fsSuccess, ) = address(artistFundSplitter).call.value(artistsSplit)(\"\");\n            require(fsSuccess, \"Failed to send funds to the auction fund splitter\");\n\n            // 70% seller\n            uint256 sellersSplit = singleUnitOfValue.mul(70);\n            (bool fromSuccess, ) = from.call.value(sellersSplit)(\"\");\n            require(fromSuccess, \"Failed to send funds to the seller\");\n        }\n    }\n\n    function _sendValueToTokenHolders(uint256 _value) private {\n        uint256 individualTokenHolderSplit = _value.div(tokenIdPointer);\n        for(uint i = 1; i <= tokenIdPointer; i++) {\n            address payable owner = address(uint160(super.ownerOf(i)));\n            (bool ownerSuccess, ) = owner.call.value(individualTokenHolderSplit)(\"\");\n            require(ownerSuccess, \"Failed to send funds to a TWIST token owner\");\n        }\n    }\n\n    function updateTransfersEnabledFrom(uint256 _transfersEnabledFrom) external isWhitelisted {\n        transfersEnabledFrom = _transfersEnabledFrom;\n    }\n\n    function updateTokenBaseURI(string calldata _newBaseURI) external isWhitelisted {\n        require(bytes(_newBaseURI).length != 0, \"Base URI invalid\");\n        tokenBaseURI = _newBaseURI;\n    }\n\n    function updateIpfsHash(uint256 _tokenId, string calldata _newIpfsHash) external isWhitelisted onlyWhenTokenExists(_tokenId) {\n        require(bytes(_newIpfsHash).length != 0, \"New IPFS hash invalid\");\n        twists[_tokenId].ipfsHash = _newIpfsHash;\n    }\n\n    function updateArtistFundSplitter(TwistedSisterArtistFundSplitter _artistFundSplitter) external isWhitelisted {\n        artistFundSplitter = _artistFundSplitter;\n    }\n}\n",
  "sourcePath": "/Users/Natalie/Projects/ts-contracts/contracts/token/TwistedSisterToken.sol",
  "compiler": {
    "name": "solc",
    "version": "0.5.12+commit.7709ece9.Emscripten.clang"
  },
  "schemaVersion": "3.0.16",
  "updatedAt": "2019-10-31T16:38:38.678Z",
  "devdoc": {
    "methods": {
      "approve(address,uint256)": {
        "details": "Approves another address to transfer the given token ID The zero address indicates there is no approved address. There can only be one approved address per token at a given time. Can only be called by the token owner or an approved operator.",
        "params": {
          "to": "address to be approved for the given token ID",
          "tokenId": "uint256 ID of the token to be approved"
        }
      },
      "balanceOf(address)": {
        "details": "Gets the balance of the specified address.",
        "params": {
          "owner": "address to query the balance of"
        },
        "return": "uint256 representing the amount owned by the passed address"
      },
      "getApproved(uint256)": {
        "details": "Gets the approved address for a token ID, or zero if no address set Reverts if the token ID does not exist.",
        "params": {
          "tokenId": "uint256 ID of the token to query the approval of"
        },
        "return": "address currently approved for the given token ID"
      },
      "isApprovedForAll(address,address)": {
        "details": "Tells whether an operator is approved by a given owner.",
        "params": {
          "operator": "operator address which you want to query the approval of",
          "owner": "owner address which you want to query the approval of"
        },
        "return": "bool whether the given operator is approved by the given owner"
      },
      "name()": {
        "details": "Gets the token name.",
        "return": "string representing the token name"
      },
      "ownerOf(uint256)": {
        "details": "Gets the owner of the specified token ID.",
        "params": {
          "tokenId": "uint256 ID of the token to query the owner of"
        },
        "return": "address currently marked as the owner of the given token ID"
      },
      "safeTransferFrom(address,address,uint256)": {
        "details": "Safely transfers the ownership of a given token ID to another address If the target address is a contract, it must implement `onERC721Received`, which is called upon a safe transfer, and return the magic value `bytes4(keccak256(\"onERC721Received(address,address,uint256,bytes)\"))`; otherwise, the transfer is reverted. Requires the msg.sender to be the owner, approved, or operator",
        "params": {
          "from": "current owner of the token",
          "to": "address to receive the ownership of the given token ID",
          "tokenId": "uint256 ID of the token to be transferred"
        }
      },
      "safeTransferFrom(address,address,uint256,bytes)": {
        "details": "Safely transfers the ownership of a given token ID to another address If the target address is a contract, it must implement `onERC721Received`, which is called upon a safe transfer, and return the magic value `bytes4(keccak256(\"onERC721Received(address,address,uint256,bytes)\"))`; otherwise, the transfer is reverted. Requires the msg.sender to be the owner, approved, or operator",
        "params": {
          "_data": "bytes data to send along with a safe transfer check",
          "from": "current owner of the token",
          "to": "address to receive the ownership of the given token ID",
          "tokenId": "uint256 ID of the token to be transferred"
        }
      },
      "setApprovalForAll(address,bool)": {
        "details": "Sets or unsets the approval of a given operator An operator is allowed to transfer all tokens of the sender on their behalf.",
        "params": {
          "approved": "representing the status of the approval to be set",
          "to": "operator address to set the approval"
        }
      },
      "supportsInterface(bytes4)": {
        "details": "See `IERC165.supportsInterface`.     * Time complexity O(1), guaranteed to always use less than 30 000 gas."
      },
      "symbol()": {
        "details": "Gets the token symbol.",
        "return": "string representing the token symbol"
      },
      "tokenByIndex(uint256)": {
        "details": "Gets the token ID at a given index of all the tokens in this contract Reverts if the index is greater or equal to the total number of tokens.",
        "params": {
          "index": "uint256 representing the index to be accessed of the tokens list"
        },
        "return": "uint256 token ID at the given index of the tokens list"
      },
      "tokenOfOwnerByIndex(address,uint256)": {
        "details": "Gets the token ID at a given index of the tokens list of the requested owner.",
        "params": {
          "index": "uint256 representing the index to be accessed of the requested tokens list",
          "owner": "address owning the tokens list to be accessed"
        },
        "return": "uint256 token ID at the given index of the tokens list owned by the requested address"
      },
      "totalSupply()": {
        "details": "Gets the total amount of tokens stored by the contract.",
        "return": "uint256 representing the total amount of tokens"
      }
    }
  },
  "userdoc": {
    "methods": {}
  }
}